{
  "contractName": "DeclTest0",
  "abi": [
    {
      "inputs": [],
      "stateMutability": "nonpayable",
      "type": "constructor"
    },
    {
      "anonymous": false,
      "inputs": [
        {
          "indexed": true,
          "internalType": "address",
          "name": "owner",
          "type": "address"
        },
        {
          "indexed": true,
          "internalType": "address",
          "name": "approved",
          "type": "address"
        },
        {
          "indexed": true,
          "internalType": "uint256",
          "name": "tokenId",
          "type": "uint256"
        }
      ],
      "name": "Approval",
      "type": "event"
    },
    {
      "anonymous": false,
      "inputs": [
        {
          "indexed": true,
          "internalType": "address",
          "name": "owner",
          "type": "address"
        },
        {
          "indexed": true,
          "internalType": "address",
          "name": "operator",
          "type": "address"
        },
        {
          "indexed": false,
          "internalType": "bool",
          "name": "approved",
          "type": "bool"
        }
      ],
      "name": "ApprovalForAll",
      "type": "event"
    },
    {
      "anonymous": false,
      "inputs": [
        {
          "indexed": false,
          "internalType": "uint256",
          "name": "id",
          "type": "uint256"
        },
        {
          "indexed": false,
          "internalType": "string",
          "name": "tokenURI",
          "type": "string"
        },
        {
          "indexed": false,
          "internalType": "uint256[][]",
          "name": "indices",
          "type": "uint256[][]"
        },
        {
          "indexed": false,
          "internalType": "address payable",
          "name": "minter",
          "type": "address"
        },
        {
          "indexed": false,
          "internalType": "uint256",
          "name": "addedAt",
          "type": "uint256"
        }
      ],
      "name": "DeclMinted",
      "type": "event"
    },
    {
      "anonymous": false,
      "inputs": [
        {
          "indexed": false,
          "internalType": "address payable",
          "name": "minter",
          "type": "address"
        },
        {
          "indexed": false,
          "internalType": "uint256",
          "name": "addedAt",
          "type": "uint256"
        }
      ],
      "name": "Example",
      "type": "event"
    },
    {
      "anonymous": false,
      "inputs": [
        {
          "indexed": true,
          "internalType": "address",
          "name": "previousOwner",
          "type": "address"
        },
        {
          "indexed": true,
          "internalType": "address",
          "name": "newOwner",
          "type": "address"
        }
      ],
      "name": "OwnershipTransferred",
      "type": "event"
    },
    {
      "anonymous": false,
      "inputs": [
        {
          "indexed": true,
          "internalType": "address",
          "name": "from",
          "type": "address"
        },
        {
          "indexed": true,
          "internalType": "address",
          "name": "to",
          "type": "address"
        },
        {
          "indexed": true,
          "internalType": "uint256",
          "name": "tokenId",
          "type": "uint256"
        }
      ],
      "name": "Transfer",
      "type": "event"
    },
    {
      "inputs": [
        {
          "internalType": "address",
          "name": "to",
          "type": "address"
        },
        {
          "internalType": "uint256",
          "name": "tokenId",
          "type": "uint256"
        }
      ],
      "name": "approve",
      "outputs": [],
      "stateMutability": "nonpayable",
      "type": "function"
    },
    {
      "inputs": [
        {
          "internalType": "address",
          "name": "owner",
          "type": "address"
        }
      ],
      "name": "balanceOf",
      "outputs": [
        {
          "internalType": "uint256",
          "name": "",
          "type": "uint256"
        }
      ],
      "stateMutability": "view",
      "type": "function",
      "constant": true
    },
    {
      "inputs": [
        {
          "internalType": "uint256",
          "name": "",
          "type": "uint256"
        }
      ],
      "name": "declarations",
      "outputs": [
        {
          "internalType": "uint256",
          "name": "id",
          "type": "uint256"
        },
        {
          "internalType": "uint256",
          "name": "addedAt",
          "type": "uint256"
        },
        {
          "internalType": "string",
          "name": "tokenURI",
          "type": "string"
        }
      ],
      "stateMutability": "view",
      "type": "function",
      "constant": true
    },
    {
      "inputs": [
        {
          "internalType": "uint256",
          "name": "tokenId",
          "type": "uint256"
        }
      ],
      "name": "getApproved",
      "outputs": [
        {
          "internalType": "address",
          "name": "",
          "type": "address"
        }
      ],
      "stateMutability": "view",
      "type": "function",
      "constant": true
    },
    {
      "inputs": [
        {
          "internalType": "address",
          "name": "owner",
          "type": "address"
        },
        {
          "internalType": "address",
          "name": "operator",
          "type": "address"
        }
      ],
      "name": "isApprovedForAll",
      "outputs": [
        {
          "internalType": "bool",
          "name": "",
          "type": "bool"
        }
      ],
      "stateMutability": "view",
      "type": "function",
      "constant": true
    },
    {
      "inputs": [],
      "name": "name",
      "outputs": [
        {
          "internalType": "string",
          "name": "",
          "type": "string"
        }
      ],
      "stateMutability": "view",
      "type": "function",
      "constant": true
    },
    {
      "inputs": [],
      "name": "owner",
      "outputs": [
        {
          "internalType": "address",
          "name": "",
          "type": "address"
        }
      ],
      "stateMutability": "view",
      "type": "function",
      "constant": true
    },
    {
      "inputs": [
        {
          "internalType": "uint256",
          "name": "tokenId",
          "type": "uint256"
        }
      ],
      "name": "ownerOf",
      "outputs": [
        {
          "internalType": "address",
          "name": "",
          "type": "address"
        }
      ],
      "stateMutability": "view",
      "type": "function",
      "constant": true
    },
    {
      "inputs": [],
      "name": "publicMintCount",
      "outputs": [
        {
          "internalType": "uint256",
          "name": "",
          "type": "uint256"
        }
      ],
      "stateMutability": "view",
      "type": "function",
      "constant": true
    },
    {
      "inputs": [],
      "name": "renounceOwnership",
      "outputs": [],
      "stateMutability": "nonpayable",
      "type": "function"
    },
    {
      "inputs": [
        {
          "internalType": "address",
          "name": "from",
          "type": "address"
        },
        {
          "internalType": "address",
          "name": "to",
          "type": "address"
        },
        {
          "internalType": "uint256",
          "name": "tokenId",
          "type": "uint256"
        }
      ],
      "name": "safeTransferFrom",
      "outputs": [],
      "stateMutability": "nonpayable",
      "type": "function"
    },
    {
      "inputs": [
        {
          "internalType": "address",
          "name": "from",
          "type": "address"
        },
        {
          "internalType": "address",
          "name": "to",
          "type": "address"
        },
        {
          "internalType": "uint256",
          "name": "tokenId",
          "type": "uint256"
        },
        {
          "internalType": "bytes",
          "name": "_data",
          "type": "bytes"
        }
      ],
      "name": "safeTransferFrom",
      "outputs": [],
      "stateMutability": "nonpayable",
      "type": "function"
    },
    {
      "inputs": [
        {
          "internalType": "address",
          "name": "operator",
          "type": "address"
        },
        {
          "internalType": "bool",
          "name": "approved",
          "type": "bool"
        }
      ],
      "name": "setApprovalForAll",
      "outputs": [],
      "stateMutability": "nonpayable",
      "type": "function"
    },
    {
      "inputs": [
        {
          "internalType": "bytes4",
          "name": "interfaceId",
          "type": "bytes4"
        }
      ],
      "name": "supportsInterface",
      "outputs": [
        {
          "internalType": "bool",
          "name": "",
          "type": "bool"
        }
      ],
      "stateMutability": "view",
      "type": "function",
      "constant": true
    },
    {
      "inputs": [],
      "name": "symbol",
      "outputs": [
        {
          "internalType": "string",
          "name": "",
          "type": "string"
        }
      ],
      "stateMutability": "view",
      "type": "function",
      "constant": true
    },
    {
      "inputs": [
        {
          "internalType": "uint256",
          "name": "tokenId",
          "type": "uint256"
        }
      ],
      "name": "tokenURI",
      "outputs": [
        {
          "internalType": "string",
          "name": "",
          "type": "string"
        }
      ],
      "stateMutability": "view",
      "type": "function",
      "constant": true
    },
    {
      "inputs": [
        {
          "internalType": "address",
          "name": "from",
          "type": "address"
        },
        {
          "internalType": "address",
          "name": "to",
          "type": "address"
        },
        {
          "internalType": "uint256",
          "name": "tokenId",
          "type": "uint256"
        }
      ],
      "name": "transferFrom",
      "outputs": [],
      "stateMutability": "nonpayable",
      "type": "function"
    },
    {
      "inputs": [
        {
          "internalType": "address",
          "name": "newOwner",
          "type": "address"
        }
      ],
      "name": "transferOwnership",
      "outputs": [],
      "stateMutability": "nonpayable",
      "type": "function"
    },
    {
      "inputs": [],
      "name": "justEmit",
      "outputs": [],
      "stateMutability": "nonpayable",
      "type": "function"
    },
    {
      "inputs": [
        {
          "internalType": "string",
          "name": "_tokenURI",
          "type": "string"
        },
        {
          "internalType": "uint256[][]",
          "name": "indices",
          "type": "uint256[][]"
        }
      ],
      "name": "mint",
      "outputs": [],
      "stateMutability": "nonpayable",
      "type": "function"
    },
    {
      "inputs": [],
      "name": "ownerMint",
      "outputs": [],
      "stateMutability": "nonpayable",
      "type": "function"
    }
  ],
  "bytecode": "0x608060405261251c600a556101f4600b556000600c556000600d553480156200002757600080fd5b506040518060400160405280600e81526020017f52656465636c61726174696f6e730000000000000000000000000000000000008152506040518060400160405280600581526020017f524544434c0000000000000000000000000000000000000000000000000000008152508160009080519060200190620000ac929190620001c4565b508060019080519060200190620000c5929190620001c4565b5050506001600781905550620000f0620000e4620000f660201b60201c565b620000fe60201b60201c565b620002d9565b600033905090565b6000600860009054906101000a900473ffffffffffffffffffffffffffffffffffffffff16905081600860006101000a81548173ffffffffffffffffffffffffffffffffffffffff021916908373ffffffffffffffffffffffffffffffffffffffff1602179055508173ffffffffffffffffffffffffffffffffffffffff168173ffffffffffffffffffffffffffffffffffffffff167f8be0079c531659141344cd1fd0a4f28419497f9722a3daafe3b4186f6b6457e060405160405180910390a35050565b828054620001d290620002a3565b90600052602060002090601f016020900481019282620001f6576000855562000242565b82601f106200021157805160ff191683800117855562000242565b8280016001018555821562000242579182015b828111156200024157825182559160200191906001019062000224565b5b50905062000251919062000255565b5090565b5b808211156200027057600081600090555060010162000256565b5090565b7f4e487b7100000000000000000000000000000000000000000000000000000000600052602260045260246000fd5b60006002820490506001821680620002bc57607f821691505b60208210811415620002d357620002d262000274565b5b50919050565b6142da80620002e96000396000f3fe608060405234801561001057600080fd5b50600436106101375760003560e01c8063715018a6116100b8578063b88d4fde1161007c578063b88d4fde14610302578063c87b56dd1461031e578063e985e9c51461034e578063eb7a3bde1461037e578063f2fde38b146103b0578063f6ddddf5146103cc57610137565b8063715018a6146102965780638da5cb5b146102a057806395d89b41146102be578063a22cb465146102dc578063b12dc991146102f857610137565b806323b872dd116100ff57806323b872dd146101f457806335ec09221461021057806342842e0e1461021a5780636352211e1461023657806370a082311461026657610137565b806301ffc9a71461013c57806306fdde031461016c578063081812fc1461018a578063095ea7b3146101ba5780630d84d1ce146101d6575b600080fd5b6101566004803603810190610151919061256f565b6103e8565b60405161016391906125b7565b60405180910390f35b6101746104ca565b604051610181919061266b565b60405180910390f35b6101a4600480360381019061019f91906126c3565b61055c565b6040516101b19190612731565b60405180910390f35b6101d460048036038101906101cf9190612778565b6105e1565b005b6101de6106f9565b6040516101eb91906127c7565b60405180910390f35b61020e600480360381019061020991906127e2565b6106ff565b005b61021861075f565b005b610234600480360381019061022f91906127e2565b61079a565b005b610250600480360381019061024b91906126c3565b6107ba565b60405161025d9190612731565b60405180910390f35b610280600480360381019061027b9190612835565b61086c565b60405161028d91906127c7565b60405180910390f35b61029e610924565b005b6102a86109ac565b6040516102b59190612731565b60405180910390f35b6102c66109d6565b6040516102d3919061266b565b60405180910390f35b6102f660048036038101906102f1919061288e565b610a68565b005b610300610a7e565b005b61031c60048036038101906103179190612a03565b610b56565b005b610338600480360381019061033391906126c3565b610bb8565b604051610345919061266b565b60405180910390f35b61036860048036038101906103639190612a86565b610d0a565b60405161037591906125b7565b60405180910390f35b610398600480360381019061039391906126c3565b610d9e565b6040516103a793929190612ac6565b60405180910390f35b6103ca60048036038101906103c59190612835565b610e50565b005b6103e660048036038101906103e19190612bba565b610f48565b005b60007f80ac58cd000000000000000000000000000000000000000000000000000000007bffffffffffffffffffffffffffffffffffffffffffffffffffffffff1916827bffffffffffffffffffffffffffffffffffffffffffffffffffffffff191614806104b357507f5b5e139f000000000000000000000000000000000000000000000000000000007bffffffffffffffffffffffffffffffffffffffffffffffffffffffff1916827bffffffffffffffffffffffffffffffffffffffffffffffffffffffff1916145b806104c357506104c28261126f565b5b9050919050565b6060600080546104d990612c6a565b80601f016020809104026020016040519081016040528092919081815260200182805461050590612c6a565b80156105525780601f1061052757610100808354040283529160200191610552565b820191906000526020600020905b81548152906001019060200180831161053557829003601f168201915b5050505050905090565b6000610567826112d9565b6105a6576040517f08c379a000000000000000000000000000000000000000000000000000000000815260040161059d90612d0e565b60405180910390fd5b6004600083815260200190815260200160002060009054906101000a900473ffffffffffffffffffffffffffffffffffffffff169050919050565b60006105ec826107ba565b90508073ffffffffffffffffffffffffffffffffffffffff168373ffffffffffffffffffffffffffffffffffffffff16141561065d576040517f08c379a000000000000000000000000000000000000000000000000000000000815260040161065490612da0565b60405180910390fd5b8073ffffffffffffffffffffffffffffffffffffffff1661067c611345565b73ffffffffffffffffffffffffffffffffffffffff1614806106ab57506106aa816106a5611345565b610d0a565b5b6106ea576040517f08c379a00000000000000000000000000000000000000000000000000000000081526004016106e190612e32565b60405180910390fd5b6106f4838361134d565b505050565b600c5481565b61071061070a611345565b82611406565b61074f576040517f08c379a000000000000000000000000000000000000000000000000000000000815260040161074690612ec4565b60405180910390fd5b61075a8383836114e4565b505050565b7fff7c23f96ed64304a9c73b267a9a59e9f1e619f35c08699193ce867c763ff1c03342604051610790929190612f05565b60405180910390a1565b6107b583838360405180602001604052806000815250610b56565b505050565b6000806002600084815260200190815260200160002060009054906101000a900473ffffffffffffffffffffffffffffffffffffffff169050600073ffffffffffffffffffffffffffffffffffffffff168173ffffffffffffffffffffffffffffffffffffffff161415610863576040517f08c379a000000000000000000000000000000000000000000000000000000000815260040161085a90612fa0565b60405180910390fd5b80915050919050565b60008073ffffffffffffffffffffffffffffffffffffffff168273ffffffffffffffffffffffffffffffffffffffff1614156108dd576040517f08c379a00000000000000000000000000000000000000000000000000000000081526004016108d490613032565b60405180910390fd5b600360008373ffffffffffffffffffffffffffffffffffffffff1673ffffffffffffffffffffffffffffffffffffffff168152602001908152602001600020549050919050565b61092c611345565b73ffffffffffffffffffffffffffffffffffffffff1661094a6109ac565b73ffffffffffffffffffffffffffffffffffffffff16146109a0576040517f08c379a00000000000000000000000000000000000000000000000000000000081526004016109979061309e565b60405180910390fd5b6109aa600061174b565b565b6000600860009054906101000a900473ffffffffffffffffffffffffffffffffffffffff16905090565b6060600180546109e590612c6a565b80601f0160208091040260200160405190810160405280929190818152602001828054610a1190612c6a565b8015610a5e5780601f10610a3357610100808354040283529160200191610a5e565b820191906000526020600020905b815481529060010190602001808311610a4157829003601f168201915b5050505050905090565b610a7a610a73611345565b8383611811565b5050565b60026007541415610ac4576040517f08c379a0000000000000000000000000000000000000000000000000000000008152600401610abb9061310a565b60405180910390fd5b6002600781905550600b54600d5410610b12576040517f08c379a0000000000000000000000000000000000000000000000000000000008152600401610b099061319c565b60405180910390fd5b610b32610b1d611345565b600d54600a54610b2d91906131eb565b61197e565b6001600d6000828254610b4591906131eb565b925050819055506001600781905550565b610b67610b61611345565b83611406565b610ba6576040517f08c379a0000000000000000000000000000000000000000000000000000000008152600401610b9d90612ec4565b60405180910390fd5b610bb28484848461199c565b50505050565b6060610bc3826112d9565b610c02576040517f08c379a0000000000000000000000000000000000000000000000000000000008152600401610bf9906132b3565b60405180910390fd5b6000600660008481526020019081526020016000208054610c2290612c6a565b80601f0160208091040260200160405190810160405280929190818152602001828054610c4e90612c6a565b8015610c9b5780601f10610c7057610100808354040283529160200191610c9b565b820191906000526020600020905b815481529060010190602001808311610c7e57829003601f168201915b505050505090506000610cac6119f8565b9050600081511415610cc2578192505050610d05565b600082511115610cf7578082604051602001610cdf92919061330f565b60405160208183030381529060405292505050610d05565b610d0084611a0f565b925050505b919050565b6000600560008473ffffffffffffffffffffffffffffffffffffffff1673ffffffffffffffffffffffffffffffffffffffff16815260200190815260200160002060008373ffffffffffffffffffffffffffffffffffffffff1673ffffffffffffffffffffffffffffffffffffffff16815260200190815260200160002060009054906101000a900460ff16905092915050565b6009602052806000526040600020600091509050806000015490806001015490806003018054610dcd90612c6a565b80601f0160208091040260200160405190810160405280929190818152602001828054610df990612c6a565b8015610e465780601f10610e1b57610100808354040283529160200191610e46565b820191906000526020600020905b815481529060010190602001808311610e2957829003601f168201915b5050505050905083565b610e58611345565b73ffffffffffffffffffffffffffffffffffffffff16610e766109ac565b73ffffffffffffffffffffffffffffffffffffffff1614610ecc576040517f08c379a0000000000000000000000000000000000000000000000000000000008152600401610ec39061309e565b60405180910390fd5b600073ffffffffffffffffffffffffffffffffffffffff168173ffffffffffffffffffffffffffffffffffffffff161415610f3c576040517f08c379a0000000000000000000000000000000000000000000000000000000008152600401610f33906133a5565b60405180910390fd5b610f458161174b565b50565b60026007541415610f8e576040517f08c379a0000000000000000000000000000000000000000000000000000000008152600401610f859061310a565b60405180910390fd5b6002600781905550600a54600c5410610fdc576040517f08c379a0000000000000000000000000000000000000000000000000000000008152600401610fd39061319c565b60405180910390fd5b60006001905080611022576040517f08c379a000000000000000000000000000000000000000000000000000000000815260040161101990613437565b60405180910390fd5b60006001905080611068576040517f08c379a000000000000000000000000000000000000000000000000000000000815260040161105f906134a3565b60405180910390fd5b806110a8576040517f08c379a000000000000000000000000000000000000000000000000000000000815260040161109f90613535565b60405180910390fd5b60006110e06110b8600c54611ab6565b88886040516020016110cc939291906136d0565b604051602081830303815290604052611c17565b90506000816040516020016110f59190613763565b6040516020818303038152906040529050611119611111611345565b600c5461197e565b611125600c5482611daf565b6040518060800160405280600c54815260200142815260200187879061114b91906138fb565b815260200189898080601f016020809104026020016040519081016040528093929190818152602001838380828437600081840152601f19601f8201169050808301925050505050505081525060096000600c548152602001908152602001600020600082015181600001556020820151816001015560408201518160020190805190602001906111dd92919061236e565b5060608201518160030190805190602001906111fa9291906123ce565b509050507fb2714bba8fda58d28bde3afa5e6656372b2665d2aa682067141b0bc6fa093f8e600c5489898989334260405161123b9796959493929190613ad5565b60405180910390a16001600c600082825461125691906131eb565b9250508190555050505050600160078190555050505050565b60007f01ffc9a7000000000000000000000000000000000000000000000000000000007bffffffffffffffffffffffffffffffffffffffffffffffffffffffff1916827bffffffffffffffffffffffffffffffffffffffffffffffffffffffff1916149050919050565b60008073ffffffffffffffffffffffffffffffffffffffff166002600084815260200190815260200160002060009054906101000a900473ffffffffffffffffffffffffffffffffffffffff1673ffffffffffffffffffffffffffffffffffffffff1614159050919050565b600033905090565b816004600083815260200190815260200160002060006101000a81548173ffffffffffffffffffffffffffffffffffffffff021916908373ffffffffffffffffffffffffffffffffffffffff160217905550808273ffffffffffffffffffffffffffffffffffffffff166113c0836107ba565b73ffffffffffffffffffffffffffffffffffffffff167f8c5be1e5ebec7d5bd14f71427d1e84f3dd0314c0f7b2291e5b200ac8c7c3b92560405160405180910390a45050565b6000611411826112d9565b611450576040517f08c379a000000000000000000000000000000000000000000000000000000000815260040161144790613bac565b60405180910390fd5b600061145b836107ba565b90508073ffffffffffffffffffffffffffffffffffffffff168473ffffffffffffffffffffffffffffffffffffffff16148061149d575061149c8185610d0a565b5b806114db57508373ffffffffffffffffffffffffffffffffffffffff166114c38461055c565b73ffffffffffffffffffffffffffffffffffffffff16145b91505092915050565b8273ffffffffffffffffffffffffffffffffffffffff16611504826107ba565b73ffffffffffffffffffffffffffffffffffffffff161461155a576040517f08c379a000000000000000000000000000000000000000000000000000000000815260040161155190613c3e565b60405180910390fd5b600073ffffffffffffffffffffffffffffffffffffffff168273ffffffffffffffffffffffffffffffffffffffff1614156115ca576040517f08c379a00000000000000000000000000000000000000000000000000000000081526004016115c190613cd0565b60405180910390fd5b6115d5838383611e23565b6115e060008261134d565b6001600360008573ffffffffffffffffffffffffffffffffffffffff1673ffffffffffffffffffffffffffffffffffffffff16815260200190815260200160002060008282546116309190613cf0565b925050819055506001600360008473ffffffffffffffffffffffffffffffffffffffff1673ffffffffffffffffffffffffffffffffffffffff168152602001908152602001600020600082825461168791906131eb565b92505081905550816002600083815260200190815260200160002060006101000a81548173ffffffffffffffffffffffffffffffffffffffff021916908373ffffffffffffffffffffffffffffffffffffffff160217905550808273ffffffffffffffffffffffffffffffffffffffff168473ffffffffffffffffffffffffffffffffffffffff167fddf252ad1be2c89b69c2b068fc378daa952ba7f163c4a11628f55a4df523b3ef60405160405180910390a4611746838383611e28565b505050565b6000600860009054906101000a900473ffffffffffffffffffffffffffffffffffffffff16905081600860006101000a81548173ffffffffffffffffffffffffffffffffffffffff021916908373ffffffffffffffffffffffffffffffffffffffff1602179055508173ffffffffffffffffffffffffffffffffffffffff168173ffffffffffffffffffffffffffffffffffffffff167f8be0079c531659141344cd1fd0a4f28419497f9722a3daafe3b4186f6b6457e060405160405180910390a35050565b8173ffffffffffffffffffffffffffffffffffffffff168373ffffffffffffffffffffffffffffffffffffffff161415611880576040517f08c379a000000000000000000000000000000000000000000000000000000000815260040161187790613d70565b60405180910390fd5b80600560008573ffffffffffffffffffffffffffffffffffffffff1673ffffffffffffffffffffffffffffffffffffffff16815260200190815260200160002060008473ffffffffffffffffffffffffffffffffffffffff1673ffffffffffffffffffffffffffffffffffffffff16815260200190815260200160002060006101000a81548160ff0219169083151502179055508173ffffffffffffffffffffffffffffffffffffffff168373ffffffffffffffffffffffffffffffffffffffff167f17307eab39ab6107e8899845ad3d59bd9653f200f220920489ca2b5937696c318360405161197191906125b7565b60405180910390a3505050565b611998828260405180602001604052806000815250611e2d565b5050565b6119a78484846114e4565b6119b384848484611e88565b6119f2576040517f08c379a00000000000000000000000000000000000000000000000000000000081526004016119e990613e02565b60405180910390fd5b50505050565b606060405180602001604052806000815250905090565b6060611a1a826112d9565b611a59576040517f08c379a0000000000000000000000000000000000000000000000000000000008152600401611a5090613e94565b60405180910390fd5b6000611a636119f8565b90506000815111611a835760405180602001604052806000815250611aae565b80611a8d84612010565b604051602001611a9e92919061330f565b6040516020818303038152906040525b915050919050565b60606000821415611afe576040518060400160405280600181526020017f30000000000000000000000000000000000000000000000000000000000000008152509050611c12565b600082905060005b60008214611b30578080611b1990613eb4565b915050600a82611b299190613f2c565b9150611b06565b60008167ffffffffffffffff811115611b4c57611b4b6128d8565b5b6040519080825280601f01601f191660200182016040528015611b7e5781602001600182028036833780820191505090505b5090505b60008514611c0b57600182611b979190613cf0565b9150600a85611ba69190613f5d565b6030611bb291906131eb565b60f81b818381518110611bc857611bc7613f8e565b5b60200101907effffffffffffffffffffffffffffffffffffffffffffffffffffffffffffff1916908160001a905350600a85611c049190613f2c565b9450611b82565b8093505050505b919050565b60606000825190506000811415611c405760405180602001604052806000815250915050611daa565b60006003600283611c5191906131eb565b611c5b9190613f2c565b6004611c679190613fbd565b90506000602082611c7891906131eb565b67ffffffffffffffff811115611c9157611c906128d8565b5b6040519080825280601f01601f191660200182016040528015611cc35781602001600182028036833780820191505090505b5090506000604051806060016040528060408152602001614265604091399050600181016020830160005b86811015611d675760038101905062ffffff818a015116603f8160121c168401518060081b905060ff603f83600c1c1686015116810190508060081b905060ff603f8360061c1686015116810190508060081b905060ff603f831686015116810190508060e01b90508084526004840193505050611cee565b506003860660018114611d815760028114611d9157611d9c565b613d3d60f01b6002830352611d9c565b603d60f81b60018303525b508484525050819450505050505b919050565b611db8826112d9565b611df7576040517f08c379a0000000000000000000000000000000000000000000000000000000008152600401611dee90614089565b60405180910390fd5b80600660008481526020019081526020016000209080519060200190611e1e9291906123ce565b505050565b505050565b505050565b611e378383612171565b611e446000848484611e88565b611e83576040517f08c379a0000000000000000000000000000000000000000000000000000000008152600401611e7a90613e02565b60405180910390fd5b505050565b6000611ea98473ffffffffffffffffffffffffffffffffffffffff1661234b565b15612003578373ffffffffffffffffffffffffffffffffffffffff1663150b7a02611ed2611345565b8786866040518563ffffffff1660e01b8152600401611ef494939291906140fe565b6020604051808303816000875af1925050508015611f3057506040513d601f19601f82011682018060405250810190611f2d919061415f565b60015b611fb3573d8060008114611f60576040519150601f19603f3d011682016040523d82523d6000602084013e611f65565b606091505b50600081511415611fab576040517f08c379a0000000000000000000000000000000000000000000000000000000008152600401611fa290613e02565b60405180910390fd5b805181602001fd5b63150b7a0260e01b7bffffffffffffffffffffffffffffffffffffffffffffffffffffffff1916817bffffffffffffffffffffffffffffffffffffffffffffffffffffffff191614915050612008565b600190505b949350505050565b60606000821415612058576040518060400160405280600181526020017f3000000000000000000000000000000000000000000000000000000000000000815250905061216c565b600082905060005b6000821461208a57808061207390613eb4565b915050600a826120839190613f2c565b9150612060565b60008167ffffffffffffffff8111156120a6576120a56128d8565b5b6040519080825280601f01601f1916602001820160405280156120d85781602001600182028036833780820191505090505b5090505b60008514612165576001826120f19190613cf0565b9150600a856121009190613f5d565b603061210c91906131eb565b60f81b81838151811061212257612121613f8e565b5b60200101907effffffffffffffffffffffffffffffffffffffffffffffffffffffffffffff1916908160001a905350600a8561215e9190613f2c565b94506120dc565b8093505050505b919050565b600073ffffffffffffffffffffffffffffffffffffffff168273ffffffffffffffffffffffffffffffffffffffff1614156121e1576040517f08c379a00000000000000000000000000000000000000000000000000000000081526004016121d8906141d8565b60405180910390fd5b6121ea816112d9565b1561222a576040517f08c379a000000000000000000000000000000000000000000000000000000000815260040161222190614244565b60405180910390fd5b61223660008383611e23565b6001600360008473ffffffffffffffffffffffffffffffffffffffff1673ffffffffffffffffffffffffffffffffffffffff168152602001908152602001600020600082825461228691906131eb565b92505081905550816002600083815260200190815260200160002060006101000a81548173ffffffffffffffffffffffffffffffffffffffff021916908373ffffffffffffffffffffffffffffffffffffffff160217905550808273ffffffffffffffffffffffffffffffffffffffff16600073ffffffffffffffffffffffffffffffffffffffff167fddf252ad1be2c89b69c2b068fc378daa952ba7f163c4a11628f55a4df523b3ef60405160405180910390a461234760008383611e28565b5050565b6000808273ffffffffffffffffffffffffffffffffffffffff163b119050919050565b8280548282559060005260206000209081019282156123bd579160200282015b828111156123bc5782518290805190602001906123ac929190612454565b509160200191906001019061238e565b5b5090506123ca91906124a1565b5090565b8280546123da90612c6a565b90600052602060002090601f0160209004810192826123fc5760008555612443565b82601f1061241557805160ff1916838001178555612443565b82800160010185558215612443579182015b82811115612442578251825591602001919060010190612427565b5b50905061245091906124c5565b5090565b828054828255906000526020600020908101928215612490579160200282015b8281111561248f578251825591602001919060010190612474565b5b50905061249d91906124c5565b5090565b5b808211156124c157600081816124b891906124e2565b506001016124a2565b5090565b5b808211156124de5760008160009055506001016124c6565b5090565b508054600082559060005260206000209081019061250091906124c5565b50565b6000604051905090565b600080fd5b600080fd5b60007fffffffff0000000000000000000000000000000000000000000000000000000082169050919050565b61254c81612517565b811461255757600080fd5b50565b60008135905061256981612543565b92915050565b6000602082840312156125855761258461250d565b5b60006125938482850161255a565b91505092915050565b60008115159050919050565b6125b18161259c565b82525050565b60006020820190506125cc60008301846125a8565b92915050565b600081519050919050565b600082825260208201905092915050565b60005b8381101561260c5780820151818401526020810190506125f1565b8381111561261b576000848401525b50505050565b6000601f19601f8301169050919050565b600061263d826125d2565b61264781856125dd565b93506126578185602086016125ee565b61266081612621565b840191505092915050565b600060208201905081810360008301526126858184612632565b905092915050565b6000819050919050565b6126a08161268d565b81146126ab57600080fd5b50565b6000813590506126bd81612697565b92915050565b6000602082840312156126d9576126d861250d565b5b60006126e7848285016126ae565b91505092915050565b600073ffffffffffffffffffffffffffffffffffffffff82169050919050565b600061271b826126f0565b9050919050565b61272b81612710565b82525050565b60006020820190506127466000830184612722565b92915050565b61275581612710565b811461276057600080fd5b50565b6000813590506127728161274c565b92915050565b6000806040838503121561278f5761278e61250d565b5b600061279d85828601612763565b92505060206127ae858286016126ae565b9150509250929050565b6127c18161268d565b82525050565b60006020820190506127dc60008301846127b8565b92915050565b6000806000606084860312156127fb576127fa61250d565b5b600061280986828701612763565b935050602061281a86828701612763565b925050604061282b868287016126ae565b9150509250925092565b60006020828403121561284b5761284a61250d565b5b600061285984828501612763565b91505092915050565b61286b8161259c565b811461287657600080fd5b50565b60008135905061288881612862565b92915050565b600080604083850312156128a5576128a461250d565b5b60006128b385828601612763565b92505060206128c485828601612879565b9150509250929050565b600080fd5b600080fd5b7f4e487b7100000000000000000000000000000000000000000000000000000000600052604160045260246000fd5b61291082612621565b810181811067ffffffffffffffff8211171561292f5761292e6128d8565b5b80604052505050565b6000612942612503565b905061294e8282612907565b919050565b600067ffffffffffffffff82111561296e5761296d6128d8565b5b61297782612621565b9050602081019050919050565b82818337600083830152505050565b60006129a66129a184612953565b612938565b9050828152602081018484840111156129c2576129c16128d3565b5b6129cd848285612984565b509392505050565b600082601f8301126129ea576129e96128ce565b5b81356129fa848260208601612993565b91505092915050565b60008060008060808587031215612a1d57612a1c61250d565b5b6000612a2b87828801612763565b9450506020612a3c87828801612763565b9350506040612a4d878288016126ae565b925050606085013567ffffffffffffffff811115612a6e57612a6d612512565b5b612a7a878288016129d5565b91505092959194509250565b60008060408385031215612a9d57612a9c61250d565b5b6000612aab85828601612763565b9250506020612abc85828601612763565b9150509250929050565b6000606082019050612adb60008301866127b8565b612ae860208301856127b8565b8181036040830152612afa8184612632565b9050949350505050565b600080fd5b600080fd5b60008083601f840112612b2457612b236128ce565b5b8235905067ffffffffffffffff811115612b4157612b40612b04565b5b602083019150836001820283011115612b5d57612b5c612b09565b5b9250929050565b60008083601f840112612b7a57612b796128ce565b5b8235905067ffffffffffffffff811115612b9757612b96612b04565b5b602083019150836020820283011115612bb357612bb2612b09565b5b9250929050565b60008060008060408587031215612bd457612bd361250d565b5b600085013567ffffffffffffffff811115612bf257612bf1612512565b5b612bfe87828801612b0e565b9450945050602085013567ffffffffffffffff811115612c2157612c20612512565b5b612c2d87828801612b64565b925092505092959194509250565b7f4e487b7100000000000000000000000000000000000000000000000000000000600052602260045260246000fd5b60006002820490506001821680612c8257607f821691505b60208210811415612c9657612c95612c3b565b5b50919050565b7f4552433732313a20617070726f76656420717565727920666f72206e6f6e657860008201527f697374656e7420746f6b656e0000000000000000000000000000000000000000602082015250565b6000612cf8602c836125dd565b9150612d0382612c9c565b604082019050919050565b60006020820190508181036000830152612d2781612ceb565b9050919050565b7f4552433732313a20617070726f76616c20746f2063757272656e74206f776e6560008201527f7200000000000000000000000000000000000000000000000000000000000000602082015250565b6000612d8a6021836125dd565b9150612d9582612d2e565b604082019050919050565b60006020820190508181036000830152612db981612d7d565b9050919050565b7f4552433732313a20617070726f76652063616c6c6572206973206e6f74206f7760008201527f6e6572206e6f7220617070726f76656420666f7220616c6c0000000000000000602082015250565b6000612e1c6038836125dd565b9150612e2782612dc0565b604082019050919050565b60006020820190508181036000830152612e4b81612e0f565b9050919050565b7f4552433732313a207472616e736665722063616c6c6572206973206e6f74206f60008201527f776e6572206e6f7220617070726f766564000000000000000000000000000000602082015250565b6000612eae6031836125dd565b9150612eb982612e52565b604082019050919050565b60006020820190508181036000830152612edd81612ea1565b9050919050565b6000612eef826126f0565b9050919050565b612eff81612ee4565b82525050565b6000604082019050612f1a6000830185612ef6565b612f2760208301846127b8565b9392505050565b7f4552433732313a206f776e657220717565727920666f72206e6f6e657869737460008201527f656e7420746f6b656e0000000000000000000000000000000000000000000000602082015250565b6000612f8a6029836125dd565b9150612f9582612f2e565b604082019050919050565b60006020820190508181036000830152612fb981612f7d565b9050919050565b7f4552433732313a2062616c616e636520717565727920666f7220746865207a6560008201527f726f206164647265737300000000000000000000000000000000000000000000602082015250565b600061301c602a836125dd565b915061302782612fc0565b604082019050919050565b6000602082019050818103600083015261304b8161300f565b9050919050565b7f4f776e61626c653a2063616c6c6572206973206e6f7420746865206f776e6572600082015250565b60006130886020836125dd565b915061309382613052565b602082019050919050565b600060208201905081810360008301526130b78161307b565b9050919050565b7f5265656e7472616e637947756172643a207265656e7472616e742063616c6c00600082015250565b60006130f4601f836125dd565b91506130ff826130be565b602082019050919050565b60006020820190508181036000830152613123816130e7565b9050919050565b7f416c6c206465636c61726174696f6e732068617665206265656e206d696e746560008201527f6400000000000000000000000000000000000000000000000000000000000000602082015250565b60006131866021836125dd565b91506131918261312a565b604082019050919050565b600060208201905081810360008301526131b581613179565b9050919050565b7f4e487b7100000000000000000000000000000000000000000000000000000000600052601160045260246000fd5b60006131f68261268d565b91506132018361268d565b9250827fffffffffffffffffffffffffffffffffffffffffffffffffffffffffffffffff03821115613236576132356131bc565b5b828201905092915050565b7f45524337323155524953746f726167653a2055524920717565727920666f722060008201527f6e6f6e6578697374656e7420746f6b656e000000000000000000000000000000602082015250565b600061329d6031836125dd565b91506132a882613241565b604082019050919050565b600060208201905081810360008301526132cc81613290565b9050919050565b600081905092915050565b60006132e9826125d2565b6132f381856132d3565b93506133038185602086016125ee565b80840191505092915050565b600061331b82856132de565b915061332782846132de565b91508190509392505050565b7f4f776e61626c653a206e6577206f776e657220697320746865207a65726f206160008201527f6464726573730000000000000000000000000000000000000000000000000000602082015250565b600061338f6026836125dd565b915061339a82613333565b604082019050919050565b600060208201905081810360008301526133be81613382565b9050919050565b7f55726920697320746f6f206c6f6e672068617320746f6f206d616e79206c696e60008201527f6573000000000000000000000000000000000000000000000000000000000000602082015250565b60006134216022836125dd565b915061342c826133c5565b604082019050919050565b6000602082019050818103600083015261345081613414565b9050919050565b7f5375626d697474656420696e64696365732061726520696e76616c69642e0000600082015250565b600061348d601e836125dd565b915061349882613457565b602082019050919050565b600060208201905081810360008301526134bc81613480565b9050919050565b7f54686973206465636c61726174696f6e2068617320616c72656164792062656560008201527f6e206d696e7465642e0000000000000000000000000000000000000000000000602082015250565b600061351f6029836125dd565b915061352a826134c3565b604082019050919050565b6000602082019050818103600083015261354e81613512565b9050919050565b7f7b226e616d65223a202252656465636c61726174696f6e202300000000000000600082015250565b600061358b6019836132d3565b915061359682613555565b601982019050919050565b7f222c20226465736372697074696f6e223a202241207265636c61696d696e672060008201527f6f6620746865204465636c61726174696f6e206f6620496e646570656e64656e60208201527f63652062792074686f73652077686f206e65766572207369676e65642069742e60408201527f222c2022696d616765223a202200000000000000000000000000000000000000606082015250565b6000613649606d836132d3565b9150613654826135a1565b606d82019050919050565b600061366b83856132d3565b9350613678838584612984565b82840190509392505050565b7f227d000000000000000000000000000000000000000000000000000000000000600082015250565b60006136ba6002836132d3565b91506136c582613684565b600282019050919050565b60006136db8261357e565b91506136e782866132de565b91506136f28261363c565b91506136ff82848661365f565b915061370a826136ad565b9150819050949350505050565b7f646174613a6170706c69636174696f6e2f6a736f6e3b6261736536342c000000600082015250565b600061374d601d836132d3565b915061375882613717565b601d82019050919050565b600061376e82613740565b915061377a82846132de565b915081905092915050565b600067ffffffffffffffff8211156137a05761379f6128d8565b5b602082029050602081019050919050565b600067ffffffffffffffff8211156137cc576137cb6128d8565b5b602082029050602081019050919050565b60006137f06137eb846137b1565b612938565b9050808382526020820190506020840283018581111561381357613812612b09565b5b835b8181101561383c578061382888826126ae565b845260208401935050602081019050613815565b5050509392505050565b600082601f83011261385b5761385a6128ce565b5b813561386b8482602086016137dd565b91505092915050565b600061388761388284613785565b612938565b905080838252602082019050602084028301858111156138aa576138a9612b09565b5b835b818110156138f157803567ffffffffffffffff8111156138cf576138ce6128ce565b5b8086016138dc8982613846565b855260208501945050506020810190506138ac565b5050509392505050565b6000613908368484613874565b905092915050565b600061391c83856125dd565b9350613929838584612984565b61393283612621565b840190509392505050565b600082825260208201905092915050565b6000819050919050565b600082825260208201905092915050565b600080fd5b600061397a8385613958565b93507f07ffffffffffffffffffffffffffffffffffffffffffffffffffffffffffffff8311156139ad576139ac613969565b5b6020830292506139be838584612984565b82840190509392505050565b60006139d784848461396e565b90509392505050565b600080fd5b600080fd5b600080fd5b60008083356001602003843603038112613a0c57613a0b6139ea565b5b83810192508235915060208301925067ffffffffffffffff821115613a3457613a336139e0565b5b602082023603841315613a4a57613a496139e5565b5b509250929050565b6000602082019050919050565b6000613a6b838561393d565b935083602084028501613a7d8461394e565b8060005b87811015613ac3578484038952613a9882846139ef565b613aa38682846139ca565b9550613aae84613a52565b935060208b019a505050600181019050613a81565b50829750879450505050509392505050565b600060a082019050613aea600083018a6127b8565b8181036020830152613afd81888a613910565b90508181036040830152613b12818688613a5f565b9050613b216060830185612ef6565b613b2e60808301846127b8565b98975050505050505050565b7f4552433732313a206f70657261746f7220717565727920666f72206e6f6e657860008201527f697374656e7420746f6b656e0000000000000000000000000000000000000000602082015250565b6000613b96602c836125dd565b9150613ba182613b3a565b604082019050919050565b60006020820190508181036000830152613bc581613b89565b9050919050565b7f4552433732313a207472616e736665722066726f6d20696e636f72726563742060008201527f6f776e6572000000000000000000000000000000000000000000000000000000602082015250565b6000613c286025836125dd565b9150613c3382613bcc565b604082019050919050565b60006020820190508181036000830152613c5781613c1b565b9050919050565b7f4552433732313a207472616e7366657220746f20746865207a65726f2061646460008201527f7265737300000000000000000000000000000000000000000000000000000000602082015250565b6000613cba6024836125dd565b9150613cc582613c5e565b604082019050919050565b60006020820190508181036000830152613ce981613cad565b9050919050565b6000613cfb8261268d565b9150613d068361268d565b925082821015613d1957613d186131bc565b5b828203905092915050565b7f4552433732313a20617070726f766520746f2063616c6c657200000000000000600082015250565b6000613d5a6019836125dd565b9150613d6582613d24565b602082019050919050565b60006020820190508181036000830152613d8981613d4d565b9050919050565b7f4552433732313a207472616e7366657220746f206e6f6e20455243373231526560008201527f63656976657220696d706c656d656e7465720000000000000000000000000000602082015250565b6000613dec6032836125dd565b9150613df782613d90565b604082019050919050565b60006020820190508181036000830152613e1b81613ddf565b9050919050565b7f4552433732314d657461646174613a2055524920717565727920666f72206e6f60008201527f6e6578697374656e7420746f6b656e0000000000000000000000000000000000602082015250565b6000613e7e602f836125dd565b9150613e8982613e22565b604082019050919050565b60006020820190508181036000830152613ead81613e71565b9050919050565b6000613ebf8261268d565b91507fffffffffffffffffffffffffffffffffffffffffffffffffffffffffffffffff821415613ef257613ef16131bc565b5b600182019050919050565b7f4e487b7100000000000000000000000000000000000000000000000000000000600052601260045260246000fd5b6000613f378261268d565b9150613f428361268d565b925082613f5257613f51613efd565b5b828204905092915050565b6000613f688261268d565b9150613f738361268d565b925082613f8357613f82613efd565b5b828206905092915050565b7f4e487b7100000000000000000000000000000000000000000000000000000000600052603260045260246000fd5b6000613fc88261268d565b9150613fd38361268d565b9250817fffffffffffffffffffffffffffffffffffffffffffffffffffffffffffffffff048311821515161561400c5761400b6131bc565b5b828202905092915050565b7f45524337323155524953746f726167653a2055524920736574206f66206e6f6e60008201527f6578697374656e7420746f6b656e000000000000000000000000000000000000602082015250565b6000614073602e836125dd565b915061407e82614017565b604082019050919050565b600060208201905081810360008301526140a281614066565b9050919050565b600081519050919050565b600082825260208201905092915050565b60006140d0826140a9565b6140da81856140b4565b93506140ea8185602086016125ee565b6140f381612621565b840191505092915050565b60006080820190506141136000830187612722565b6141206020830186612722565b61412d60408301856127b8565b818103606083015261413f81846140c5565b905095945050505050565b60008151905061415981612543565b92915050565b6000602082840312156141755761417461250d565b5b60006141838482850161414a565b91505092915050565b7f4552433732313a206d696e7420746f20746865207a65726f2061646472657373600082015250565b60006141c26020836125dd565b91506141cd8261418c565b602082019050919050565b600060208201905081810360008301526141f1816141b5565b9050919050565b7f4552433732313a20746f6b656e20616c7265616479206d696e74656400000000600082015250565b600061422e601c836125dd565b9150614239826141f8565b602082019050919050565b6000602082019050818103600083015261425d81614221565b905091905056fe4142434445464748494a4b4c4d4e4f505152535455565758595a6162636465666768696a6b6c6d6e6f707172737475767778797a303132333435363738392b2fa264697066735822122050bf4610ce17cb7296bb7f792680ad0f21c629ba122f3701c98a91bfcbe9939964736f6c634300080c0033",
  "immutableReferences": {},
  "source": "// SPDX-License-Identifier: GPL-3.0-or-later\npragma solidity ^0.8.0;\npragma experimental ABIEncoderV2;\n\nimport { ERC721 } from \"@openzeppelin/contracts/token/ERC721/ERC721.sol\";\nimport { ERC721URIStorage } from \"@openzeppelin/contracts/token/ERC721/extensions/ERC721URIStorage.sol\";\nimport { Ownable } from \"@openzeppelin/contracts/access/Ownable.sol\";\nimport { ReentrancyGuard } from \"@openzeppelin/contracts/security/ReentrancyGuard.sol\";\n\ncontract DeclTest0 is ERC721URIStorage, ReentrancyGuard, Ownable {\n    mapping(uint => Declaration) public declarations;\n\n    uint256 PUBLIC_SUPPLY = 9500;\n    uint256 OWNER_SUPPLY = 500;\n    uint256 public publicMintCount = 0;\n    uint256 ownerMintCount = 0;\n\n    struct Declaration {\n        uint id;\n        uint addedAt;\n        uint[][] indices;\n        string tokenURI;\n    }\n\n    event DeclMinted(\n        uint id,\n        string tokenURI,\n        uint[][] indices,\n        address payable minter,\n        uint addedAt\n    );\n\n    event Example(\n        address payable minter,\n        uint addedAt\n    );\n\n    function justEmit() public {\n        emit Example(payable(msg.sender), block.timestamp);\n    }\n\n    // function tokenURI(uint256 tokenId) override public view returns(string memory) {\n    //     string memory uriToReturn = declarations[tokenId].tokenURI;\n    //     return uriToReturn;\n    // }\n\n    function mint(string calldata _tokenURI, uint[][] calldata indices) public nonReentrant {\n        // Figure out how to limit minting depending on the senders individual limit\n        require(publicMintCount < PUBLIC_SUPPLY, 'All declarations have been minted');\n\n        bool validUri = true;\n        // Check that the URI is pointing to one of our redeclaration endpoints\n        require(validUri, 'Uri is too long has too many lines');\n\n        bool validIndices = true;\n        // Iterate through the indices and ensure they make sense.\n        require(validIndices, 'Submitted indices are invalid.');\n        // Check for uniqueness compared to existing declarations. \n        require(validIndices, 'This declaration has already been minted.');\n\n        string memory tokenURIJson = Base64.encode(bytes(string(abi.encodePacked('{\"name\": \"Redeclaration #', toString(publicMintCount), '\", \"description\": \"A reclaiming of the Declaration of Independence by those who never signed it.\", \"image\": \"', _tokenURI, '\"}'))));\n        string memory tokenURIString = string(abi.encodePacked('data:application/json;base64,', tokenURIJson));\n\n        _safeMint(_msgSender(), publicMintCount);\n        _setTokenURI(publicMintCount, tokenURIString);\n        declarations[publicMintCount] = Declaration(publicMintCount, block.timestamp, indices, _tokenURI);\n\n        // Trigger an event\n        emit DeclMinted(\n            publicMintCount,\n            _tokenURI,\n            indices,\n            payable(msg.sender),\n            block.timestamp\n        );\n\n        publicMintCount += 1;\n    }\n\n    function ownerMint() public nonReentrant {\n        require(ownerMintCount < OWNER_SUPPLY, \"All declarations have been minted\");\n        _safeMint(_msgSender(), PUBLIC_SUPPLY + ownerMintCount);\n        ownerMintCount += 1;\n    }\n\n    function toString(uint256 value) internal pure returns (string memory) {\n    // Inspired by OraclizeAPI's implementation - MIT license\n    // https://github.com/oraclize/ethereum-api/blob/b42146b063c7d6ee1358846c198246239e9360e8/oraclizeAPI_0.4.25.sol\n\n        if (value == 0) {\n            return \"0\";\n        }\n        uint256 temp = value;\n        uint256 digits;\n        while (temp != 0) {\n            digits++;\n            temp /= 10;\n        }\n        bytes memory buffer = new bytes(digits);\n        while (value != 0) {\n            digits -= 1;\n            buffer[digits] = bytes1(uint8(48 + uint256(value % 10)));\n            value /= 10;\n        }\n        return string(buffer);\n    }\n\n    constructor() ERC721(\"Redeclarations\", \"REDCL\") Ownable() {}\n}\n\n/// [MIT License]\n/// @title Base64\n/// @notice Provides a function for encoding some bytes in base64\n/// @author Brecht Devos <brecht@loopring.org>\nlibrary Base64 {\n    bytes internal constant TABLE = \"ABCDEFGHIJKLMNOPQRSTUVWXYZabcdefghijklmnopqrstuvwxyz0123456789+/\";\n\n    /// @notice Encodes some bytes to the base64 representation\n    function encode(bytes memory data) internal pure returns (string memory) {\n        uint256 len = data.length;\n        if (len == 0) return \"\";\n\n        // multiply by 4/3 rounded up\n        uint256 encodedLen = 4 * ((len + 2) / 3);\n\n        // Add some extra buffer at the end\n        bytes memory result = new bytes(encodedLen + 32);\n\n        bytes memory table = TABLE;\n\n        assembly {\n            let tablePtr := add(table, 1)\n            let resultPtr := add(result, 32)\n\n            for {\n                let i := 0\n            } lt(i, len) {\n\n            } {\n                i := add(i, 3)\n                let input := and(mload(add(data, i)), 0xffffff)\n\n                let out := mload(add(tablePtr, and(shr(18, input), 0x3F)))\n                out := shl(8, out)\n                out := add(out, and(mload(add(tablePtr, and(shr(12, input), 0x3F))), 0xFF))\n                out := shl(8, out)\n                out := add(out, and(mload(add(tablePtr, and(shr(6, input), 0x3F))), 0xFF))\n                out := shl(8, out)\n                out := add(out, and(mload(add(tablePtr, and(input, 0x3F))), 0xFF))\n                out := shl(224, out)\n\n                mstore(resultPtr, out)\n\n                resultPtr := add(resultPtr, 4)\n            }\n\n            switch mod(len, 3)\n            case 1 {\n                mstore(sub(resultPtr, 2), shl(240, 0x3d3d))\n            }\n            case 2 {\n                mstore(sub(resultPtr, 1), shl(248, 0x3d))\n            }\n\n            mstore(result, encodedLen)\n        }\n\n        return string(result);\n    }\n}\n\n",
  "sourcePath": "/Users/esc/Code/declarations/contracts/DeclTest0.sol",
  "compiler": {
    "name": "solc",
    "version": "0.8.12+commit.f00d7308.Emscripten.clang"
  },
  "schemaVersion": "3.4.4",
  "updatedAt": "2022-06-06T17:50:12.684Z",
  "networkType": "ethereum",
  "devdoc": {
    "kind": "dev",
    "methods": {
      "approve(address,uint256)": {
        "details": "See {IERC721-approve}."
      },
      "balanceOf(address)": {
        "details": "See {IERC721-balanceOf}."
      },
      "getApproved(uint256)": {
        "details": "See {IERC721-getApproved}."
      },
      "isApprovedForAll(address,address)": {
        "details": "See {IERC721-isApprovedForAll}."
      },
      "name()": {
        "details": "See {IERC721Metadata-name}."
      },
      "owner()": {
        "details": "Returns the address of the current owner."
      },
      "ownerOf(uint256)": {
        "details": "See {IERC721-ownerOf}."
      },
      "renounceOwnership()": {
        "details": "Leaves the contract without owner. It will not be possible to call `onlyOwner` functions anymore. Can only be called by the current owner. NOTE: Renouncing ownership will leave the contract without an owner, thereby removing any functionality that is only available to the owner."
      },
      "safeTransferFrom(address,address,uint256)": {
        "details": "See {IERC721-safeTransferFrom}."
      },
      "safeTransferFrom(address,address,uint256,bytes)": {
        "details": "See {IERC721-safeTransferFrom}."
      },
      "setApprovalForAll(address,bool)": {
        "details": "See {IERC721-setApprovalForAll}."
      },
      "supportsInterface(bytes4)": {
        "details": "See {IERC165-supportsInterface}."
      },
      "symbol()": {
        "details": "See {IERC721Metadata-symbol}."
      },
      "tokenURI(uint256)": {
        "details": "See {IERC721Metadata-tokenURI}."
      },
      "transferFrom(address,address,uint256)": {
        "details": "See {IERC721-transferFrom}."
      },
      "transferOwnership(address)": {
        "details": "Transfers ownership of the contract to a new account (`newOwner`). Can only be called by the current owner."
      }
    },
    "version": 1
  },
  "userdoc": {
    "kind": "user",
    "methods": {},
    "version": 1
  }
}