{
  "contractName": "DeclTest1",
  "abi": [
    {
      "inputs": [],
      "stateMutability": "nonpayable",
      "type": "constructor"
    },
    {
      "anonymous": false,
      "inputs": [
        {
          "indexed": true,
          "internalType": "address",
          "name": "owner",
          "type": "address"
        },
        {
          "indexed": true,
          "internalType": "address",
          "name": "approved",
          "type": "address"
        },
        {
          "indexed": true,
          "internalType": "uint256",
          "name": "tokenId",
          "type": "uint256"
        }
      ],
      "name": "Approval",
      "type": "event"
    },
    {
      "anonymous": false,
      "inputs": [
        {
          "indexed": true,
          "internalType": "address",
          "name": "owner",
          "type": "address"
        },
        {
          "indexed": true,
          "internalType": "address",
          "name": "operator",
          "type": "address"
        },
        {
          "indexed": false,
          "internalType": "bool",
          "name": "approved",
          "type": "bool"
        }
      ],
      "name": "ApprovalForAll",
      "type": "event"
    },
    {
      "anonymous": false,
      "inputs": [
        {
          "indexed": false,
          "internalType": "uint256",
          "name": "id",
          "type": "uint256"
        },
        {
          "indexed": false,
          "internalType": "string",
          "name": "imageUrl",
          "type": "string"
        },
        {
          "indexed": false,
          "internalType": "string",
          "name": "indices",
          "type": "string"
        },
        {
          "indexed": false,
          "internalType": "address payable",
          "name": "minter",
          "type": "address"
        },
        {
          "indexed": false,
          "internalType": "uint256",
          "name": "addedAt",
          "type": "uint256"
        }
      ],
      "name": "DeclMinted",
      "type": "event"
    },
    {
      "anonymous": false,
      "inputs": [
        {
          "indexed": true,
          "internalType": "address",
          "name": "previousOwner",
          "type": "address"
        },
        {
          "indexed": true,
          "internalType": "address",
          "name": "newOwner",
          "type": "address"
        }
      ],
      "name": "OwnershipTransferred",
      "type": "event"
    },
    {
      "anonymous": false,
      "inputs": [
        {
          "indexed": true,
          "internalType": "address",
          "name": "from",
          "type": "address"
        },
        {
          "indexed": true,
          "internalType": "address",
          "name": "to",
          "type": "address"
        },
        {
          "indexed": true,
          "internalType": "uint256",
          "name": "tokenId",
          "type": "uint256"
        }
      ],
      "name": "Transfer",
      "type": "event"
    },
    {
      "inputs": [
        {
          "internalType": "address",
          "name": "to",
          "type": "address"
        },
        {
          "internalType": "uint256",
          "name": "tokenId",
          "type": "uint256"
        }
      ],
      "name": "approve",
      "outputs": [],
      "stateMutability": "nonpayable",
      "type": "function"
    },
    {
      "inputs": [
        {
          "internalType": "address",
          "name": "owner",
          "type": "address"
        }
      ],
      "name": "balanceOf",
      "outputs": [
        {
          "internalType": "uint256",
          "name": "",
          "type": "uint256"
        }
      ],
      "stateMutability": "view",
      "type": "function",
      "constant": true
    },
    {
      "inputs": [
        {
          "internalType": "uint256",
          "name": "",
          "type": "uint256"
        }
      ],
      "name": "declarations",
      "outputs": [
        {
          "internalType": "uint256",
          "name": "id",
          "type": "uint256"
        },
        {
          "internalType": "uint256",
          "name": "addedAt",
          "type": "uint256"
        },
        {
          "internalType": "string",
          "name": "indices",
          "type": "string"
        },
        {
          "internalType": "string",
          "name": "imageUrl",
          "type": "string"
        }
      ],
      "stateMutability": "view",
      "type": "function",
      "constant": true
    },
    {
      "inputs": [
        {
          "internalType": "uint256",
          "name": "tokenId",
          "type": "uint256"
        }
      ],
      "name": "getApproved",
      "outputs": [
        {
          "internalType": "address",
          "name": "",
          "type": "address"
        }
      ],
      "stateMutability": "view",
      "type": "function",
      "constant": true
    },
    {
      "inputs": [
        {
          "internalType": "address",
          "name": "owner",
          "type": "address"
        },
        {
          "internalType": "address",
          "name": "operator",
          "type": "address"
        }
      ],
      "name": "isApprovedForAll",
      "outputs": [
        {
          "internalType": "bool",
          "name": "",
          "type": "bool"
        }
      ],
      "stateMutability": "view",
      "type": "function",
      "constant": true
    },
    {
      "inputs": [],
      "name": "name",
      "outputs": [
        {
          "internalType": "string",
          "name": "",
          "type": "string"
        }
      ],
      "stateMutability": "view",
      "type": "function",
      "constant": true
    },
    {
      "inputs": [],
      "name": "owner",
      "outputs": [
        {
          "internalType": "address",
          "name": "",
          "type": "address"
        }
      ],
      "stateMutability": "view",
      "type": "function",
      "constant": true
    },
    {
      "inputs": [
        {
          "internalType": "uint256",
          "name": "tokenId",
          "type": "uint256"
        }
      ],
      "name": "ownerOf",
      "outputs": [
        {
          "internalType": "address",
          "name": "",
          "type": "address"
        }
      ],
      "stateMutability": "view",
      "type": "function",
      "constant": true
    },
    {
      "inputs": [],
      "name": "publicMintCount",
      "outputs": [
        {
          "internalType": "uint256",
          "name": "",
          "type": "uint256"
        }
      ],
      "stateMutability": "view",
      "type": "function",
      "constant": true
    },
    {
      "inputs": [],
      "name": "renounceOwnership",
      "outputs": [],
      "stateMutability": "nonpayable",
      "type": "function"
    },
    {
      "inputs": [
        {
          "internalType": "address",
          "name": "from",
          "type": "address"
        },
        {
          "internalType": "address",
          "name": "to",
          "type": "address"
        },
        {
          "internalType": "uint256",
          "name": "tokenId",
          "type": "uint256"
        }
      ],
      "name": "safeTransferFrom",
      "outputs": [],
      "stateMutability": "nonpayable",
      "type": "function"
    },
    {
      "inputs": [
        {
          "internalType": "address",
          "name": "from",
          "type": "address"
        },
        {
          "internalType": "address",
          "name": "to",
          "type": "address"
        },
        {
          "internalType": "uint256",
          "name": "tokenId",
          "type": "uint256"
        },
        {
          "internalType": "bytes",
          "name": "_data",
          "type": "bytes"
        }
      ],
      "name": "safeTransferFrom",
      "outputs": [],
      "stateMutability": "nonpayable",
      "type": "function"
    },
    {
      "inputs": [
        {
          "internalType": "address",
          "name": "operator",
          "type": "address"
        },
        {
          "internalType": "bool",
          "name": "approved",
          "type": "bool"
        }
      ],
      "name": "setApprovalForAll",
      "outputs": [],
      "stateMutability": "nonpayable",
      "type": "function"
    },
    {
      "inputs": [
        {
          "internalType": "bytes4",
          "name": "interfaceId",
          "type": "bytes4"
        }
      ],
      "name": "supportsInterface",
      "outputs": [
        {
          "internalType": "bool",
          "name": "",
          "type": "bool"
        }
      ],
      "stateMutability": "view",
      "type": "function",
      "constant": true
    },
    {
      "inputs": [],
      "name": "symbol",
      "outputs": [
        {
          "internalType": "string",
          "name": "",
          "type": "string"
        }
      ],
      "stateMutability": "view",
      "type": "function",
      "constant": true
    },
    {
      "inputs": [
        {
          "internalType": "uint256",
          "name": "tokenId",
          "type": "uint256"
        }
      ],
      "name": "tokenURI",
      "outputs": [
        {
          "internalType": "string",
          "name": "",
          "type": "string"
        }
      ],
      "stateMutability": "view",
      "type": "function",
      "constant": true
    },
    {
      "inputs": [
        {
          "internalType": "address",
          "name": "from",
          "type": "address"
        },
        {
          "internalType": "address",
          "name": "to",
          "type": "address"
        },
        {
          "internalType": "uint256",
          "name": "tokenId",
          "type": "uint256"
        }
      ],
      "name": "transferFrom",
      "outputs": [],
      "stateMutability": "nonpayable",
      "type": "function"
    },
    {
      "inputs": [
        {
          "internalType": "address",
          "name": "newOwner",
          "type": "address"
        }
      ],
      "name": "transferOwnership",
      "outputs": [],
      "stateMutability": "nonpayable",
      "type": "function"
    },
    {
      "inputs": [
        {
          "internalType": "string",
          "name": "_imageUrl",
          "type": "string"
        },
        {
          "internalType": "uint256[][]",
          "name": "_indices",
          "type": "uint256[][]"
        }
      ],
      "name": "mint",
      "outputs": [],
      "stateMutability": "nonpayable",
      "type": "function"
    }
  ],
  "bytecode": "0x6080604052610210600a556000600b553480156200001c57600080fd5b506040518060400160405280600e81526020017f52656465636c61726174696f6e730000000000000000000000000000000000008152506040518060400160405280600581526020017f524544434c0000000000000000000000000000000000000000000000000000008152508160009080519060200190620000a1929190620001b9565b508060019080519060200190620000ba929190620001b9565b5050506001600781905550620000e5620000d9620000eb60201b60201c565b620000f360201b60201c565b620002ce565b600033905090565b6000600860009054906101000a900473ffffffffffffffffffffffffffffffffffffffff16905081600860006101000a81548173ffffffffffffffffffffffffffffffffffffffff021916908373ffffffffffffffffffffffffffffffffffffffff1602179055508173ffffffffffffffffffffffffffffffffffffffff168173ffffffffffffffffffffffffffffffffffffffff167f8be0079c531659141344cd1fd0a4f28419497f9722a3daafe3b4186f6b6457e060405160405180910390a35050565b828054620001c79062000298565b90600052602060002090601f016020900481019282620001eb576000855562000237565b82601f106200020657805160ff191683800117855562000237565b8280016001018555821562000237579182015b828111156200023657825182559160200191906001019062000219565b5b5090506200024691906200024a565b5090565b5b80821115620002655760008160009055506001016200024b565b5090565b7f4e487b7100000000000000000000000000000000000000000000000000000000600052602260045260246000fd5b60006002820490506001821680620002b157607f821691505b60208210811415620002c857620002c762000269565b5b50919050565b6142d880620002de6000396000f3fe608060405234801561001057600080fd5b50600436106101215760003560e01c8063715018a6116100ad578063c87b56dd11610071578063c87b56dd146102f4578063e985e9c514610324578063eb7a3bde14610354578063f2fde38b14610387578063f6ddddf5146103a357610121565b8063715018a6146102765780638da5cb5b1461028057806395d89b411461029e578063a22cb465146102bc578063b88d4fde146102d857610121565b80630d84d1ce116100f45780630d84d1ce146101c057806323b872dd146101de57806342842e0e146101fa5780636352211e1461021657806370a082311461024657610121565b806301ffc9a71461012657806306fdde0314610156578063081812fc14610174578063095ea7b3146101a4575b600080fd5b610140600480360381019061013b91906126ec565b6103bf565b60405161014d9190612734565b60405180910390f35b61015e6104a1565b60405161016b91906127e8565b60405180910390f35b61018e60048036038101906101899190612840565b610533565b60405161019b91906128ae565b60405180910390f35b6101be60048036038101906101b991906128f5565b6105b8565b005b6101c86106d0565b6040516101d59190612944565b60405180910390f35b6101f860048036038101906101f3919061295f565b6106d6565b005b610214600480360381019061020f919061295f565b610736565b005b610230600480360381019061022b9190612840565b610756565b60405161023d91906128ae565b60405180910390f35b610260600480360381019061025b91906129b2565b610808565b60405161026d9190612944565b60405180910390f35b61027e6108c0565b005b610288610948565b60405161029591906128ae565b60405180910390f35b6102a6610972565b6040516102b391906127e8565b60405180910390f35b6102d660048036038101906102d19190612a0b565b610a04565b005b6102f260048036038101906102ed9190612b80565b610a1a565b005b61030e60048036038101906103099190612840565b610a7c565b60405161031b91906127e8565b60405180910390f35b61033e60048036038101906103399190612c03565b610bce565b60405161034b9190612734565b60405180910390f35b61036e60048036038101906103699190612840565b610c62565b60405161037e9493929190612c43565b60405180910390f35b6103a1600480360381019061039c91906129b2565b610da2565b005b6103bd60048036038101906103b89190612d4c565b610e9a565b005b60007f80ac58cd000000000000000000000000000000000000000000000000000000007bffffffffffffffffffffffffffffffffffffffffffffffffffffffff1916827bffffffffffffffffffffffffffffffffffffffffffffffffffffffff1916148061048a57507f5b5e139f000000000000000000000000000000000000000000000000000000007bffffffffffffffffffffffffffffffffffffffffffffffffffffffff1916827bffffffffffffffffffffffffffffffffffffffffffffffffffffffff1916145b8061049a5750610499826114b0565b5b9050919050565b6060600080546104b090612dfc565b80601f01602080910402602001604051908101604052809291908181526020018280546104dc90612dfc565b80156105295780601f106104fe57610100808354040283529160200191610529565b820191906000526020600020905b81548152906001019060200180831161050c57829003601f168201915b5050505050905090565b600061053e8261151a565b61057d576040517f08c379a000000000000000000000000000000000000000000000000000000000815260040161057490612ea0565b60405180910390fd5b6004600083815260200190815260200160002060009054906101000a900473ffffffffffffffffffffffffffffffffffffffff169050919050565b60006105c382610756565b90508073ffffffffffffffffffffffffffffffffffffffff168373ffffffffffffffffffffffffffffffffffffffff161415610634576040517f08c379a000000000000000000000000000000000000000000000000000000000815260040161062b90612f32565b60405180910390fd5b8073ffffffffffffffffffffffffffffffffffffffff16610653611586565b73ffffffffffffffffffffffffffffffffffffffff16148061068257506106818161067c611586565b610bce565b5b6106c1576040517f08c379a00000000000000000000000000000000000000000000000000000000081526004016106b890612fc4565b60405180910390fd5b6106cb838361158e565b505050565b600b5481565b6106e76106e1611586565b82611647565b610726576040517f08c379a000000000000000000000000000000000000000000000000000000000815260040161071d90613056565b60405180910390fd5b610731838383611725565b505050565b61075183838360405180602001604052806000815250610a1a565b505050565b6000806002600084815260200190815260200160002060009054906101000a900473ffffffffffffffffffffffffffffffffffffffff169050600073ffffffffffffffffffffffffffffffffffffffff168173ffffffffffffffffffffffffffffffffffffffff1614156107ff576040517f08c379a00000000000000000000000000000000000000000000000000000000081526004016107f6906130e8565b60405180910390fd5b80915050919050565b60008073ffffffffffffffffffffffffffffffffffffffff168273ffffffffffffffffffffffffffffffffffffffff161415610879576040517f08c379a00000000000000000000000000000000000000000000000000000000081526004016108709061317a565b60405180910390fd5b600360008373ffffffffffffffffffffffffffffffffffffffff1673ffffffffffffffffffffffffffffffffffffffff168152602001908152602001600020549050919050565b6108c8611586565b73ffffffffffffffffffffffffffffffffffffffff166108e6610948565b73ffffffffffffffffffffffffffffffffffffffff161461093c576040517f08c379a0000000000000000000000000000000000000000000000000000000008152600401610933906131e6565b60405180910390fd5b610946600061198c565b565b6000600860009054906101000a900473ffffffffffffffffffffffffffffffffffffffff16905090565b60606001805461098190612dfc565b80601f01602080910402602001604051908101604052809291908181526020018280546109ad90612dfc565b80156109fa5780601f106109cf576101008083540402835291602001916109fa565b820191906000526020600020905b8154815290600101906020018083116109dd57829003601f168201915b5050505050905090565b610a16610a0f611586565b8383611a52565b5050565b610a2b610a25611586565b83611647565b610a6a576040517f08c379a0000000000000000000000000000000000000000000000000000000008152600401610a6190613056565b60405180910390fd5b610a7684848484611bbf565b50505050565b6060610a878261151a565b610ac6576040517f08c379a0000000000000000000000000000000000000000000000000000000008152600401610abd90613278565b60405180910390fd5b6000600660008481526020019081526020016000208054610ae690612dfc565b80601f0160208091040260200160405190810160405280929190818152602001828054610b1290612dfc565b8015610b5f5780601f10610b3457610100808354040283529160200191610b5f565b820191906000526020600020905b815481529060010190602001808311610b4257829003601f168201915b505050505090506000610b70611c1b565b9050600081511415610b86578192505050610bc9565b600082511115610bbb578082604051602001610ba39291906132d4565b60405160208183030381529060405292505050610bc9565b610bc484611c32565b925050505b919050565b6000600560008473ffffffffffffffffffffffffffffffffffffffff1673ffffffffffffffffffffffffffffffffffffffff16815260200190815260200160002060008373ffffffffffffffffffffffffffffffffffffffff1673ffffffffffffffffffffffffffffffffffffffff16815260200190815260200160002060009054906101000a900460ff16905092915050565b6009602052806000526040600020600091509050806000015490806001015490806002018054610c9190612dfc565b80601f0160208091040260200160405190810160405280929190818152602001828054610cbd90612dfc565b8015610d0a5780601f10610cdf57610100808354040283529160200191610d0a565b820191906000526020600020905b815481529060010190602001808311610ced57829003601f168201915b505050505090806003018054610d1f90612dfc565b80601f0160208091040260200160405190810160405280929190818152602001828054610d4b90612dfc565b8015610d985780601f10610d6d57610100808354040283529160200191610d98565b820191906000526020600020905b815481529060010190602001808311610d7b57829003601f168201915b5050505050905084565b610daa611586565b73ffffffffffffffffffffffffffffffffffffffff16610dc8610948565b73ffffffffffffffffffffffffffffffffffffffff1614610e1e576040517f08c379a0000000000000000000000000000000000000000000000000000000008152600401610e15906131e6565b60405180910390fd5b600073ffffffffffffffffffffffffffffffffffffffff168173ffffffffffffffffffffffffffffffffffffffff161415610e8e576040517f08c379a0000000000000000000000000000000000000000000000000000000008152600401610e859061336a565b60405180910390fd5b610e978161198c565b50565b60026007541415610ee0576040517f08c379a0000000000000000000000000000000000000000000000000000000008152600401610ed7906133d6565b60405180910390fd5b6002600781905550600a54600b5410610f2e576040517f08c379a0000000000000000000000000000000000000000000000000000000008152600401610f2590613468565b60405180910390fd5b60006001905080610f74576040517f08c379a0000000000000000000000000000000000000000000000000000000008152600401610f6b906134fa565b60405180910390fd5b60006001905060006040518060400160405280600181526020017f5b00000000000000000000000000000000000000000000000000000000000000815250905060005b8585905081101561117e576002868683818110610fd757610fd661351a565b5b9050602002810190610fe99190613558565b905014610ff9576000925061117e565b8160405160200161100a91906135e1565b6040516020818303038152906040529150816110628787848181106110325761103161351a565b5b90506020028101906110449190613558565b60008181106110565761105561351a565b5b90506020020135611cd9565b6040516020016110739291906132d4565b604051602081830303815290604052915081604051602001611095919061362d565b6040516020818303038152906040529150816110ed8787848181106110bd576110bc61351a565b5b90506020028101906110cf9190613558565b60018181106110e1576110e061351a565b5b90506020020135611cd9565b6040516020016110fe9291906132d4565b6040516020818303038152906040529150816040516020016111209190613679565b604051602081830303815290604052915060018686905061114191906136ce565b81101561116b5781604051602001611159919061362d565b60405160208183030381529060405291505b808061117690613702565b915050610fb7565b50806040516020016111909190613679565b6040516020818303038152906040529050816111e1576040517f08c379a00000000000000000000000000000000000000000000000000000000081526004016111d890613797565b60405180910390fd5b60005b600b548110156112b3576112968260096000848152602001908152602001600020600201805461121390612dfc565b80601f016020809104026020016040519081016040528092919081815260200182805461123f90612dfc565b801561128c5780601f106112615761010080835404028352916020019161128c565b820191906000526020600020905b81548152906001019060200180831161126f57829003601f168201915b5050505050611e3a565b156112a057600092505b80806112ab90613702565b9150506111e4565b50816112f4576040517f08c379a00000000000000000000000000000000000000000000000000000000081526004016112eb90613829565b60405180910390fd5b600061132e611304600b54611cd9565b89898560405160200161131a9493929190613a10565b604051602081830303815290604052611e68565b90506000816040516020016113439190613abb565b604051602081830303815290604052905061136761135f611586565b600b54612000565b611373600b548261201e565b6040518060800160405280600b5481526020014281526020018481526020018a8a8080601f016020809104026020016040519081016040528093929190818152602001838380828437600081840152601f19601f8201169050808301925050505050505081525060096000600b5481526020019081526020016000206000820151816000015560208201518160010155604082015181600201908051906020019061141f9291906125dd565b50606082015181600301908051906020019061143c9291906125dd565b509050507fb500764149c125f59a1420b8f13d88c83dfe81b69389aacf8f83b50d1606c260600b548a8a86334260405161147b96959493929190613b2b565b60405180910390a16001600b60008282546114969190613b8e565b925050819055505050505050600160078190555050505050565b60007f01ffc9a7000000000000000000000000000000000000000000000000000000007bffffffffffffffffffffffffffffffffffffffffffffffffffffffff1916827bffffffffffffffffffffffffffffffffffffffffffffffffffffffff1916149050919050565b60008073ffffffffffffffffffffffffffffffffffffffff166002600084815260200190815260200160002060009054906101000a900473ffffffffffffffffffffffffffffffffffffffff1673ffffffffffffffffffffffffffffffffffffffff1614159050919050565b600033905090565b816004600083815260200190815260200160002060006101000a81548173ffffffffffffffffffffffffffffffffffffffff021916908373ffffffffffffffffffffffffffffffffffffffff160217905550808273ffffffffffffffffffffffffffffffffffffffff1661160183610756565b73ffffffffffffffffffffffffffffffffffffffff167f8c5be1e5ebec7d5bd14f71427d1e84f3dd0314c0f7b2291e5b200ac8c7c3b92560405160405180910390a45050565b60006116528261151a565b611691576040517f08c379a000000000000000000000000000000000000000000000000000000000815260040161168890613c56565b60405180910390fd5b600061169c83610756565b90508073ffffffffffffffffffffffffffffffffffffffff168473ffffffffffffffffffffffffffffffffffffffff1614806116de57506116dd8185610bce565b5b8061171c57508373ffffffffffffffffffffffffffffffffffffffff1661170484610533565b73ffffffffffffffffffffffffffffffffffffffff16145b91505092915050565b8273ffffffffffffffffffffffffffffffffffffffff1661174582610756565b73ffffffffffffffffffffffffffffffffffffffff161461179b576040517f08c379a000000000000000000000000000000000000000000000000000000000815260040161179290613ce8565b60405180910390fd5b600073ffffffffffffffffffffffffffffffffffffffff168273ffffffffffffffffffffffffffffffffffffffff16141561180b576040517f08c379a000000000000000000000000000000000000000000000000000000000815260040161180290613d7a565b60405180910390fd5b611816838383612092565b61182160008261158e565b6001600360008573ffffffffffffffffffffffffffffffffffffffff1673ffffffffffffffffffffffffffffffffffffffff168152602001908152602001600020600082825461187191906136ce565b925050819055506001600360008473ffffffffffffffffffffffffffffffffffffffff1673ffffffffffffffffffffffffffffffffffffffff16815260200190815260200160002060008282546118c89190613b8e565b92505081905550816002600083815260200190815260200160002060006101000a81548173ffffffffffffffffffffffffffffffffffffffff021916908373ffffffffffffffffffffffffffffffffffffffff160217905550808273ffffffffffffffffffffffffffffffffffffffff168473ffffffffffffffffffffffffffffffffffffffff167fddf252ad1be2c89b69c2b068fc378daa952ba7f163c4a11628f55a4df523b3ef60405160405180910390a4611987838383612097565b505050565b6000600860009054906101000a900473ffffffffffffffffffffffffffffffffffffffff16905081600860006101000a81548173ffffffffffffffffffffffffffffffffffffffff021916908373ffffffffffffffffffffffffffffffffffffffff1602179055508173ffffffffffffffffffffffffffffffffffffffff168173ffffffffffffffffffffffffffffffffffffffff167f8be0079c531659141344cd1fd0a4f28419497f9722a3daafe3b4186f6b6457e060405160405180910390a35050565b8173ffffffffffffffffffffffffffffffffffffffff168373ffffffffffffffffffffffffffffffffffffffff161415611ac1576040517f08c379a0000000000000000000000000000000000000000000000000000000008152600401611ab890613de6565b60405180910390fd5b80600560008573ffffffffffffffffffffffffffffffffffffffff1673ffffffffffffffffffffffffffffffffffffffff16815260200190815260200160002060008473ffffffffffffffffffffffffffffffffffffffff1673ffffffffffffffffffffffffffffffffffffffff16815260200190815260200160002060006101000a81548160ff0219169083151502179055508173ffffffffffffffffffffffffffffffffffffffff168373ffffffffffffffffffffffffffffffffffffffff167f17307eab39ab6107e8899845ad3d59bd9653f200f220920489ca2b5937696c3183604051611bb29190612734565b60405180910390a3505050565b611bca848484611725565b611bd68484848461209c565b611c15576040517f08c379a0000000000000000000000000000000000000000000000000000000008152600401611c0c90613e78565b60405180910390fd5b50505050565b606060405180602001604052806000815250905090565b6060611c3d8261151a565b611c7c576040517f08c379a0000000000000000000000000000000000000000000000000000000008152600401611c7390613f0a565b60405180910390fd5b6000611c86611c1b565b90506000815111611ca65760405180602001604052806000815250611cd1565b80611cb084612224565b604051602001611cc19291906132d4565b6040516020818303038152906040525b915050919050565b60606000821415611d21576040518060400160405280600181526020017f30000000000000000000000000000000000000000000000000000000000000008152509050611e35565b600082905060005b60008214611d53578080611d3c90613702565b915050600a82611d4c9190613f59565b9150611d29565b60008167ffffffffffffffff811115611d6f57611d6e612a55565b5b6040519080825280601f01601f191660200182016040528015611da15781602001600182028036833780820191505090505b5090505b60008514611e2e57600182611dba91906136ce565b9150600a85611dc99190613f8a565b6030611dd59190613b8e565b60f81b818381518110611deb57611dea61351a565b5b60200101907effffffffffffffffffffffffffffffffffffffffffffffffffffffffffffff1916908160001a905350600a85611e279190613f59565b9450611da5565b8093505050505b919050565b60008151835114611e4e5760009050611e62565b818051906020012083805190602001201490505b92915050565b60606000825190506000811415611e915760405180602001604052806000815250915050611ffb565b60006003600283611ea29190613b8e565b611eac9190613f59565b6004611eb89190613fbb565b90506000602082611ec99190613b8e565b67ffffffffffffffff811115611ee257611ee1612a55565b5b6040519080825280601f01601f191660200182016040528015611f145781602001600182028036833780820191505090505b5090506000604051806060016040528060408152602001614263604091399050600181016020830160005b86811015611fb85760038101905062ffffff818a015116603f8160121c168401518060081b905060ff603f83600c1c1686015116810190508060081b905060ff603f8360061c1686015116810190508060081b905060ff603f831686015116810190508060e01b90508084526004840193505050611f3f565b506003860660018114611fd25760028114611fe257611fed565b613d3d60f01b6002830352611fed565b603d60f81b60018303525b508484525050819450505050505b919050565b61201a828260405180602001604052806000815250612385565b5050565b6120278261151a565b612066576040517f08c379a000000000000000000000000000000000000000000000000000000000815260040161205d90614087565b60405180910390fd5b8060066000848152602001908152602001600020908051906020019061208d9291906125dd565b505050565b505050565b505050565b60006120bd8473ffffffffffffffffffffffffffffffffffffffff166123e0565b15612217578373ffffffffffffffffffffffffffffffffffffffff1663150b7a026120e6611586565b8786866040518563ffffffff1660e01b815260040161210894939291906140fc565b6020604051808303816000875af192505050801561214457506040513d601f19601f82011682018060405250810190612141919061415d565b60015b6121c7573d8060008114612174576040519150601f19603f3d011682016040523d82523d6000602084013e612179565b606091505b506000815114156121bf576040517f08c379a00000000000000000000000000000000000000000000000000000000081526004016121b690613e78565b60405180910390fd5b805181602001fd5b63150b7a0260e01b7bffffffffffffffffffffffffffffffffffffffffffffffffffffffff1916817bffffffffffffffffffffffffffffffffffffffffffffffffffffffff19161491505061221c565b600190505b949350505050565b6060600082141561226c576040518060400160405280600181526020017f30000000000000000000000000000000000000000000000000000000000000008152509050612380565b600082905060005b6000821461229e57808061228790613702565b915050600a826122979190613f59565b9150612274565b60008167ffffffffffffffff8111156122ba576122b9612a55565b5b6040519080825280601f01601f1916602001820160405280156122ec5781602001600182028036833780820191505090505b5090505b600085146123795760018261230591906136ce565b9150600a856123149190613f8a565b60306123209190613b8e565b60f81b8183815181106123365761233561351a565b5b60200101907effffffffffffffffffffffffffffffffffffffffffffffffffffffffffffff1916908160001a905350600a856123729190613f59565b94506122f0565b8093505050505b919050565b61238f8383612403565b61239c600084848461209c565b6123db576040517f08c379a00000000000000000000000000000000000000000000000000000000081526004016123d290613e78565b60405180910390fd5b505050565b6000808273ffffffffffffffffffffffffffffffffffffffff163b119050919050565b600073ffffffffffffffffffffffffffffffffffffffff168273ffffffffffffffffffffffffffffffffffffffff161415612473576040517f08c379a000000000000000000000000000000000000000000000000000000000815260040161246a906141d6565b60405180910390fd5b61247c8161151a565b156124bc576040517f08c379a00000000000000000000000000000000000000000000000000000000081526004016124b390614242565b60405180910390fd5b6124c860008383612092565b6001600360008473ffffffffffffffffffffffffffffffffffffffff1673ffffffffffffffffffffffffffffffffffffffff16815260200190815260200160002060008282546125189190613b8e565b92505081905550816002600083815260200190815260200160002060006101000a81548173ffffffffffffffffffffffffffffffffffffffff021916908373ffffffffffffffffffffffffffffffffffffffff160217905550808273ffffffffffffffffffffffffffffffffffffffff16600073ffffffffffffffffffffffffffffffffffffffff167fddf252ad1be2c89b69c2b068fc378daa952ba7f163c4a11628f55a4df523b3ef60405160405180910390a46125d960008383612097565b5050565b8280546125e990612dfc565b90600052602060002090601f01602090048101928261260b5760008555612652565b82601f1061262457805160ff1916838001178555612652565b82800160010185558215612652579182015b82811115612651578251825591602001919060010190612636565b5b50905061265f9190612663565b5090565b5b8082111561267c576000816000905550600101612664565b5090565b6000604051905090565b600080fd5b600080fd5b60007fffffffff0000000000000000000000000000000000000000000000000000000082169050919050565b6126c981612694565b81146126d457600080fd5b50565b6000813590506126e6816126c0565b92915050565b6000602082840312156127025761270161268a565b5b6000612710848285016126d7565b91505092915050565b60008115159050919050565b61272e81612719565b82525050565b60006020820190506127496000830184612725565b92915050565b600081519050919050565b600082825260208201905092915050565b60005b8381101561278957808201518184015260208101905061276e565b83811115612798576000848401525b50505050565b6000601f19601f8301169050919050565b60006127ba8261274f565b6127c4818561275a565b93506127d481856020860161276b565b6127dd8161279e565b840191505092915050565b6000602082019050818103600083015261280281846127af565b905092915050565b6000819050919050565b61281d8161280a565b811461282857600080fd5b50565b60008135905061283a81612814565b92915050565b6000602082840312156128565761285561268a565b5b60006128648482850161282b565b91505092915050565b600073ffffffffffffffffffffffffffffffffffffffff82169050919050565b60006128988261286d565b9050919050565b6128a88161288d565b82525050565b60006020820190506128c3600083018461289f565b92915050565b6128d28161288d565b81146128dd57600080fd5b50565b6000813590506128ef816128c9565b92915050565b6000806040838503121561290c5761290b61268a565b5b600061291a858286016128e0565b925050602061292b8582860161282b565b9150509250929050565b61293e8161280a565b82525050565b60006020820190506129596000830184612935565b92915050565b6000806000606084860312156129785761297761268a565b5b6000612986868287016128e0565b9350506020612997868287016128e0565b92505060406129a88682870161282b565b9150509250925092565b6000602082840312156129c8576129c761268a565b5b60006129d6848285016128e0565b91505092915050565b6129e881612719565b81146129f357600080fd5b50565b600081359050612a05816129df565b92915050565b60008060408385031215612a2257612a2161268a565b5b6000612a30858286016128e0565b9250506020612a41858286016129f6565b9150509250929050565b600080fd5b600080fd5b7f4e487b7100000000000000000000000000000000000000000000000000000000600052604160045260246000fd5b612a8d8261279e565b810181811067ffffffffffffffff82111715612aac57612aab612a55565b5b80604052505050565b6000612abf612680565b9050612acb8282612a84565b919050565b600067ffffffffffffffff821115612aeb57612aea612a55565b5b612af48261279e565b9050602081019050919050565b82818337600083830152505050565b6000612b23612b1e84612ad0565b612ab5565b905082815260208101848484011115612b3f57612b3e612a50565b5b612b4a848285612b01565b509392505050565b600082601f830112612b6757612b66612a4b565b5b8135612b77848260208601612b10565b91505092915050565b60008060008060808587031215612b9a57612b9961268a565b5b6000612ba8878288016128e0565b9450506020612bb9878288016128e0565b9350506040612bca8782880161282b565b925050606085013567ffffffffffffffff811115612beb57612bea61268f565b5b612bf787828801612b52565b91505092959194509250565b60008060408385031215612c1a57612c1961268a565b5b6000612c28858286016128e0565b9250506020612c39858286016128e0565b9150509250929050565b6000608082019050612c586000830187612935565b612c656020830186612935565b8181036040830152612c7781856127af565b90508181036060830152612c8b81846127af565b905095945050505050565b600080fd5b600080fd5b60008083601f840112612cb657612cb5612a4b565b5b8235905067ffffffffffffffff811115612cd357612cd2612c96565b5b602083019150836001820283011115612cef57612cee612c9b565b5b9250929050565b60008083601f840112612d0c57612d0b612a4b565b5b8235905067ffffffffffffffff811115612d2957612d28612c96565b5b602083019150836020820283011115612d4557612d44612c9b565b5b9250929050565b60008060008060408587031215612d6657612d6561268a565b5b600085013567ffffffffffffffff811115612d8457612d8361268f565b5b612d9087828801612ca0565b9450945050602085013567ffffffffffffffff811115612db357612db261268f565b5b612dbf87828801612cf6565b925092505092959194509250565b7f4e487b7100000000000000000000000000000000000000000000000000000000600052602260045260246000fd5b60006002820490506001821680612e1457607f821691505b60208210811415612e2857612e27612dcd565b5b50919050565b7f4552433732313a20617070726f76656420717565727920666f72206e6f6e657860008201527f697374656e7420746f6b656e0000000000000000000000000000000000000000602082015250565b6000612e8a602c8361275a565b9150612e9582612e2e565b604082019050919050565b60006020820190508181036000830152612eb981612e7d565b9050919050565b7f4552433732313a20617070726f76616c20746f2063757272656e74206f776e6560008201527f7200000000000000000000000000000000000000000000000000000000000000602082015250565b6000612f1c60218361275a565b9150612f2782612ec0565b604082019050919050565b60006020820190508181036000830152612f4b81612f0f565b9050919050565b7f4552433732313a20617070726f76652063616c6c6572206973206e6f74206f7760008201527f6e6572206e6f7220617070726f76656420666f7220616c6c0000000000000000602082015250565b6000612fae60388361275a565b9150612fb982612f52565b604082019050919050565b60006020820190508181036000830152612fdd81612fa1565b9050919050565b7f4552433732313a207472616e736665722063616c6c6572206973206e6f74206f60008201527f776e6572206e6f7220617070726f766564000000000000000000000000000000602082015250565b600061304060318361275a565b915061304b82612fe4565b604082019050919050565b6000602082019050818103600083015261306f81613033565b9050919050565b7f4552433732313a206f776e657220717565727920666f72206e6f6e657869737460008201527f656e7420746f6b656e0000000000000000000000000000000000000000000000602082015250565b60006130d260298361275a565b91506130dd82613076565b604082019050919050565b60006020820190508181036000830152613101816130c5565b9050919050565b7f4552433732313a2062616c616e636520717565727920666f7220746865207a6560008201527f726f206164647265737300000000000000000000000000000000000000000000602082015250565b6000613164602a8361275a565b915061316f82613108565b604082019050919050565b6000602082019050818103600083015261319381613157565b9050919050565b7f4f776e61626c653a2063616c6c6572206973206e6f7420746865206f776e6572600082015250565b60006131d060208361275a565b91506131db8261319a565b602082019050919050565b600060208201905081810360008301526131ff816131c3565b9050919050565b7f45524337323155524953746f726167653a2055524920717565727920666f722060008201527f6e6f6e6578697374656e7420746f6b656e000000000000000000000000000000602082015250565b600061326260318361275a565b915061326d82613206565b604082019050919050565b6000602082019050818103600083015261329181613255565b9050919050565b600081905092915050565b60006132ae8261274f565b6132b88185613298565b93506132c881856020860161276b565b80840191505092915050565b60006132e082856132a3565b91506132ec82846132a3565b91508190509392505050565b7f4f776e61626c653a206e6577206f776e657220697320746865207a65726f206160008201527f6464726573730000000000000000000000000000000000000000000000000000602082015250565b600061335460268361275a565b915061335f826132f8565b604082019050919050565b6000602082019050818103600083015261338381613347565b9050919050565b7f5265656e7472616e637947756172643a207265656e7472616e742063616c6c00600082015250565b60006133c0601f8361275a565b91506133cb8261338a565b602082019050919050565b600060208201905081810360008301526133ef816133b3565b9050919050565b7f416c6c206465636c61726174696f6e732068617665206265656e206d696e746560008201527f6400000000000000000000000000000000000000000000000000000000000000602082015250565b600061345260218361275a565b915061345d826133f6565b604082019050919050565b6000602082019050818103600083015261348181613445565b9050919050565b7f55726920697320746f6f206c6f6e672068617320746f6f206d616e79206c696e60008201527f6573000000000000000000000000000000000000000000000000000000000000602082015250565b60006134e460228361275a565b91506134ef82613488565b604082019050919050565b60006020820190508181036000830152613513816134d7565b9050919050565b7f4e487b7100000000000000000000000000000000000000000000000000000000600052603260045260246000fd5b600080fd5b600080fd5b600080fd5b6000808335600160200384360303811261357557613574613549565b5b80840192508235915067ffffffffffffffff8211156135975761359661354e565b5b6020830192506020820236038313156135b3576135b2613553565b5b509250929050565b7f5b00000000000000000000000000000000000000000000000000000000000000815250565b60006135ed82846132a3565b91506135f8826135bb565b60018201915081905092915050565b7f2c00000000000000000000000000000000000000000000000000000000000000815250565b600061363982846132a3565b915061364482613607565b60018201915081905092915050565b7f5d00000000000000000000000000000000000000000000000000000000000000815250565b600061368582846132a3565b915061369082613653565b60018201915081905092915050565b7f4e487b7100000000000000000000000000000000000000000000000000000000600052601160045260246000fd5b60006136d98261280a565b91506136e48361280a565b9250828210156136f7576136f661369f565b5b828203905092915050565b600061370d8261280a565b91507fffffffffffffffffffffffffffffffffffffffffffffffffffffffffffffffff8214156137405761373f61369f565b5b600182019050919050565b7f5375626d697474656420696e64696365732061726520696e76616c69642e0000600082015250565b6000613781601e8361275a565b915061378c8261374b565b602082019050919050565b600060208201905081810360008301526137b081613774565b9050919050565b7f54686973206465636c61726174696f6e2068617320616c72656164792062656560008201527f6e206d696e7465642e0000000000000000000000000000000000000000000000602082015250565b600061381360298361275a565b915061381e826137b7565b604082019050919050565b6000602082019050818103600083015261384281613806565b9050919050565b7f7b226e616d65223a202252656465636c61726174696f6e202300000000000000600082015250565b600061387f601983613298565b915061388a82613849565b601982019050919050565b7f222c20226465736372697074696f6e223a202241207265636c61696d696e672060008201527f6f6620746865204465636c61726174696f6e206f6620496e646570656e64656e60208201527f63652062792074686f73652077686f206e65766572207369676e65642069742e60408201527f222c2022696d616765223a202200000000000000000000000000000000000000606082015250565b600061393d606d83613298565b915061394882613895565b606d82019050919050565b600061395f8385613298565b935061396c838584612b01565b82840190509392505050565b7f222c202273656c656374696f6e223a2022000000000000000000000000000000600082015250565b60006139ae601183613298565b91506139b982613978565b601182019050919050565b7f227d000000000000000000000000000000000000000000000000000000000000600082015250565b60006139fa600283613298565b9150613a05826139c4565b600282019050919050565b6000613a1b82613872565b9150613a2782876132a3565b9150613a3282613930565b9150613a3f828587613953565b9150613a4a826139a1565b9150613a5682846132a3565b9150613a61826139ed565b915081905095945050505050565b7f646174613a6170706c69636174696f6e2f6a736f6e3b6261736536342c000000600082015250565b6000613aa5601d83613298565b9150613ab082613a6f565b601d82019050919050565b6000613ac682613a98565b9150613ad282846132a3565b915081905092915050565b6000613ae9838561275a565b9350613af6838584612b01565b613aff8361279e565b840190509392505050565b6000613b158261286d565b9050919050565b613b2581613b0a565b82525050565b600060a082019050613b406000830189612935565b8181036020830152613b53818789613add565b90508181036040830152613b6781866127af565b9050613b766060830185613b1c565b613b836080830184612935565b979650505050505050565b6000613b998261280a565b9150613ba48361280a565b9250827fffffffffffffffffffffffffffffffffffffffffffffffffffffffffffffffff03821115613bd957613bd861369f565b5b828201905092915050565b7f4552433732313a206f70657261746f7220717565727920666f72206e6f6e657860008201527f697374656e7420746f6b656e0000000000000000000000000000000000000000602082015250565b6000613c40602c8361275a565b9150613c4b82613be4565b604082019050919050565b60006020820190508181036000830152613c6f81613c33565b9050919050565b7f4552433732313a207472616e736665722066726f6d20696e636f72726563742060008201527f6f776e6572000000000000000000000000000000000000000000000000000000602082015250565b6000613cd260258361275a565b9150613cdd82613c76565b604082019050919050565b60006020820190508181036000830152613d0181613cc5565b9050919050565b7f4552433732313a207472616e7366657220746f20746865207a65726f2061646460008201527f7265737300000000000000000000000000000000000000000000000000000000602082015250565b6000613d6460248361275a565b9150613d6f82613d08565b604082019050919050565b60006020820190508181036000830152613d9381613d57565b9050919050565b7f4552433732313a20617070726f766520746f2063616c6c657200000000000000600082015250565b6000613dd060198361275a565b9150613ddb82613d9a565b602082019050919050565b60006020820190508181036000830152613dff81613dc3565b9050919050565b7f4552433732313a207472616e7366657220746f206e6f6e20455243373231526560008201527f63656976657220696d706c656d656e7465720000000000000000000000000000602082015250565b6000613e6260328361275a565b9150613e6d82613e06565b604082019050919050565b60006020820190508181036000830152613e9181613e55565b9050919050565b7f4552433732314d657461646174613a2055524920717565727920666f72206e6f60008201527f6e6578697374656e7420746f6b656e0000000000000000000000000000000000602082015250565b6000613ef4602f8361275a565b9150613eff82613e98565b604082019050919050565b60006020820190508181036000830152613f2381613ee7565b9050919050565b7f4e487b7100000000000000000000000000000000000000000000000000000000600052601260045260246000fd5b6000613f648261280a565b9150613f6f8361280a565b925082613f7f57613f7e613f2a565b5b828204905092915050565b6000613f958261280a565b9150613fa08361280a565b925082613fb057613faf613f2a565b5b828206905092915050565b6000613fc68261280a565b9150613fd18361280a565b9250817fffffffffffffffffffffffffffffffffffffffffffffffffffffffffffffffff048311821515161561400a5761400961369f565b5b828202905092915050565b7f45524337323155524953746f726167653a2055524920736574206f66206e6f6e60008201527f6578697374656e7420746f6b656e000000000000000000000000000000000000602082015250565b6000614071602e8361275a565b915061407c82614015565b604082019050919050565b600060208201905081810360008301526140a081614064565b9050919050565b600081519050919050565b600082825260208201905092915050565b60006140ce826140a7565b6140d881856140b2565b93506140e881856020860161276b565b6140f18161279e565b840191505092915050565b6000608082019050614111600083018761289f565b61411e602083018661289f565b61412b6040830185612935565b818103606083015261413d81846140c3565b905095945050505050565b600081519050614157816126c0565b92915050565b6000602082840312156141735761417261268a565b5b600061418184828501614148565b91505092915050565b7f4552433732313a206d696e7420746f20746865207a65726f2061646472657373600082015250565b60006141c060208361275a565b91506141cb8261418a565b602082019050919050565b600060208201905081810360008301526141ef816141b3565b9050919050565b7f4552433732313a20746f6b656e20616c7265616479206d696e74656400000000600082015250565b600061422c601c8361275a565b9150614237826141f6565b602082019050919050565b6000602082019050818103600083015261425b8161421f565b905091905056fe4142434445464748494a4b4c4d4e4f505152535455565758595a6162636465666768696a6b6c6d6e6f707172737475767778797a303132333435363738392b2fa2646970667358221220d7aa7a89ef828d37a0c143887311ab199e33c3fea66bb5294d171c73ea85257464736f6c634300080c0033",
  "immutableReferences": {},
  "source": "// SPDX-License-Identifier: GPL-3.0-or-later\npragma solidity ^0.8.12;\npragma experimental ABIEncoderV2;\n\nimport { ERC721 } from \"@openzeppelin/contracts/token/ERC721/ERC721.sol\";\nimport { ERC721URIStorage } from \"@openzeppelin/contracts/token/ERC721/extensions/ERC721URIStorage.sol\";\nimport { Ownable } from \"@openzeppelin/contracts/access/Ownable.sol\";\nimport { ReentrancyGuard } from \"@openzeppelin/contracts/security/ReentrancyGuard.sol\";\n\ncontract DeclTest1 is ERC721URIStorage, ReentrancyGuard, Ownable {\n    mapping(uint => Declaration) public declarations;\n\n    uint256 PUBLIC_SUPPLY = 528;\n    uint256 public publicMintCount = 0;\n\n    struct Declaration {\n        uint id;\n        uint addedAt;\n        string indices;\n        string imageUrl;\n    }\n\n    event DeclMinted(\n        uint id,\n        string imageUrl,\n        string indices,\n        address payable minter,\n        uint addedAt\n    );\n\n    function mint(string calldata _imageUrl, uint[][] calldata _indices) public nonReentrant {\n        // Figure out how to limit minting depending on the senders individual limit\n        require(publicMintCount < PUBLIC_SUPPLY, 'All declarations have been minted');\n\n        bool validUri = true;\n        // Check that the URI is pointing to one of our redeclaration endpoints\n        require(validUri, 'Uri is too long has too many lines');\n\n        bool validIndices = true;\n        string memory indicesString = \"[\";\n        for (uint256 i = 0; i < _indices.length; i ++) {\n            if(_indices[i].length != 2) {\n                validIndices = false;\n                break;\n            }\n            indicesString = string.concat(indicesString, \"[\");\n            indicesString = string.concat(indicesString, toString(_indices[i][0]));\n            indicesString = string.concat(indicesString, \",\");\n            indicesString = string.concat(indicesString, toString(_indices[i][1]));\n            indicesString = string.concat(indicesString, \"]\");\n            if(i < _indices.length - 1) {\n                indicesString = string.concat(indicesString, \",\");\n            }\n        }\n        indicesString = string.concat(indicesString, \"]\");\n        // Iterate through the indices and ensure they make sense.\n        require(validIndices, 'Submitted indices are invalid.');\n\n        // Check for uniqueness compared to existing declarations. \n        for (uint256 i = 0; i < publicMintCount; i ++) {\n            if(hashCompareWithLengthCheck(indicesString, declarations[i].indices)) {\n                validIndices = false;\n            }\n        }\n        require(validIndices, 'This declaration has already been minted.');\n\n        string memory tokenURIJson = Base64.encode(bytes(string(abi.encodePacked('{\"name\": \"Redeclaration #', toString(publicMintCount), '\", \"description\": \"A reclaiming of the Declaration of Independence by those who never signed it.\", \"image\": \"', _imageUrl, '\", \"selection\": \"', indicesString, '\"}'))));\n        string memory tokenURIString = string(abi.encodePacked('data:application/json;base64,', tokenURIJson));\n\n        _safeMint(_msgSender(), publicMintCount);\n        _setTokenURI(publicMintCount, tokenURIString);\n        declarations[publicMintCount] = Declaration(publicMintCount, block.timestamp, indicesString, _imageUrl);\n\n        // Trigger an event\n        emit DeclMinted(\n            publicMintCount,\n            _imageUrl,\n            indicesString,\n            payable(msg.sender),\n            block.timestamp\n        );\n\n        publicMintCount += 1;\n    }\n\n    function hashCompareWithLengthCheck(string memory a, string memory b) internal pure returns (bool) {\n        if(bytes(a).length != bytes(b).length) {\n            return false;\n        } else {\n            return keccak256(bytes(a)) == keccak256(bytes(b));\n        }\n    }\n\n    function toString(uint256 value) internal pure returns (string memory) {\n    // Inspired by OraclizeAPI's implementation - MIT license\n    // https://github.com/oraclize/ethereum-api/blob/b42146b063c7d6ee1358846c198246239e9360e8/oraclizeAPI_0.4.25.sol\n\n        if (value == 0) {\n            return \"0\";\n        }\n        uint256 temp = value;\n        uint256 digits;\n        while (temp != 0) {\n            digits++;\n            temp /= 10;\n        }\n        bytes memory buffer = new bytes(digits);\n        while (value != 0) {\n            digits -= 1;\n            buffer[digits] = bytes1(uint8(48 + uint256(value % 10)));\n            value /= 10;\n        }\n        return string(buffer);\n    }\n\n    constructor() ERC721(\"Redeclarations\", \"REDCL\") Ownable() {}\n}\n\n/// [MIT License]\n/// @title Base64\n/// @notice Provides a function for encoding some bytes in base64\n/// @author Brecht Devos <brecht@loopring.org>\nlibrary Base64 {\n    bytes internal constant TABLE = \"ABCDEFGHIJKLMNOPQRSTUVWXYZabcdefghijklmnopqrstuvwxyz0123456789+/\";\n\n    /// @notice Encodes some bytes to the base64 representation\n    function encode(bytes memory data) internal pure returns (string memory) {\n        uint256 len = data.length;\n        if (len == 0) return \"\";\n\n        // multiply by 4/3 rounded up\n        uint256 encodedLen = 4 * ((len + 2) / 3);\n\n        // Add some extra buffer at the end\n        bytes memory result = new bytes(encodedLen + 32);\n\n        bytes memory table = TABLE;\n\n        assembly {\n            let tablePtr := add(table, 1)\n            let resultPtr := add(result, 32)\n\n            for {\n                let i := 0\n            } lt(i, len) {\n\n            } {\n                i := add(i, 3)\n                let input := and(mload(add(data, i)), 0xffffff)\n\n                let out := mload(add(tablePtr, and(shr(18, input), 0x3F)))\n                out := shl(8, out)\n                out := add(out, and(mload(add(tablePtr, and(shr(12, input), 0x3F))), 0xFF))\n                out := shl(8, out)\n                out := add(out, and(mload(add(tablePtr, and(shr(6, input), 0x3F))), 0xFF))\n                out := shl(8, out)\n                out := add(out, and(mload(add(tablePtr, and(input, 0x3F))), 0xFF))\n                out := shl(224, out)\n\n                mstore(resultPtr, out)\n\n                resultPtr := add(resultPtr, 4)\n            }\n\n            switch mod(len, 3)\n            case 1 {\n                mstore(sub(resultPtr, 2), shl(240, 0x3d3d))\n            }\n            case 2 {\n                mstore(sub(resultPtr, 1), shl(248, 0x3d))\n            }\n\n            mstore(result, encodedLen)\n        }\n\n        return string(result);\n    }\n}\n\n",
  "sourcePath": "/Users/esc/Code/declarations/contracts/DeclTest1.sol",
  "compiler": {
    "name": "solc",
    "version": "0.8.12+commit.f00d7308.Emscripten.clang"
  },
  "schemaVersion": "3.4.4",
  "updatedAt": "2022-06-06T17:50:13.140Z",
  "networkType": "ethereum",
  "devdoc": {
    "kind": "dev",
    "methods": {
      "approve(address,uint256)": {
        "details": "See {IERC721-approve}."
      },
      "balanceOf(address)": {
        "details": "See {IERC721-balanceOf}."
      },
      "getApproved(uint256)": {
        "details": "See {IERC721-getApproved}."
      },
      "isApprovedForAll(address,address)": {
        "details": "See {IERC721-isApprovedForAll}."
      },
      "name()": {
        "details": "See {IERC721Metadata-name}."
      },
      "owner()": {
        "details": "Returns the address of the current owner."
      },
      "ownerOf(uint256)": {
        "details": "See {IERC721-ownerOf}."
      },
      "renounceOwnership()": {
        "details": "Leaves the contract without owner. It will not be possible to call `onlyOwner` functions anymore. Can only be called by the current owner. NOTE: Renouncing ownership will leave the contract without an owner, thereby removing any functionality that is only available to the owner."
      },
      "safeTransferFrom(address,address,uint256)": {
        "details": "See {IERC721-safeTransferFrom}."
      },
      "safeTransferFrom(address,address,uint256,bytes)": {
        "details": "See {IERC721-safeTransferFrom}."
      },
      "setApprovalForAll(address,bool)": {
        "details": "See {IERC721-setApprovalForAll}."
      },
      "supportsInterface(bytes4)": {
        "details": "See {IERC165-supportsInterface}."
      },
      "symbol()": {
        "details": "See {IERC721Metadata-symbol}."
      },
      "tokenURI(uint256)": {
        "details": "See {IERC721Metadata-tokenURI}."
      },
      "transferFrom(address,address,uint256)": {
        "details": "See {IERC721-transferFrom}."
      },
      "transferOwnership(address)": {
        "details": "Transfers ownership of the contract to a new account (`newOwner`). Can only be called by the current owner."
      }
    },
    "version": 1
  },
  "userdoc": {
    "kind": "user",
    "methods": {},
    "version": 1
  }
}