{
  "contractName": "DeclTest0",
  "abi": [
    {
      "inputs": [],
      "stateMutability": "nonpayable",
      "type": "constructor"
    },
    {
      "anonymous": false,
      "inputs": [
        {
          "indexed": true,
          "internalType": "address",
          "name": "owner",
          "type": "address"
        },
        {
          "indexed": true,
          "internalType": "address",
          "name": "approved",
          "type": "address"
        },
        {
          "indexed": true,
          "internalType": "uint256",
          "name": "tokenId",
          "type": "uint256"
        }
      ],
      "name": "Approval",
      "type": "event"
    },
    {
      "anonymous": false,
      "inputs": [
        {
          "indexed": true,
          "internalType": "address",
          "name": "owner",
          "type": "address"
        },
        {
          "indexed": true,
          "internalType": "address",
          "name": "operator",
          "type": "address"
        },
        {
          "indexed": false,
          "internalType": "bool",
          "name": "approved",
          "type": "bool"
        }
      ],
      "name": "ApprovalForAll",
      "type": "event"
    },
    {
      "anonymous": false,
      "inputs": [
        {
          "indexed": false,
          "internalType": "uint256",
          "name": "id",
          "type": "uint256"
        },
        {
          "indexed": false,
          "internalType": "address payable",
          "name": "minter",
          "type": "address"
        },
        {
          "indexed": false,
          "internalType": "uint256",
          "name": "addedAt",
          "type": "uint256"
        }
      ],
      "name": "DeclMinted",
      "type": "event"
    },
    {
      "anonymous": false,
      "inputs": [
        {
          "indexed": true,
          "internalType": "address",
          "name": "previousOwner",
          "type": "address"
        },
        {
          "indexed": true,
          "internalType": "address",
          "name": "newOwner",
          "type": "address"
        }
      ],
      "name": "OwnershipTransferred",
      "type": "event"
    },
    {
      "anonymous": false,
      "inputs": [
        {
          "indexed": true,
          "internalType": "address",
          "name": "from",
          "type": "address"
        },
        {
          "indexed": true,
          "internalType": "address",
          "name": "to",
          "type": "address"
        },
        {
          "indexed": true,
          "internalType": "uint256",
          "name": "tokenId",
          "type": "uint256"
        }
      ],
      "name": "Transfer",
      "type": "event"
    },
    {
      "inputs": [
        {
          "internalType": "address",
          "name": "to",
          "type": "address"
        },
        {
          "internalType": "uint256",
          "name": "tokenId",
          "type": "uint256"
        }
      ],
      "name": "approve",
      "outputs": [],
      "stateMutability": "nonpayable",
      "type": "function"
    },
    {
      "inputs": [
        {
          "internalType": "address",
          "name": "owner",
          "type": "address"
        }
      ],
      "name": "balanceOf",
      "outputs": [
        {
          "internalType": "uint256",
          "name": "",
          "type": "uint256"
        }
      ],
      "stateMutability": "view",
      "type": "function"
    },
    {
      "inputs": [
        {
          "internalType": "uint256",
          "name": "",
          "type": "uint256"
        }
      ],
      "name": "declarations",
      "outputs": [
        {
          "internalType": "uint256",
          "name": "id",
          "type": "uint256"
        },
        {
          "internalType": "uint256",
          "name": "addedAt",
          "type": "uint256"
        },
        {
          "internalType": "string",
          "name": "tokenURI",
          "type": "string"
        }
      ],
      "stateMutability": "view",
      "type": "function"
    },
    {
      "inputs": [
        {
          "internalType": "uint256",
          "name": "tokenId",
          "type": "uint256"
        }
      ],
      "name": "getApproved",
      "outputs": [
        {
          "internalType": "address",
          "name": "",
          "type": "address"
        }
      ],
      "stateMutability": "view",
      "type": "function"
    },
    {
      "inputs": [
        {
          "internalType": "address",
          "name": "owner",
          "type": "address"
        },
        {
          "internalType": "address",
          "name": "operator",
          "type": "address"
        }
      ],
      "name": "isApprovedForAll",
      "outputs": [
        {
          "internalType": "bool",
          "name": "",
          "type": "bool"
        }
      ],
      "stateMutability": "view",
      "type": "function"
    },
    {
      "inputs": [],
      "name": "name",
      "outputs": [
        {
          "internalType": "string",
          "name": "",
          "type": "string"
        }
      ],
      "stateMutability": "view",
      "type": "function"
    },
    {
      "inputs": [],
      "name": "owner",
      "outputs": [
        {
          "internalType": "address",
          "name": "",
          "type": "address"
        }
      ],
      "stateMutability": "view",
      "type": "function"
    },
    {
      "inputs": [
        {
          "internalType": "uint256",
          "name": "tokenId",
          "type": "uint256"
        }
      ],
      "name": "ownerOf",
      "outputs": [
        {
          "internalType": "address",
          "name": "",
          "type": "address"
        }
      ],
      "stateMutability": "view",
      "type": "function"
    },
    {
      "inputs": [],
      "name": "publicMintCount",
      "outputs": [
        {
          "internalType": "uint256",
          "name": "",
          "type": "uint256"
        }
      ],
      "stateMutability": "view",
      "type": "function"
    },
    {
      "inputs": [],
      "name": "renounceOwnership",
      "outputs": [],
      "stateMutability": "nonpayable",
      "type": "function"
    },
    {
      "inputs": [
        {
          "internalType": "address",
          "name": "from",
          "type": "address"
        },
        {
          "internalType": "address",
          "name": "to",
          "type": "address"
        },
        {
          "internalType": "uint256",
          "name": "tokenId",
          "type": "uint256"
        }
      ],
      "name": "safeTransferFrom",
      "outputs": [],
      "stateMutability": "nonpayable",
      "type": "function"
    },
    {
      "inputs": [
        {
          "internalType": "address",
          "name": "from",
          "type": "address"
        },
        {
          "internalType": "address",
          "name": "to",
          "type": "address"
        },
        {
          "internalType": "uint256",
          "name": "tokenId",
          "type": "uint256"
        },
        {
          "internalType": "bytes",
          "name": "_data",
          "type": "bytes"
        }
      ],
      "name": "safeTransferFrom",
      "outputs": [],
      "stateMutability": "nonpayable",
      "type": "function"
    },
    {
      "inputs": [
        {
          "internalType": "address",
          "name": "operator",
          "type": "address"
        },
        {
          "internalType": "bool",
          "name": "approved",
          "type": "bool"
        }
      ],
      "name": "setApprovalForAll",
      "outputs": [],
      "stateMutability": "nonpayable",
      "type": "function"
    },
    {
      "inputs": [
        {
          "internalType": "bytes4",
          "name": "interfaceId",
          "type": "bytes4"
        }
      ],
      "name": "supportsInterface",
      "outputs": [
        {
          "internalType": "bool",
          "name": "",
          "type": "bool"
        }
      ],
      "stateMutability": "view",
      "type": "function"
    },
    {
      "inputs": [],
      "name": "symbol",
      "outputs": [
        {
          "internalType": "string",
          "name": "",
          "type": "string"
        }
      ],
      "stateMutability": "view",
      "type": "function"
    },
    {
      "inputs": [
        {
          "internalType": "uint256",
          "name": "tokenId",
          "type": "uint256"
        }
      ],
      "name": "tokenURI",
      "outputs": [
        {
          "internalType": "string",
          "name": "",
          "type": "string"
        }
      ],
      "stateMutability": "view",
      "type": "function"
    },
    {
      "inputs": [
        {
          "internalType": "address",
          "name": "from",
          "type": "address"
        },
        {
          "internalType": "address",
          "name": "to",
          "type": "address"
        },
        {
          "internalType": "uint256",
          "name": "tokenId",
          "type": "uint256"
        }
      ],
      "name": "transferFrom",
      "outputs": [],
      "stateMutability": "nonpayable",
      "type": "function"
    },
    {
      "inputs": [
        {
          "internalType": "address",
          "name": "newOwner",
          "type": "address"
        }
      ],
      "name": "transferOwnership",
      "outputs": [],
      "stateMutability": "nonpayable",
      "type": "function"
    },
    {
      "inputs": [
        {
          "internalType": "string",
          "name": "_tokenUri",
          "type": "string"
        },
        {
          "internalType": "uint256[][]",
          "name": "indices",
          "type": "uint256[][]"
        }
      ],
      "name": "mint",
      "outputs": [],
      "stateMutability": "nonpayable",
      "type": "function"
    },
    {
      "inputs": [],
      "name": "ownerMint",
      "outputs": [],
      "stateMutability": "nonpayable",
      "type": "function"
    }
  ],
  "bytecode": "0x608060405261251c6009556101f4600a556000600b556000600c553480156200002757600080fd5b506040518060400160405280600a81526020017f44756d6d79546f6b656e000000000000000000000000000000000000000000008152506040518060400160405280600481526020017f44434c52000000000000000000000000000000000000000000000000000000008152508160009080519060200190620000ac929190620001c4565b508060019080519060200190620000c5929190620001c4565b5050506001600681905550620000f0620000e4620000f660201b60201c565b620000fe60201b60201c565b620002d9565b600033905090565b6000600760009054906101000a900473ffffffffffffffffffffffffffffffffffffffff16905081600760006101000a81548173ffffffffffffffffffffffffffffffffffffffff021916908373ffffffffffffffffffffffffffffffffffffffff1602179055508173ffffffffffffffffffffffffffffffffffffffff168173ffffffffffffffffffffffffffffffffffffffff167f8be0079c531659141344cd1fd0a4f28419497f9722a3daafe3b4186f6b6457e060405160405180910390a35050565b828054620001d29062000274565b90600052602060002090601f016020900481019282620001f6576000855562000242565b82601f106200021157805160ff191683800117855562000242565b8280016001018555821562000242579182015b828111156200024157825182559160200191906001019062000224565b5b50905062000251919062000255565b5090565b5b808211156200027057600081600090555060010162000256565b5090565b600060028204905060018216806200028d57607f821691505b60208210811415620002a457620002a3620002aa565b5b50919050565b7f4e487b7100000000000000000000000000000000000000000000000000000000600052602260045260246000fd5b6136dc80620002e96000396000f3fe608060405234801561001057600080fd5b506004361061012c5760003560e01c80638da5cb5b116100ad578063c87b56dd11610071578063c87b56dd14610309578063e985e9c514610339578063eb7a3bde14610369578063f2fde38b1461039b578063f6ddddf5146103b75761012c565b80638da5cb5b1461028b57806395d89b41146102a9578063a22cb465146102c7578063b12dc991146102e3578063b88d4fde146102ed5761012c565b806323b872dd116100f457806323b872dd146101e957806342842e0e146102055780636352211e1461022157806370a0823114610251578063715018a6146102815761012c565b806301ffc9a71461013157806306fdde0314610161578063081812fc1461017f578063095ea7b3146101af5780630d84d1ce146101cb575b600080fd5b61014b600480360381019061014691906123da565b6103d3565b6040516101589190612913565b60405180910390f35b6101696104b5565b604051610176919061292e565b60405180910390f35b610199600480360381019061019491906124a1565b610547565b6040516101a691906128ac565b60405180910390f35b6101c960048036038101906101c4919061239e565b6105cc565b005b6101d36106e4565b6040516101e09190612bf0565b60405180910390f35b61020360048036038101906101fe9190612298565b6106ea565b005b61021f600480360381019061021a9190612298565b61074a565b005b61023b600480360381019061023691906124a1565b61076a565b60405161024891906128ac565b60405180910390f35b61026b60048036038101906102669190612233565b61081c565b6040516102789190612bf0565b60405180910390f35b6102896108d4565b005b61029361095c565b6040516102a091906128ac565b60405180910390f35b6102b1610986565b6040516102be919061292e565b60405180910390f35b6102e160048036038101906102dc9190612362565b610a18565b005b6102eb610a2e565b005b610307600480360381019061030291906122e7565b610b06565b005b610323600480360381019061031e91906124a1565b610b68565b604051610330919061292e565b60405180910390f35b610353600480360381019061034e919061225c565b610c0f565b6040516103609190612913565b60405180910390f35b610383600480360381019061037e91906124a1565b610ca3565b60405161039293929190612c42565b60405180910390f35b6103b560048036038101906103b09190612233565b610d55565b005b6103d160048036038101906103cc919061242c565b610e4d565b005b60007f80ac58cd000000000000000000000000000000000000000000000000000000007bffffffffffffffffffffffffffffffffffffffffffffffffffffffff1916827bffffffffffffffffffffffffffffffffffffffffffffffffffffffff1916148061049e57507f5b5e139f000000000000000000000000000000000000000000000000000000007bffffffffffffffffffffffffffffffffffffffffffffffffffffffff1916827bffffffffffffffffffffffffffffffffffffffffffffffffffffffff1916145b806104ae57506104ad82611100565b5b9050919050565b6060600080546104c490612f09565b80601f01602080910402602001604051908101604052809291908181526020018280546104f090612f09565b801561053d5780601f106105125761010080835404028352916020019161053d565b820191906000526020600020905b81548152906001019060200180831161052057829003601f168201915b5050505050905090565b60006105528261116a565b610591576040517f08c379a000000000000000000000000000000000000000000000000000000000815260040161058890612af0565b60405180910390fd5b6004600083815260200190815260200160002060009054906101000a900473ffffffffffffffffffffffffffffffffffffffff169050919050565b60006105d78261076a565b90508073ffffffffffffffffffffffffffffffffffffffff168373ffffffffffffffffffffffffffffffffffffffff161415610648576040517f08c379a000000000000000000000000000000000000000000000000000000000815260040161063f90612b70565b60405180910390fd5b8073ffffffffffffffffffffffffffffffffffffffff166106676111d6565b73ffffffffffffffffffffffffffffffffffffffff1614806106965750610695816106906111d6565b610c0f565b5b6106d5576040517f08c379a00000000000000000000000000000000000000000000000000000000081526004016106cc90612a70565b60405180910390fd5b6106df83836111de565b505050565b600b5481565b6106fb6106f56111d6565b82611297565b61073a576040517f08c379a000000000000000000000000000000000000000000000000000000000815260040161073190612bb0565b60405180910390fd5b610745838383611375565b505050565b61076583838360405180602001604052806000815250610b06565b505050565b6000806002600084815260200190815260200160002060009054906101000a900473ffffffffffffffffffffffffffffffffffffffff169050600073ffffffffffffffffffffffffffffffffffffffff168173ffffffffffffffffffffffffffffffffffffffff161415610813576040517f08c379a000000000000000000000000000000000000000000000000000000000815260040161080a90612ab0565b60405180910390fd5b80915050919050565b60008073ffffffffffffffffffffffffffffffffffffffff168273ffffffffffffffffffffffffffffffffffffffff16141561088d576040517f08c379a000000000000000000000000000000000000000000000000000000000815260040161088490612a90565b60405180910390fd5b600360008373ffffffffffffffffffffffffffffffffffffffff1673ffffffffffffffffffffffffffffffffffffffff168152602001908152602001600020549050919050565b6108dc6111d6565b73ffffffffffffffffffffffffffffffffffffffff166108fa61095c565b73ffffffffffffffffffffffffffffffffffffffff1614610950576040517f08c379a000000000000000000000000000000000000000000000000000000000815260040161094790612b10565b60405180910390fd5b61095a60006115dc565b565b6000600760009054906101000a900473ffffffffffffffffffffffffffffffffffffffff16905090565b60606001805461099590612f09565b80601f01602080910402602001604051908101604052809291908181526020018280546109c190612f09565b8015610a0e5780601f106109e357610100808354040283529160200191610a0e565b820191906000526020600020905b8154815290600101906020018083116109f157829003601f168201915b5050505050905090565b610a2a610a236111d6565b83836116a2565b5050565b60026006541415610a74576040517f08c379a0000000000000000000000000000000000000000000000000000000008152600401610a6b90612bd0565b60405180910390fd5b6002600681905550600a54600c5410610ac2576040517f08c379a0000000000000000000000000000000000000000000000000000000008152600401610ab9906129f0565b60405180910390fd5b610ae2610acd6111d6565b600c54600954610add9190612d71565b61180f565b6001600c6000828254610af59190612d71565b925050819055506001600681905550565b610b17610b116111d6565b83611297565b610b56576040517f08c379a0000000000000000000000000000000000000000000000000000000008152600401610b4d90612bb0565b60405180910390fd5b610b628484848461182d565b50505050565b6060610b738261116a565b610bb2576040517f08c379a0000000000000000000000000000000000000000000000000000000008152600401610ba990612b50565b60405180910390fd5b6000610bbc611889565b90506000815111610bdc5760405180602001604052806000815250610c07565b80610be6846118a0565b604051602001610bf7929190612888565b6040516020818303038152906040525b915050919050565b6000600560008473ffffffffffffffffffffffffffffffffffffffff1673ffffffffffffffffffffffffffffffffffffffff16815260200190815260200160002060008373ffffffffffffffffffffffffffffffffffffffff1673ffffffffffffffffffffffffffffffffffffffff16815260200190815260200160002060009054906101000a900460ff16905092915050565b6008602052806000526040600020600091509050806000015490806001015490806003018054610cd290612f09565b80601f0160208091040260200160405190810160405280929190818152602001828054610cfe90612f09565b8015610d4b5780601f10610d2057610100808354040283529160200191610d4b565b820191906000526020600020905b815481529060010190602001808311610d2e57829003601f168201915b5050505050905083565b610d5d6111d6565b73ffffffffffffffffffffffffffffffffffffffff16610d7b61095c565b73ffffffffffffffffffffffffffffffffffffffff1614610dd1576040517f08c379a0000000000000000000000000000000000000000000000000000000008152600401610dc890612b10565b60405180910390fd5b600073ffffffffffffffffffffffffffffffffffffffff168173ffffffffffffffffffffffffffffffffffffffff161415610e41576040517f08c379a0000000000000000000000000000000000000000000000000000000008152600401610e3890612990565b60405180910390fd5b610e4a816115dc565b50565b60026006541415610e93576040517f08c379a0000000000000000000000000000000000000000000000000000000008152600401610e8a90612bd0565b60405180910390fd5b6002600681905550600954600b5410610ee1576040517f08c379a0000000000000000000000000000000000000000000000000000000008152600401610ed8906129f0565b60405180910390fd5b60006001905080610f27576040517f08c379a0000000000000000000000000000000000000000000000000000000008152600401610f1e90612b30565b60405180910390fd5b60006001905080610f6d576040517f08c379a0000000000000000000000000000000000000000000000000000000008152600401610f6490612950565b60405180910390fd5b80610fad576040517f08c379a0000000000000000000000000000000000000000000000000000000008152600401610fa490612b90565b60405180910390fd5b610fc0610fb86111d6565b600b5461180f565b6040518060800160405280600b548152602001428152602001858590610fe69190612eb2565b815260200187878080601f016020809104026020016040519081016040528093929190818152602001838380828437600081840152601f19601f8201169050808301925050505050505081525060086000600b54815260200190815260200160002060008201518160000155602082015181600101556040820151816002019080519060200190611078929190611e46565b506060820151816003019080519060200190611095929190611ea6565b509050507fa5d4d9e006ec0229347b8f9cb83bc5c57d600de69cf94cc695fb8228c18f7d37600b5433426040516110ce93929190612c0b565b60405180910390a16001600b60008282546110e99190612d71565b925050819055505050600160068190555050505050565b60007f01ffc9a7000000000000000000000000000000000000000000000000000000007bffffffffffffffffffffffffffffffffffffffffffffffffffffffff1916827bffffffffffffffffffffffffffffffffffffffffffffffffffffffff1916149050919050565b60008073ffffffffffffffffffffffffffffffffffffffff166002600084815260200190815260200160002060009054906101000a900473ffffffffffffffffffffffffffffffffffffffff1673ffffffffffffffffffffffffffffffffffffffff1614159050919050565b600033905090565b816004600083815260200190815260200160002060006101000a81548173ffffffffffffffffffffffffffffffffffffffff021916908373ffffffffffffffffffffffffffffffffffffffff160217905550808273ffffffffffffffffffffffffffffffffffffffff166112518361076a565b73ffffffffffffffffffffffffffffffffffffffff167f8c5be1e5ebec7d5bd14f71427d1e84f3dd0314c0f7b2291e5b200ac8c7c3b92560405160405180910390a45050565b60006112a28261116a565b6112e1576040517f08c379a00000000000000000000000000000000000000000000000000000000081526004016112d890612a50565b60405180910390fd5b60006112ec8361076a565b90508073ffffffffffffffffffffffffffffffffffffffff168473ffffffffffffffffffffffffffffffffffffffff16148061132e575061132d8185610c0f565b5b8061136c57508373ffffffffffffffffffffffffffffffffffffffff1661135484610547565b73ffffffffffffffffffffffffffffffffffffffff16145b91505092915050565b8273ffffffffffffffffffffffffffffffffffffffff166113958261076a565b73ffffffffffffffffffffffffffffffffffffffff16146113eb576040517f08c379a00000000000000000000000000000000000000000000000000000000081526004016113e2906129b0565b60405180910390fd5b600073ffffffffffffffffffffffffffffffffffffffff168273ffffffffffffffffffffffffffffffffffffffff16141561145b576040517f08c379a000000000000000000000000000000000000000000000000000000000815260040161145290612a10565b60405180910390fd5b611466838383611a4d565b6114716000826111de565b6001600360008573ffffffffffffffffffffffffffffffffffffffff1673ffffffffffffffffffffffffffffffffffffffff16815260200190815260200160002060008282546114c19190612df8565b925050819055506001600360008473ffffffffffffffffffffffffffffffffffffffff1673ffffffffffffffffffffffffffffffffffffffff16815260200190815260200160002060008282546115189190612d71565b92505081905550816002600083815260200190815260200160002060006101000a81548173ffffffffffffffffffffffffffffffffffffffff021916908373ffffffffffffffffffffffffffffffffffffffff160217905550808273ffffffffffffffffffffffffffffffffffffffff168473ffffffffffffffffffffffffffffffffffffffff167fddf252ad1be2c89b69c2b068fc378daa952ba7f163c4a11628f55a4df523b3ef60405160405180910390a46115d7838383611a52565b505050565b6000600760009054906101000a900473ffffffffffffffffffffffffffffffffffffffff16905081600760006101000a81548173ffffffffffffffffffffffffffffffffffffffff021916908373ffffffffffffffffffffffffffffffffffffffff1602179055508173ffffffffffffffffffffffffffffffffffffffff168173ffffffffffffffffffffffffffffffffffffffff167f8be0079c531659141344cd1fd0a4f28419497f9722a3daafe3b4186f6b6457e060405160405180910390a35050565b8173ffffffffffffffffffffffffffffffffffffffff168373ffffffffffffffffffffffffffffffffffffffff161415611711576040517f08c379a000000000000000000000000000000000000000000000000000000000815260040161170890612a30565b60405180910390fd5b80600560008573ffffffffffffffffffffffffffffffffffffffff1673ffffffffffffffffffffffffffffffffffffffff16815260200190815260200160002060008473ffffffffffffffffffffffffffffffffffffffff1673ffffffffffffffffffffffffffffffffffffffff16815260200190815260200160002060006101000a81548160ff0219169083151502179055508173ffffffffffffffffffffffffffffffffffffffff168373ffffffffffffffffffffffffffffffffffffffff167f17307eab39ab6107e8899845ad3d59bd9653f200f220920489ca2b5937696c31836040516118029190612913565b60405180910390a3505050565b611829828260405180602001604052806000815250611a57565b5050565b611838848484611375565b61184484848484611ab2565b611883576040517f08c379a000000000000000000000000000000000000000000000000000000000815260040161187a90612970565b60405180910390fd5b50505050565b606060405180602001604052806000815250905090565b606060008214156118e8576040518060400160405280600181526020017f30000000000000000000000000000000000000000000000000000000000000008152509050611a48565b600082905060005b6000821461191a57808061190390612f6c565b915050600a826119139190612dc7565b91506118f0565b60008167ffffffffffffffff81111561195c577f4e487b7100000000000000000000000000000000000000000000000000000000600052604160045260246000fd5b6040519080825280601f01601f19166020018201604052801561198e5781602001600182028036833780820191505090505b5090505b60008514611a41576001826119a79190612df8565b9150600a856119b69190612fb5565b60306119c29190612d71565b60f81b8183815181106119fe577f4e487b7100000000000000000000000000000000000000000000000000000000600052603260045260246000fd5b60200101907effffffffffffffffffffffffffffffffffffffffffffffffffffffffffffff1916908160001a905350600a85611a3a9190612dc7565b9450611992565b8093505050505b919050565b505050565b505050565b611a618383611c49565b611a6e6000848484611ab2565b611aad576040517f08c379a0000000000000000000000000000000000000000000000000000000008152600401611aa490612970565b60405180910390fd5b505050565b6000611ad38473ffffffffffffffffffffffffffffffffffffffff16611e23565b15611c3c578373ffffffffffffffffffffffffffffffffffffffff1663150b7a02611afc6111d6565b8786866040518563ffffffff1660e01b8152600401611b1e94939291906128c7565b602060405180830381600087803b158015611b3857600080fd5b505af1925050508015611b6957506040513d601f19601f82011682018060405250810190611b669190612403565b60015b611bec573d8060008114611b99576040519150601f19603f3d011682016040523d82523d6000602084013e611b9e565b606091505b50600081511415611be4576040517f08c379a0000000000000000000000000000000000000000000000000000000008152600401611bdb90612970565b60405180910390fd5b805181602001fd5b63150b7a0260e01b7bffffffffffffffffffffffffffffffffffffffffffffffffffffffff1916817bffffffffffffffffffffffffffffffffffffffffffffffffffffffff191614915050611c41565b600190505b949350505050565b600073ffffffffffffffffffffffffffffffffffffffff168273ffffffffffffffffffffffffffffffffffffffff161415611cb9576040517f08c379a0000000000000000000000000000000000000000000000000000000008152600401611cb090612ad0565b60405180910390fd5b611cc28161116a565b15611d02576040517f08c379a0000000000000000000000000000000000000000000000000000000008152600401611cf9906129d0565b60405180910390fd5b611d0e60008383611a4d565b6001600360008473ffffffffffffffffffffffffffffffffffffffff1673ffffffffffffffffffffffffffffffffffffffff1681526020019081526020016000206000828254611d5e9190612d71565b92505081905550816002600083815260200190815260200160002060006101000a81548173ffffffffffffffffffffffffffffffffffffffff021916908373ffffffffffffffffffffffffffffffffffffffff160217905550808273ffffffffffffffffffffffffffffffffffffffff16600073ffffffffffffffffffffffffffffffffffffffff167fddf252ad1be2c89b69c2b068fc378daa952ba7f163c4a11628f55a4df523b3ef60405160405180910390a4611e1f60008383611a52565b5050565b6000808273ffffffffffffffffffffffffffffffffffffffff163b119050919050565b828054828255906000526020600020908101928215611e95579160200282015b82811115611e94578251829080519060200190611e84929190611f2c565b5091602001919060010190611e66565b5b509050611ea29190611f79565b5090565b828054611eb290612f09565b90600052602060002090601f016020900481019282611ed45760008555611f1b565b82601f10611eed57805160ff1916838001178555611f1b565b82800160010185558215611f1b579182015b82811115611f1a578251825591602001919060010190611eff565b5b509050611f289190611f9d565b5090565b828054828255906000526020600020908101928215611f68579160200282015b82811115611f67578251825591602001919060010190611f4c565b5b509050611f759190611f9d565b5090565b5b80821115611f995760008181611f909190611fba565b50600101611f7a565b5090565b5b80821115611fb6576000816000905550600101611f9e565b5090565b5080546000825590600052602060002090810190611fd89190611f9d565b50565b6000611fee611fe984612ca5565b612c80565b9050808382526020820190508260005b8581101561202e57813585016120148882612141565b845260208401935060208301925050600181019050611ffe565b5050509392505050565b600061204b61204684612cd1565b612c80565b9050808382526020820190508285602086028201111561206a57600080fd5b60005b8581101561209a5781612080888261221e565b84526020840193506020830192505060018101905061206d565b5050509392505050565b60006120b76120b284612cfd565b612c80565b9050828152602081018484840111156120cf57600080fd5b6120da848285612ec7565b509392505050565b6000813590506120f18161364a565b92915050565b60008083601f84011261210957600080fd5b8235905067ffffffffffffffff81111561212257600080fd5b60208301915083602082028301111561213a57600080fd5b9250929050565b600082601f83011261215257600080fd5b8135612162848260208601612038565b91505092915050565b60008135905061217a81613661565b92915050565b60008135905061218f81613678565b92915050565b6000815190506121a481613678565b92915050565b600082601f8301126121bb57600080fd5b81356121cb8482602086016120a4565b91505092915050565b60008083601f8401126121e657600080fd5b8235905067ffffffffffffffff8111156121ff57600080fd5b60208301915083600182028301111561221757600080fd5b9250929050565b60008135905061222d8161368f565b92915050565b60006020828403121561224557600080fd5b6000612253848285016120e2565b91505092915050565b6000806040838503121561226f57600080fd5b600061227d858286016120e2565b925050602061228e858286016120e2565b9150509250929050565b6000806000606084860312156122ad57600080fd5b60006122bb868287016120e2565b93505060206122cc868287016120e2565b92505060406122dd8682870161221e565b9150509250925092565b600080600080608085870312156122fd57600080fd5b600061230b878288016120e2565b945050602061231c878288016120e2565b935050604061232d8782880161221e565b925050606085013567ffffffffffffffff81111561234a57600080fd5b612356878288016121aa565b91505092959194509250565b6000806040838503121561237557600080fd5b6000612383858286016120e2565b92505060206123948582860161216b565b9150509250929050565b600080604083850312156123b157600080fd5b60006123bf858286016120e2565b92505060206123d08582860161221e565b9150509250929050565b6000602082840312156123ec57600080fd5b60006123fa84828501612180565b91505092915050565b60006020828403121561241557600080fd5b600061242384828501612195565b91505092915050565b6000806000806040858703121561244257600080fd5b600085013567ffffffffffffffff81111561245c57600080fd5b612468878288016121d4565b9450945050602085013567ffffffffffffffff81111561248757600080fd5b612493878288016120f7565b925092505092959194509250565b6000602082840312156124b357600080fd5b60006124c18482850161221e565b91505092915050565b6124d381612e3e565b82525050565b6124e281612e2c565b82525050565b6124f181612e50565b82525050565b600061250282612d2e565b61250c8185612d44565b935061251c818560208601612ed6565b612525816130a2565b840191505092915050565b600061253b82612d39565b6125458185612d55565b9350612555818560208601612ed6565b61255e816130a2565b840191505092915050565b600061257482612d39565b61257e8185612d66565b935061258e818560208601612ed6565b80840191505092915050565b60006125a7601e83612d55565b91506125b2826130b3565b602082019050919050565b60006125ca603283612d55565b91506125d5826130dc565b604082019050919050565b60006125ed602683612d55565b91506125f88261312b565b604082019050919050565b6000612610602583612d55565b915061261b8261317a565b604082019050919050565b6000612633601c83612d55565b915061263e826131c9565b602082019050919050565b6000612656602183612d55565b9150612661826131f2565b604082019050919050565b6000612679602483612d55565b915061268482613241565b604082019050919050565b600061269c601983612d55565b91506126a782613290565b602082019050919050565b60006126bf602c83612d55565b91506126ca826132b9565b604082019050919050565b60006126e2603883612d55565b91506126ed82613308565b604082019050919050565b6000612705602a83612d55565b915061271082613357565b604082019050919050565b6000612728602983612d55565b9150612733826133a6565b604082019050919050565b600061274b602083612d55565b9150612756826133f5565b602082019050919050565b600061276e602c83612d55565b91506127798261341e565b604082019050919050565b6000612791602083612d55565b915061279c8261346d565b602082019050919050565b60006127b4602283612d55565b91506127bf82613496565b604082019050919050565b60006127d7602f83612d55565b91506127e2826134e5565b604082019050919050565b60006127fa602183612d55565b915061280582613534565b604082019050919050565b600061281d602983612d55565b915061282882613583565b604082019050919050565b6000612840603183612d55565b915061284b826135d2565b604082019050919050565b6000612863601f83612d55565b915061286e82613621565b602082019050919050565b61288281612ea8565b82525050565b60006128948285612569565b91506128a08284612569565b91508190509392505050565b60006020820190506128c160008301846124d9565b92915050565b60006080820190506128dc60008301876124d9565b6128e960208301866124d9565b6128f66040830185612879565b818103606083015261290881846124f7565b905095945050505050565b600060208201905061292860008301846124e8565b92915050565b600060208201905081810360008301526129488184612530565b905092915050565b600060208201905081810360008301526129698161259a565b9050919050565b60006020820190508181036000830152612989816125bd565b9050919050565b600060208201905081810360008301526129a9816125e0565b9050919050565b600060208201905081810360008301526129c981612603565b9050919050565b600060208201905081810360008301526129e981612626565b9050919050565b60006020820190508181036000830152612a0981612649565b9050919050565b60006020820190508181036000830152612a298161266c565b9050919050565b60006020820190508181036000830152612a498161268f565b9050919050565b60006020820190508181036000830152612a69816126b2565b9050919050565b60006020820190508181036000830152612a89816126d5565b9050919050565b60006020820190508181036000830152612aa9816126f8565b9050919050565b60006020820190508181036000830152612ac98161271b565b9050919050565b60006020820190508181036000830152612ae98161273e565b9050919050565b60006020820190508181036000830152612b0981612761565b9050919050565b60006020820190508181036000830152612b2981612784565b9050919050565b60006020820190508181036000830152612b49816127a7565b9050919050565b60006020820190508181036000830152612b69816127ca565b9050919050565b60006020820190508181036000830152612b89816127ed565b9050919050565b60006020820190508181036000830152612ba981612810565b9050919050565b60006020820190508181036000830152612bc981612833565b9050919050565b60006020820190508181036000830152612be981612856565b9050919050565b6000602082019050612c056000830184612879565b92915050565b6000606082019050612c206000830186612879565b612c2d60208301856124ca565b612c3a6040830184612879565b949350505050565b6000606082019050612c576000830186612879565b612c646020830185612879565b8181036040830152612c768184612530565b9050949350505050565b6000612c8a612c9b565b9050612c968282612f3b565b919050565b6000604051905090565b600067ffffffffffffffff821115612cc057612cbf613073565b5b602082029050602081019050919050565b600067ffffffffffffffff821115612cec57612ceb613073565b5b602082029050602081019050919050565b600067ffffffffffffffff821115612d1857612d17613073565b5b612d21826130a2565b9050602081019050919050565b600081519050919050565b600081519050919050565b600082825260208201905092915050565b600082825260208201905092915050565b600081905092915050565b6000612d7c82612ea8565b9150612d8783612ea8565b9250827fffffffffffffffffffffffffffffffffffffffffffffffffffffffffffffffff03821115612dbc57612dbb612fe6565b5b828201905092915050565b6000612dd282612ea8565b9150612ddd83612ea8565b925082612ded57612dec613015565b5b828204905092915050565b6000612e0382612ea8565b9150612e0e83612ea8565b925082821015612e2157612e20612fe6565b5b828203905092915050565b6000612e3782612e88565b9050919050565b6000612e4982612e88565b9050919050565b60008115159050919050565b60007fffffffff0000000000000000000000000000000000000000000000000000000082169050919050565b600073ffffffffffffffffffffffffffffffffffffffff82169050919050565b6000819050919050565b6000612ebf368484611fdb565b905092915050565b82818337600083830152505050565b60005b83811015612ef4578082015181840152602081019050612ed9565b83811115612f03576000848401525b50505050565b60006002820490506001821680612f2157607f821691505b60208210811415612f3557612f34613044565b5b50919050565b612f44826130a2565b810181811067ffffffffffffffff82111715612f6357612f62613073565b5b80604052505050565b6000612f7782612ea8565b91507fffffffffffffffffffffffffffffffffffffffffffffffffffffffffffffffff821415612faa57612fa9612fe6565b5b600182019050919050565b6000612fc082612ea8565b9150612fcb83612ea8565b925082612fdb57612fda613015565b5b828206905092915050565b7f4e487b7100000000000000000000000000000000000000000000000000000000600052601160045260246000fd5b7f4e487b7100000000000000000000000000000000000000000000000000000000600052601260045260246000fd5b7f4e487b7100000000000000000000000000000000000000000000000000000000600052602260045260246000fd5b7f4e487b7100000000000000000000000000000000000000000000000000000000600052604160045260246000fd5b6000601f19601f8301169050919050565b7f5375626d697474656420696e64696365732061726520696e76616c69642e0000600082015250565b7f4552433732313a207472616e7366657220746f206e6f6e20455243373231526560008201527f63656976657220696d706c656d656e7465720000000000000000000000000000602082015250565b7f4f776e61626c653a206e6577206f776e657220697320746865207a65726f206160008201527f6464726573730000000000000000000000000000000000000000000000000000602082015250565b7f4552433732313a207472616e736665722066726f6d20696e636f72726563742060008201527f6f776e6572000000000000000000000000000000000000000000000000000000602082015250565b7f4552433732313a20746f6b656e20616c7265616479206d696e74656400000000600082015250565b7f416c6c206465636c61726174696f6e732068617665206265656e206d696e746560008201527f6400000000000000000000000000000000000000000000000000000000000000602082015250565b7f4552433732313a207472616e7366657220746f20746865207a65726f2061646460008201527f7265737300000000000000000000000000000000000000000000000000000000602082015250565b7f4552433732313a20617070726f766520746f2063616c6c657200000000000000600082015250565b7f4552433732313a206f70657261746f7220717565727920666f72206e6f6e657860008201527f697374656e7420746f6b656e0000000000000000000000000000000000000000602082015250565b7f4552433732313a20617070726f76652063616c6c6572206973206e6f74206f7760008201527f6e6572206e6f7220617070726f76656420666f7220616c6c0000000000000000602082015250565b7f4552433732313a2062616c616e636520717565727920666f7220746865207a6560008201527f726f206164647265737300000000000000000000000000000000000000000000602082015250565b7f4552433732313a206f776e657220717565727920666f72206e6f6e657869737460008201527f656e7420746f6b656e0000000000000000000000000000000000000000000000602082015250565b7f4552433732313a206d696e7420746f20746865207a65726f2061646472657373600082015250565b7f4552433732313a20617070726f76656420717565727920666f72206e6f6e657860008201527f697374656e7420746f6b656e0000000000000000000000000000000000000000602082015250565b7f4f776e61626c653a2063616c6c6572206973206e6f7420746865206f776e6572600082015250565b7f55726920697320746f6f206c6f6e672068617320746f6f206d616e79206c696e60008201527f6573000000000000000000000000000000000000000000000000000000000000602082015250565b7f4552433732314d657461646174613a2055524920717565727920666f72206e6f60008201527f6e6578697374656e7420746f6b656e0000000000000000000000000000000000602082015250565b7f4552433732313a20617070726f76616c20746f2063757272656e74206f776e6560008201527f7200000000000000000000000000000000000000000000000000000000000000602082015250565b7f54686973206465636c61726174696f6e2068617320616c72656164792062656560008201527f6e206d696e7465642e0000000000000000000000000000000000000000000000602082015250565b7f4552433732313a207472616e736665722063616c6c6572206973206e6f74206f60008201527f776e6572206e6f7220617070726f766564000000000000000000000000000000602082015250565b7f5265656e7472616e637947756172643a207265656e7472616e742063616c6c00600082015250565b61365381612e2c565b811461365e57600080fd5b50565b61366a81612e50565b811461367557600080fd5b50565b61368181612e5c565b811461368c57600080fd5b50565b61369881612ea8565b81146136a357600080fd5b5056fea2646970667358221220ecc0f6a473bf20e1dee77eb593a08c008376750df6c897836228c2f1fa8b784564736f6c63430008010033",
  "immutableReferences": {},
  "source": "// SPDX-License-Identifier: GPL-3.0-or-later\npragma solidity ^0.8.0;\npragma experimental ABIEncoderV2;\n\nimport { ERC721 } from \"@openzeppelin/contracts/token/ERC721/ERC721.sol\";\nimport { Ownable } from \"@openzeppelin/contracts/access/Ownable.sol\";\nimport { ReentrancyGuard } from \"@openzeppelin/contracts/security/ReentrancyGuard.sol\";\n\ncontract DeclTest0 is ERC721, ReentrancyGuard, Ownable {\n    mapping(uint => Declaration) public declarations;\n\n    struct Declaration {\n        uint id;\n        uint addedAt;\n        uint[][] indices;\n        string tokenURI;\n    }\n\n    uint256 PUBLIC_SUPPLY = 9500;\n    uint256 OWNER_SUPPLY = 500;\n    uint256 public publicMintCount = 0;\n    uint256 ownerMintCount = 0;\n\n    event DeclMinted(\n        uint id,\n        address payable minter,\n        uint addedAt\n    );\n\n    function mint(string calldata _tokenUri, uint[][] calldata indices) public nonReentrant {\n        // Figure out how to limit minting depending on the senders individual limit\n        require(publicMintCount < PUBLIC_SUPPLY, 'All declarations have been minted');\n\n        bool validUri = true;\n        // Check that the URI is pointing to one of our redeclaration endpoints\n        require(validUri, 'Uri is too long has too many lines');\n\n        bool validIndices = true;\n        // Iterate through the indices and ensure they make sense.\n        require(validIndices, 'Submitted indices are invalid.');\n        // Check for uniqueness compared to existing declarations. \n        require(validIndices, 'This declaration has already been minted.');\n\n        _safeMint(_msgSender(), publicMintCount);\n        declarations[publicMintCount] = Declaration(publicMintCount, block.timestamp, indices, _tokenUri);\n\n        // Trigger an event\n        emit DeclMinted(publicMintCount, payable(msg.sender), block.timestamp);\n\n        publicMintCount += 1;\n    }\n\n    function ownerMint() public nonReentrant {\n        require(ownerMintCount < OWNER_SUPPLY, \"All declarations have been minted\");\n        _safeMint(_msgSender(), PUBLIC_SUPPLY + ownerMintCount);\n        ownerMintCount += 1;\n    }\n\n    constructor() ERC721(\"DummyToken\", \"DCLR\") Ownable() {}\n}",
  "sourcePath": "/Users/esc/Code/declarations/contracts/DeclTest0.sol",
  "compiler": {
    "name": "solc",
    "version": "0.8.1+commit.df193b15.Emscripten.clang"
  },
  "schemaVersion": "3.4.4",
  "updatedAt": "2022-05-30T15:37:51.340Z",
  "devdoc": {
    "kind": "dev",
    "methods": {
      "approve(address,uint256)": {
        "details": "See {IERC721-approve}."
      },
      "balanceOf(address)": {
        "details": "See {IERC721-balanceOf}."
      },
      "getApproved(uint256)": {
        "details": "See {IERC721-getApproved}."
      },
      "isApprovedForAll(address,address)": {
        "details": "See {IERC721-isApprovedForAll}."
      },
      "name()": {
        "details": "See {IERC721Metadata-name}."
      },
      "owner()": {
        "details": "Returns the address of the current owner."
      },
      "ownerOf(uint256)": {
        "details": "See {IERC721-ownerOf}."
      },
      "renounceOwnership()": {
        "details": "Leaves the contract without owner. It will not be possible to call `onlyOwner` functions anymore. Can only be called by the current owner. NOTE: Renouncing ownership will leave the contract without an owner, thereby removing any functionality that is only available to the owner."
      },
      "safeTransferFrom(address,address,uint256)": {
        "details": "See {IERC721-safeTransferFrom}."
      },
      "safeTransferFrom(address,address,uint256,bytes)": {
        "details": "See {IERC721-safeTransferFrom}."
      },
      "setApprovalForAll(address,bool)": {
        "details": "See {IERC721-setApprovalForAll}."
      },
      "supportsInterface(bytes4)": {
        "details": "See {IERC165-supportsInterface}."
      },
      "symbol()": {
        "details": "See {IERC721Metadata-symbol}."
      },
      "tokenURI(uint256)": {
        "details": "See {IERC721Metadata-tokenURI}."
      },
      "transferFrom(address,address,uint256)": {
        "details": "See {IERC721-transferFrom}."
      },
      "transferOwnership(address)": {
        "details": "Transfers ownership of the contract to a new account (`newOwner`). Can only be called by the current owner."
      }
    },
    "version": 1
  },
  "userdoc": {
    "kind": "user",
    "methods": {},
    "version": 1
  }
}