{
  "contractName": "Redeclarations",
  "abi": [
    {
      "inputs": [],
      "stateMutability": "nonpayable",
      "type": "constructor"
    },
    {
      "anonymous": false,
      "inputs": [
        {
          "indexed": true,
          "internalType": "address",
          "name": "owner",
          "type": "address"
        },
        {
          "indexed": true,
          "internalType": "address",
          "name": "approved",
          "type": "address"
        },
        {
          "indexed": true,
          "internalType": "uint256",
          "name": "tokenId",
          "type": "uint256"
        }
      ],
      "name": "Approval",
      "type": "event"
    },
    {
      "anonymous": false,
      "inputs": [
        {
          "indexed": true,
          "internalType": "address",
          "name": "owner",
          "type": "address"
        },
        {
          "indexed": true,
          "internalType": "address",
          "name": "operator",
          "type": "address"
        },
        {
          "indexed": false,
          "internalType": "bool",
          "name": "approved",
          "type": "bool"
        }
      ],
      "name": "ApprovalForAll",
      "type": "event"
    },
    {
      "anonymous": false,
      "inputs": [
        {
          "indexed": false,
          "internalType": "uint256",
          "name": "id",
          "type": "uint256"
        },
        {
          "indexed": false,
          "internalType": "string",
          "name": "imageUrl",
          "type": "string"
        },
        {
          "indexed": false,
          "internalType": "string",
          "name": "indices",
          "type": "string"
        },
        {
          "indexed": false,
          "internalType": "address payable",
          "name": "minter",
          "type": "address"
        },
        {
          "indexed": false,
          "internalType": "uint256",
          "name": "addedAt",
          "type": "uint256"
        }
      ],
      "name": "DeclMintOrUpdate",
      "type": "event"
    },
    {
      "anonymous": false,
      "inputs": [
        {
          "indexed": true,
          "internalType": "address",
          "name": "previousOwner",
          "type": "address"
        },
        {
          "indexed": true,
          "internalType": "address",
          "name": "newOwner",
          "type": "address"
        }
      ],
      "name": "OwnershipTransferred",
      "type": "event"
    },
    {
      "anonymous": false,
      "inputs": [
        {
          "indexed": true,
          "internalType": "address",
          "name": "from",
          "type": "address"
        },
        {
          "indexed": true,
          "internalType": "address",
          "name": "to",
          "type": "address"
        },
        {
          "indexed": true,
          "internalType": "uint256",
          "name": "tokenId",
          "type": "uint256"
        }
      ],
      "name": "Transfer",
      "type": "event"
    },
    {
      "inputs": [
        {
          "internalType": "address",
          "name": "to",
          "type": "address"
        },
        {
          "internalType": "uint256",
          "name": "tokenId",
          "type": "uint256"
        }
      ],
      "name": "approve",
      "outputs": [],
      "stateMutability": "nonpayable",
      "type": "function"
    },
    {
      "inputs": [
        {
          "internalType": "address",
          "name": "owner",
          "type": "address"
        }
      ],
      "name": "balanceOf",
      "outputs": [
        {
          "internalType": "uint256",
          "name": "",
          "type": "uint256"
        }
      ],
      "stateMutability": "view",
      "type": "function",
      "constant": true
    },
    {
      "inputs": [
        {
          "internalType": "uint256",
          "name": "",
          "type": "uint256"
        }
      ],
      "name": "declarations",
      "outputs": [
        {
          "internalType": "uint256",
          "name": "id",
          "type": "uint256"
        },
        {
          "internalType": "uint256",
          "name": "addedAt",
          "type": "uint256"
        },
        {
          "internalType": "string",
          "name": "indices",
          "type": "string"
        },
        {
          "internalType": "string",
          "name": "imageUrl",
          "type": "string"
        }
      ],
      "stateMutability": "view",
      "type": "function",
      "constant": true
    },
    {
      "inputs": [
        {
          "internalType": "uint256",
          "name": "tokenId",
          "type": "uint256"
        }
      ],
      "name": "getApproved",
      "outputs": [
        {
          "internalType": "address",
          "name": "",
          "type": "address"
        }
      ],
      "stateMutability": "view",
      "type": "function",
      "constant": true
    },
    {
      "inputs": [
        {
          "internalType": "address",
          "name": "owner",
          "type": "address"
        },
        {
          "internalType": "address",
          "name": "operator",
          "type": "address"
        }
      ],
      "name": "isApprovedForAll",
      "outputs": [
        {
          "internalType": "bool",
          "name": "",
          "type": "bool"
        }
      ],
      "stateMutability": "view",
      "type": "function",
      "constant": true
    },
    {
      "inputs": [],
      "name": "name",
      "outputs": [
        {
          "internalType": "string",
          "name": "",
          "type": "string"
        }
      ],
      "stateMutability": "view",
      "type": "function",
      "constant": true
    },
    {
      "inputs": [],
      "name": "owner",
      "outputs": [
        {
          "internalType": "address",
          "name": "",
          "type": "address"
        }
      ],
      "stateMutability": "view",
      "type": "function",
      "constant": true
    },
    {
      "inputs": [],
      "name": "owner2MintCount",
      "outputs": [
        {
          "internalType": "uint256",
          "name": "",
          "type": "uint256"
        }
      ],
      "stateMutability": "view",
      "type": "function",
      "constant": true
    },
    {
      "inputs": [],
      "name": "owner3MintCount",
      "outputs": [
        {
          "internalType": "uint256",
          "name": "",
          "type": "uint256"
        }
      ],
      "stateMutability": "view",
      "type": "function",
      "constant": true
    },
    {
      "inputs": [],
      "name": "owner4MintCount",
      "outputs": [
        {
          "internalType": "uint256",
          "name": "",
          "type": "uint256"
        }
      ],
      "stateMutability": "view",
      "type": "function",
      "constant": true
    },
    {
      "inputs": [],
      "name": "ownerMintCount",
      "outputs": [
        {
          "internalType": "uint256",
          "name": "",
          "type": "uint256"
        }
      ],
      "stateMutability": "view",
      "type": "function",
      "constant": true
    },
    {
      "inputs": [
        {
          "internalType": "uint256",
          "name": "tokenId",
          "type": "uint256"
        }
      ],
      "name": "ownerOf",
      "outputs": [
        {
          "internalType": "address",
          "name": "",
          "type": "address"
        }
      ],
      "stateMutability": "view",
      "type": "function",
      "constant": true
    },
    {
      "inputs": [],
      "name": "publicMintCount",
      "outputs": [
        {
          "internalType": "uint256",
          "name": "",
          "type": "uint256"
        }
      ],
      "stateMutability": "view",
      "type": "function",
      "constant": true
    },
    {
      "inputs": [],
      "name": "renounceOwnership",
      "outputs": [],
      "stateMutability": "nonpayable",
      "type": "function"
    },
    {
      "inputs": [
        {
          "internalType": "address",
          "name": "from",
          "type": "address"
        },
        {
          "internalType": "address",
          "name": "to",
          "type": "address"
        },
        {
          "internalType": "uint256",
          "name": "tokenId",
          "type": "uint256"
        }
      ],
      "name": "safeTransferFrom",
      "outputs": [],
      "stateMutability": "nonpayable",
      "type": "function"
    },
    {
      "inputs": [
        {
          "internalType": "address",
          "name": "from",
          "type": "address"
        },
        {
          "internalType": "address",
          "name": "to",
          "type": "address"
        },
        {
          "internalType": "uint256",
          "name": "tokenId",
          "type": "uint256"
        },
        {
          "internalType": "bytes",
          "name": "_data",
          "type": "bytes"
        }
      ],
      "name": "safeTransferFrom",
      "outputs": [],
      "stateMutability": "nonpayable",
      "type": "function"
    },
    {
      "inputs": [
        {
          "internalType": "address",
          "name": "operator",
          "type": "address"
        },
        {
          "internalType": "bool",
          "name": "approved",
          "type": "bool"
        }
      ],
      "name": "setApprovalForAll",
      "outputs": [],
      "stateMutability": "nonpayable",
      "type": "function"
    },
    {
      "inputs": [
        {
          "internalType": "bytes4",
          "name": "interfaceId",
          "type": "bytes4"
        }
      ],
      "name": "supportsInterface",
      "outputs": [
        {
          "internalType": "bool",
          "name": "",
          "type": "bool"
        }
      ],
      "stateMutability": "view",
      "type": "function",
      "constant": true
    },
    {
      "inputs": [],
      "name": "symbol",
      "outputs": [
        {
          "internalType": "string",
          "name": "",
          "type": "string"
        }
      ],
      "stateMutability": "view",
      "type": "function",
      "constant": true
    },
    {
      "inputs": [
        {
          "internalType": "uint256",
          "name": "tokenId",
          "type": "uint256"
        }
      ],
      "name": "tokenURI",
      "outputs": [
        {
          "internalType": "string",
          "name": "",
          "type": "string"
        }
      ],
      "stateMutability": "view",
      "type": "function",
      "constant": true
    },
    {
      "inputs": [
        {
          "internalType": "address",
          "name": "from",
          "type": "address"
        },
        {
          "internalType": "address",
          "name": "to",
          "type": "address"
        },
        {
          "internalType": "uint256",
          "name": "tokenId",
          "type": "uint256"
        }
      ],
      "name": "transferFrom",
      "outputs": [],
      "stateMutability": "nonpayable",
      "type": "function"
    },
    {
      "inputs": [
        {
          "internalType": "address",
          "name": "newOwner",
          "type": "address"
        }
      ],
      "name": "transferOwnership",
      "outputs": [],
      "stateMutability": "nonpayable",
      "type": "function"
    },
    {
      "inputs": [
        {
          "internalType": "uint256",
          "name": "_tokenId",
          "type": "uint256"
        },
        {
          "internalType": "string",
          "name": "_imageUrl",
          "type": "string"
        },
        {
          "internalType": "string",
          "name": "_indicesString",
          "type": "string"
        }
      ],
      "name": "updateToken",
      "outputs": [],
      "stateMutability": "nonpayable",
      "type": "function"
    },
    {
      "inputs": [
        {
          "internalType": "string",
          "name": "_imageUrl",
          "type": "string"
        },
        {
          "internalType": "string",
          "name": "_indices",
          "type": "string"
        }
      ],
      "name": "ownerMint",
      "outputs": [],
      "stateMutability": "nonpayable",
      "type": "function"
    },
    {
      "inputs": [
        {
          "internalType": "string",
          "name": "_imageUrl",
          "type": "string"
        },
        {
          "internalType": "string",
          "name": "_indices",
          "type": "string"
        }
      ],
      "name": "owner2Mint",
      "outputs": [],
      "stateMutability": "nonpayable",
      "type": "function"
    },
    {
      "inputs": [
        {
          "internalType": "string",
          "name": "_imageUrl",
          "type": "string"
        },
        {
          "internalType": "string",
          "name": "_indices",
          "type": "string"
        }
      ],
      "name": "owner3Mint",
      "outputs": [],
      "stateMutability": "nonpayable",
      "type": "function"
    },
    {
      "inputs": [
        {
          "internalType": "string",
          "name": "_imageUrl",
          "type": "string"
        },
        {
          "internalType": "string",
          "name": "_indices",
          "type": "string"
        }
      ],
      "name": "owner4Mint",
      "outputs": [],
      "stateMutability": "nonpayable",
      "type": "function"
    },
    {
      "inputs": [
        {
          "internalType": "string",
          "name": "_imageUrl",
          "type": "string"
        },
        {
          "internalType": "string",
          "name": "_indices",
          "type": "string"
        }
      ],
      "name": "publicMint",
      "outputs": [],
      "stateMutability": "nonpayable",
      "type": "function"
    }
  ],
  "bytecode": "0x60806040526101d4600a556000600b556019600c556000600d556000600e556000600f5560006010553480156200003557600080fd5b506040518060400160405280600e81526020017f52656465636c61726174696f6e730000000000000000000000000000000000008152506040518060400160405280600581526020017f5244434c520000000000000000000000000000000000000000000000000000008152508160009080519060200190620000ba929190620001d2565b508060019080519060200190620000d3929190620001d2565b5050506001600781905550620000fe620000f26200010460201b60201c565b6200010c60201b60201c565b620002e7565b600033905090565b6000600860009054906101000a900473ffffffffffffffffffffffffffffffffffffffff16905081600860006101000a81548173ffffffffffffffffffffffffffffffffffffffff021916908373ffffffffffffffffffffffffffffffffffffffff1602179055508173ffffffffffffffffffffffffffffffffffffffff168173ffffffffffffffffffffffffffffffffffffffff167f8be0079c531659141344cd1fd0a4f28419497f9722a3daafe3b4186f6b6457e060405160405180910390a35050565b828054620001e090620002b1565b90600052602060002090601f01602090048101928262000204576000855562000250565b82601f106200021f57805160ff191683800117855562000250565b8280016001018555821562000250579182015b828111156200024f57825182559160200191906001019062000232565b5b5090506200025f919062000263565b5090565b5b808211156200027e57600081600090555060010162000264565b5090565b7f4e487b7100000000000000000000000000000000000000000000000000000000600052602260045260246000fd5b60006002820490506001821680620002ca57607f821691505b60208210811415620002e157620002e062000282565b5b50919050565b6147ff80620002f76000396000f3fe608060405234801561001057600080fd5b50600436106101c45760003560e01c8063715018a6116100f9578063ae29270911610097578063c87b56dd11610071578063c87b56dd146104b7578063e985e9c5146104e7578063eb7a3bde14610517578063f2fde38b1461054a576101c4565b8063ae29270914610461578063b88d4fde1461047f578063c088c4d81461049b576101c4565b806392d45ff5116100d357806392d45ff5146103ed57806395d89b411461040b5780639991142014610429578063a22cb46514610445576101c4565b8063715018a6146103a95780638da5cb5b146103b357806390c5d37d146103d1576101c4565b806320e6acab1161016657806342842e0e1161014057806342842e0e146103115780636352211e1461032d57806364c5d7fb1461035d57806370a0823114610379576101c4565b806320e6acab146102bb57806323b872dd146102d957806332e62c94146102f5576101c4565b8063081812fc116101a2578063081812fc14610233578063095ea7b3146102635780630d84d1ce1461027f578063137edaa01461029d576101c4565b806301ffc9a7146101c9578063041c2cc8146101f957806306fdde0314610215575b600080fd5b6101e360048036038101906101de9190612d92565b610566565b6040516101f09190612dda565b60405180910390f35b610213600480360381019061020e9190612e5a565b610648565b005b61021d610762565b60405161022a9190612f74565b60405180910390f35b61024d60048036038101906102489190612fcc565b6107f4565b60405161025a919061303a565b60405180910390f35b61027d60048036038101906102789190613081565b610879565b005b610287610991565b60405161029491906130d0565b60405180910390f35b6102a5610997565b6040516102b291906130d0565b60405180910390f35b6102c361099d565b6040516102d091906130d0565b60405180910390f35b6102f360048036038101906102ee91906130eb565b6109a3565b005b61030f600480360381019061030a9190612e5a565b610a03565b005b61032b600480360381019061032691906130eb565b610acb565b005b61034760048036038101906103429190612fcc565b610aeb565b604051610354919061303a565b60405180910390f35b61037760048036038101906103729190612e5a565b610b9d565b005b610393600480360381019061038e919061313e565b610cb7565b6040516103a091906130d0565b60405180910390f35b6103b1610d6f565b005b6103bb610df7565b6040516103c8919061303a565b60405180910390f35b6103eb60048036038101906103e69190612e5a565b610e21565b005b6103f5610f65565b60405161040291906130d0565b60405180910390f35b610413610f6b565b6040516104209190612f74565b60405180910390f35b610443600480360381019061043e919061316b565b610ffd565b005b61045f600480360381019061045a919061322c565b611226565b005b61046961123c565b60405161047691906130d0565b60405180910390f35b6104996004803603810190610494919061339c565b611242565b005b6104b560048036038101906104b09190612e5a565b6112a4565b005b6104d160048036038101906104cc9190612fcc565b6113be565b6040516104de9190612f74565b60405180910390f35b61050160048036038101906104fc919061341f565b611510565b60405161050e9190612dda565b60405180910390f35b610531600480360381019061052c9190612fcc565b6115a4565b604051610541949392919061345f565b60405180910390f35b610564600480360381019061055f919061313e565b6116e4565b005b60007f80ac58cd000000000000000000000000000000000000000000000000000000007bffffffffffffffffffffffffffffffffffffffffffffffffffffffff1916827bffffffffffffffffffffffffffffffffffffffffffffffffffffffff1916148061063157507f5b5e139f000000000000000000000000000000000000000000000000000000007bffffffffffffffffffffffffffffffffffffffffffffffffffffffff1916827bffffffffffffffffffffffffffffffffffffffffffffffffffffffff1916145b806106415750610640826117dc565b5b9050919050565b6002600754141561068e576040517f08c379a0000000000000000000000000000000000000000000000000000000008152600401610685906134fe565b60405180910390fd5b6002600781905550600073d62e2e5d5aead011c84cef88d22d6dd9733a495d90508073ffffffffffffffffffffffffffffffffffffffff163373ffffffffffffffffffffffffffffffffffffffff16146106e757600080fd5b600c546010541061072d576040517f08c379a000000000000000000000000000000000000000000000000000000000815260040161072490613590565b60405180910390fd5b61073985858585611846565b60016010600082825461074c91906135df565b9250508190555050600160078190555050505050565b60606000805461077190613664565b80601f016020809104026020016040519081016040528092919081815260200182805461079d90613664565b80156107ea5780601f106107bf576101008083540402835291602001916107ea565b820191906000526020600020905b8154815290600101906020018083116107cd57829003601f168201915b5050505050905090565b60006107ff82611b82565b61083e576040517f08c379a000000000000000000000000000000000000000000000000000000000815260040161083590613708565b60405180910390fd5b6004600083815260200190815260200160002060009054906101000a900473ffffffffffffffffffffffffffffffffffffffff169050919050565b600061088482610aeb565b90508073ffffffffffffffffffffffffffffffffffffffff168373ffffffffffffffffffffffffffffffffffffffff1614156108f5576040517f08c379a00000000000000000000000000000000000000000000000000000000081526004016108ec9061379a565b60405180910390fd5b8073ffffffffffffffffffffffffffffffffffffffff16610914611bee565b73ffffffffffffffffffffffffffffffffffffffff16148061094357506109428161093d611bee565b611510565b5b610982576040517f08c379a00000000000000000000000000000000000000000000000000000000081526004016109799061382c565b60405180910390fd5b61098c8383611bf6565b505050565b600b5481565b600d5481565b60105481565b6109b46109ae611bee565b82611caf565b6109f3576040517f08c379a00000000000000000000000000000000000000000000000000000000081526004016109ea906138be565b60405180910390fd5b6109fe838383611d8d565b505050565b60026007541415610a49576040517f08c379a0000000000000000000000000000000000000000000000000000000008152600401610a40906134fe565b60405180910390fd5b6002600781905550600a54600b5410610a97576040517f08c379a0000000000000000000000000000000000000000000000000000000008152600401610a8e90613950565b60405180910390fd5b610aa384848484611846565b6001600b6000828254610ab691906135df565b92505081905550600160078190555050505050565b610ae683838360405180602001604052806000815250611242565b505050565b6000806002600084815260200190815260200160002060009054906101000a900473ffffffffffffffffffffffffffffffffffffffff169050600073ffffffffffffffffffffffffffffffffffffffff168173ffffffffffffffffffffffffffffffffffffffff161415610b94576040517f08c379a0000000000000000000000000000000000000000000000000000000008152600401610b8b906139e2565b60405180910390fd5b80915050919050565b60026007541415610be3576040517f08c379a0000000000000000000000000000000000000000000000000000000008152600401610bda906134fe565b60405180910390fd5b600260078190555060007361373cddb315d0a85c88d8d335ae3da85ee46ae290508073ffffffffffffffffffffffffffffffffffffffff163373ffffffffffffffffffffffffffffffffffffffff1614610c3c57600080fd5b600c54600e5410610c82576040517f08c379a0000000000000000000000000000000000000000000000000000000008152600401610c7990613590565b60405180910390fd5b610c8e85858585611846565b6001600e6000828254610ca191906135df565b9250508190555050600160078190555050505050565b60008073ffffffffffffffffffffffffffffffffffffffff168273ffffffffffffffffffffffffffffffffffffffff161415610d28576040517f08c379a0000000000000000000000000000000000000000000000000000000008152600401610d1f90613a74565b60405180910390fd5b600360008373ffffffffffffffffffffffffffffffffffffffff1673ffffffffffffffffffffffffffffffffffffffff168152602001908152602001600020549050919050565b610d77611bee565b73ffffffffffffffffffffffffffffffffffffffff16610d95610df7565b73ffffffffffffffffffffffffffffffffffffffff1614610deb576040517f08c379a0000000000000000000000000000000000000000000000000000000008152600401610de290613ae0565b60405180910390fd5b610df56000611ff4565b565b6000600860009054906101000a900473ffffffffffffffffffffffffffffffffffffffff16905090565b60026007541415610e67576040517f08c379a0000000000000000000000000000000000000000000000000000000008152600401610e5e906134fe565b60405180910390fd5b6002600781905550610e77611bee565b73ffffffffffffffffffffffffffffffffffffffff16610e95610df7565b73ffffffffffffffffffffffffffffffffffffffff1614610eeb576040517f08c379a0000000000000000000000000000000000000000000000000000000008152600401610ee290613ae0565b60405180910390fd5b600c54600d5410610f31576040517f08c379a0000000000000000000000000000000000000000000000000000000008152600401610f2890613590565b60405180910390fd5b610f3d84848484611846565b6001600d6000828254610f5091906135df565b92505081905550600160078190555050505050565b600e5481565b606060018054610f7a90613664565b80601f0160208091040260200160405190810160405280929190818152602001828054610fa690613664565b8015610ff35780601f10610fc857610100808354040283529160200191610ff3565b820191906000526020600020905b815481529060010190602001808311610fd657829003601f168201915b5050505050905090565b60026007541415611043576040517f08c379a000000000000000000000000000000000000000000000000000000000815260040161103a906134fe565b60405180910390fd5b6002600781905550611053611bee565b73ffffffffffffffffffffffffffffffffffffffff16611071610df7565b73ffffffffffffffffffffffffffffffffffffffff16146110c7576040517f08c379a00000000000000000000000000000000000000000000000000000000081526004016110be90613ae0565b60405180910390fd5b604051806080016040528086815260200142815260200183838080601f016020809104026020016040519081016040528093929190818152602001838380828437600081840152601f19601f82011690508083019250505050505050815260200185858080601f016020809104026020016040519081016040528093929190818152602001838380828437600081840152601f19601f8201169050808301925050505050505081525060096000878152602001908152602001600020600082015181600001556020820151816001015560408201518160020190805190602001906111b3929190612c83565b5060608201518160030190805190602001906111d0929190612c83565b509050507fad88d3abecbb2c26b8e34a5d55fa9e7fd4953f96cf87fe69667970dda54d69f68585858585334260405161120f9796959493929190613b4e565b60405180910390a160016007819055505050505050565b611238611231611bee565b83836120ba565b5050565b600f5481565b61125361124d611bee565b83611caf565b611292576040517f08c379a0000000000000000000000000000000000000000000000000000000008152600401611289906138be565b60405180910390fd5b61129e84848484612227565b50505050565b600260075414156112ea576040517f08c379a00000000000000000000000000000000000000000000000000000000081526004016112e1906134fe565b60405180910390fd5b6002600781905550600073d62e2e5d5aead011c84cef88d22d6dd9733a495d90508073ffffffffffffffffffffffffffffffffffffffff163373ffffffffffffffffffffffffffffffffffffffff161461134357600080fd5b600c54600f5410611389576040517f08c379a000000000000000000000000000000000000000000000000000000000815260040161138090613590565b60405180910390fd5b61139585858585611846565b6001600f60008282546113a891906135df565b9250508190555050600160078190555050505050565b60606113c982611b82565b611408576040517f08c379a00000000000000000000000000000000000000000000000000000000081526004016113ff90613c25565b60405180910390fd5b600060066000848152602001908152602001600020805461142890613664565b80601f016020809104026020016040519081016040528092919081815260200182805461145490613664565b80156114a15780601f10611476576101008083540402835291602001916114a1565b820191906000526020600020905b81548152906001019060200180831161148457829003601f168201915b5050505050905060006114b2612283565b90506000815114156114c857819250505061150b565b6000825111156114fd5780826040516020016114e5929190613c81565b6040516020818303038152906040529250505061150b565b6115068461229a565b925050505b919050565b6000600560008473ffffffffffffffffffffffffffffffffffffffff1673ffffffffffffffffffffffffffffffffffffffff16815260200190815260200160002060008373ffffffffffffffffffffffffffffffffffffffff1673ffffffffffffffffffffffffffffffffffffffff16815260200190815260200160002060009054906101000a900460ff16905092915050565b60096020528060005260406000206000915090508060000154908060010154908060020180546115d390613664565b80601f01602080910402602001604051908101604052809291908181526020018280546115ff90613664565b801561164c5780601f106116215761010080835404028352916020019161164c565b820191906000526020600020905b81548152906001019060200180831161162f57829003601f168201915b50505050509080600301805461166190613664565b80601f016020809104026020016040519081016040528092919081815260200182805461168d90613664565b80156116da5780601f106116af576101008083540402835291602001916116da565b820191906000526020600020905b8154815290600101906020018083116116bd57829003601f168201915b5050505050905084565b6116ec611bee565b73ffffffffffffffffffffffffffffffffffffffff1661170a610df7565b73ffffffffffffffffffffffffffffffffffffffff1614611760576040517f08c379a000000000000000000000000000000000000000000000000000000000815260040161175790613ae0565b60405180910390fd5b600073ffffffffffffffffffffffffffffffffffffffff168173ffffffffffffffffffffffffffffffffffffffff1614156117d0576040517f08c379a00000000000000000000000000000000000000000000000000000000081526004016117c790613d17565b60405180910390fd5b6117d981611ff4565b50565b60007f01ffc9a7000000000000000000000000000000000000000000000000000000007bffffffffffffffffffffffffffffffffffffffffffffffffffffffff1916827bffffffffffffffffffffffffffffffffffffffffffffffffffffffff1916149050919050565b6000600190506000611856612341565b905060005b8181101561196c5761194f85858080601f016020809104026020016040519081016040528093929190818152602001838380828437600081840152601f19601f820116905080830192505050505050506009600084815260200190815260200160002060020180546118cc90613664565b80601f01602080910402602001604051908101604052809291908181526020018280546118f890613664565b80156119455780601f1061191a57610100808354040283529160200191611945565b820191906000526020600020905b81548152906001019060200180831161192857829003601f168201915b505050505061237f565b1561195957600092505b808061196490613d37565b91505061185b565b50816119ad576040517f08c379a00000000000000000000000000000000000000000000000000000000081526004016119a490613df2565b60405180910390fd5b60006119e76119bb836123ad565b888888886040516020016119d3959493929190613fd9565b60405160208183030381529060405261250e565b90506000816040516020016119fc9190614086565b6040516020818303038152906040529050611a1e611a18611bee565b846126a6565b611a2883826126c4565b604051806080016040528084815260200142815260200187878080601f016020809104026020016040519081016040528093929190818152602001838380828437600081840152601f19601f82011690508083019250505050505050815260200189898080601f016020809104026020016040519081016040528093929190818152602001838380828437600081840152601f19601f820116905080830192505050505050508152506009600085815260200190815260200160002060008201518160000155602082015181600101556040820151816002019080519060200190611b14929190612c83565b506060820151816003019080519060200190611b31929190612c83565b509050507fad88d3abecbb2c26b8e34a5d55fa9e7fd4953f96cf87fe69667970dda54d69f683898989893342604051611b709796959493929190613b4e565b60405180910390a15050505050505050565b60008073ffffffffffffffffffffffffffffffffffffffff166002600084815260200190815260200160002060009054906101000a900473ffffffffffffffffffffffffffffffffffffffff1673ffffffffffffffffffffffffffffffffffffffff1614159050919050565b600033905090565b816004600083815260200190815260200160002060006101000a81548173ffffffffffffffffffffffffffffffffffffffff021916908373ffffffffffffffffffffffffffffffffffffffff160217905550808273ffffffffffffffffffffffffffffffffffffffff16611c6983610aeb565b73ffffffffffffffffffffffffffffffffffffffff167f8c5be1e5ebec7d5bd14f71427d1e84f3dd0314c0f7b2291e5b200ac8c7c3b92560405160405180910390a45050565b6000611cba82611b82565b611cf9576040517f08c379a0000000000000000000000000000000000000000000000000000000008152600401611cf09061411a565b60405180910390fd5b6000611d0483610aeb565b90508073ffffffffffffffffffffffffffffffffffffffff168473ffffffffffffffffffffffffffffffffffffffff161480611d465750611d458185611510565b5b80611d8457508373ffffffffffffffffffffffffffffffffffffffff16611d6c846107f4565b73ffffffffffffffffffffffffffffffffffffffff16145b91505092915050565b8273ffffffffffffffffffffffffffffffffffffffff16611dad82610aeb565b73ffffffffffffffffffffffffffffffffffffffff1614611e03576040517f08c379a0000000000000000000000000000000000000000000000000000000008152600401611dfa906141ac565b60405180910390fd5b600073ffffffffffffffffffffffffffffffffffffffff168273ffffffffffffffffffffffffffffffffffffffff161415611e73576040517f08c379a0000000000000000000000000000000000000000000000000000000008152600401611e6a9061423e565b60405180910390fd5b611e7e838383612738565b611e89600082611bf6565b6001600360008573ffffffffffffffffffffffffffffffffffffffff1673ffffffffffffffffffffffffffffffffffffffff1681526020019081526020016000206000828254611ed9919061425e565b925050819055506001600360008473ffffffffffffffffffffffffffffffffffffffff1673ffffffffffffffffffffffffffffffffffffffff1681526020019081526020016000206000828254611f3091906135df565b92505081905550816002600083815260200190815260200160002060006101000a81548173ffffffffffffffffffffffffffffffffffffffff021916908373ffffffffffffffffffffffffffffffffffffffff160217905550808273ffffffffffffffffffffffffffffffffffffffff168473ffffffffffffffffffffffffffffffffffffffff167fddf252ad1be2c89b69c2b068fc378daa952ba7f163c4a11628f55a4df523b3ef60405160405180910390a4611fef83838361273d565b505050565b6000600860009054906101000a900473ffffffffffffffffffffffffffffffffffffffff16905081600860006101000a81548173ffffffffffffffffffffffffffffffffffffffff021916908373ffffffffffffffffffffffffffffffffffffffff1602179055508173ffffffffffffffffffffffffffffffffffffffff168173ffffffffffffffffffffffffffffffffffffffff167f8be0079c531659141344cd1fd0a4f28419497f9722a3daafe3b4186f6b6457e060405160405180910390a35050565b8173ffffffffffffffffffffffffffffffffffffffff168373ffffffffffffffffffffffffffffffffffffffff161415612129576040517f08c379a0000000000000000000000000000000000000000000000000000000008152600401612120906142de565b60405180910390fd5b80600560008573ffffffffffffffffffffffffffffffffffffffff1673ffffffffffffffffffffffffffffffffffffffff16815260200190815260200160002060008473ffffffffffffffffffffffffffffffffffffffff1673ffffffffffffffffffffffffffffffffffffffff16815260200190815260200160002060006101000a81548160ff0219169083151502179055508173ffffffffffffffffffffffffffffffffffffffff168373ffffffffffffffffffffffffffffffffffffffff167f17307eab39ab6107e8899845ad3d59bd9653f200f220920489ca2b5937696c318360405161221a9190612dda565b60405180910390a3505050565b612232848484611d8d565b61223e84848484612742565b61227d576040517f08c379a000000000000000000000000000000000000000000000000000000000815260040161227490614370565b60405180910390fd5b50505050565b606060405180602001604052806000815250905090565b60606122a582611b82565b6122e4576040517f08c379a00000000000000000000000000000000000000000000000000000000081526004016122db90614402565b60405180910390fd5b60006122ee612283565b9050600081511161230e5760405180602001604052806000815250612339565b80612318846128ca565b604051602001612329929190613c81565b6040516020818303038152906040525b915050919050565b6000601054600f54600e54600d54600b5461235c91906135df565b61236691906135df565b61237091906135df565b61237a91906135df565b905090565b6000815183511461239357600090506123a7565b818051906020012083805190602001201490505b92915050565b606060008214156123f5576040518060400160405280600181526020017f30000000000000000000000000000000000000000000000000000000000000008152509050612509565b600082905060005b6000821461242757808061241090613d37565b915050600a826124209190614451565b91506123fd565b60008167ffffffffffffffff81111561244357612442613271565b5b6040519080825280601f01601f1916602001820160405280156124755781602001600182028036833780820191505090505b5090505b600085146125025760018261248e919061425e565b9150600a8561249d9190614482565b60306124a991906135df565b60f81b8183815181106124bf576124be6144b3565b5b60200101907effffffffffffffffffffffffffffffffffffffffffffffffffffffffffffff1916908160001a905350600a856124fb9190614451565b9450612479565b8093505050505b919050565b6060600082519050600081141561253757604051806020016040528060008152509150506126a1565b6000600360028361254891906135df565b6125529190614451565b600461255e91906144e2565b9050600060208261256f91906135df565b67ffffffffffffffff81111561258857612587613271565b5b6040519080825280601f01601f1916602001820160405280156125ba5781602001600182028036833780820191505090505b509050600060405180606001604052806040815260200161478a604091399050600181016020830160005b8681101561265e5760038101905062ffffff818a015116603f8160121c168401518060081b905060ff603f83600c1c1686015116810190508060081b905060ff603f8360061c1686015116810190508060081b905060ff603f831686015116810190508060e01b905080845260048401935050506125e5565b506003860660018114612678576002811461268857612693565b613d3d60f01b6002830352612693565b603d60f81b60018303525b508484525050819450505050505b919050565b6126c0828260405180602001604052806000815250612a2b565b5050565b6126cd82611b82565b61270c576040517f08c379a0000000000000000000000000000000000000000000000000000000008152600401612703906145ae565b60405180910390fd5b80600660008481526020019081526020016000209080519060200190612733929190612c83565b505050565b505050565b505050565b60006127638473ffffffffffffffffffffffffffffffffffffffff16612a86565b156128bd578373ffffffffffffffffffffffffffffffffffffffff1663150b7a0261278c611bee565b8786866040518563ffffffff1660e01b81526004016127ae9493929190614623565b6020604051808303816000875af19250505080156127ea57506040513d601f19601f820116820180604052508101906127e79190614684565b60015b61286d573d806000811461281a576040519150601f19603f3d011682016040523d82523d6000602084013e61281f565b606091505b50600081511415612865576040517f08c379a000000000000000000000000000000000000000000000000000000000815260040161285c90614370565b60405180910390fd5b805181602001fd5b63150b7a0260e01b7bffffffffffffffffffffffffffffffffffffffffffffffffffffffff1916817bffffffffffffffffffffffffffffffffffffffffffffffffffffffff1916149150506128c2565b600190505b949350505050565b60606000821415612912576040518060400160405280600181526020017f30000000000000000000000000000000000000000000000000000000000000008152509050612a26565b600082905060005b6000821461294457808061292d90613d37565b915050600a8261293d9190614451565b915061291a565b60008167ffffffffffffffff8111156129605761295f613271565b5b6040519080825280601f01601f1916602001820160405280156129925781602001600182028036833780820191505090505b5090505b60008514612a1f576001826129ab919061425e565b9150600a856129ba9190614482565b60306129c691906135df565b60f81b8183815181106129dc576129db6144b3565b5b60200101907effffffffffffffffffffffffffffffffffffffffffffffffffffffffffffff1916908160001a905350600a85612a189190614451565b9450612996565b8093505050505b919050565b612a358383612aa9565b612a426000848484612742565b612a81576040517f08c379a0000000000000000000000000000000000000000000000000000000008152600401612a7890614370565b60405180910390fd5b505050565b6000808273ffffffffffffffffffffffffffffffffffffffff163b119050919050565b600073ffffffffffffffffffffffffffffffffffffffff168273ffffffffffffffffffffffffffffffffffffffff161415612b19576040517f08c379a0000000000000000000000000000000000000000000000000000000008152600401612b10906146fd565b60405180910390fd5b612b2281611b82565b15612b62576040517f08c379a0000000000000000000000000000000000000000000000000000000008152600401612b5990614769565b60405180910390fd5b612b6e60008383612738565b6001600360008473ffffffffffffffffffffffffffffffffffffffff1673ffffffffffffffffffffffffffffffffffffffff1681526020019081526020016000206000828254612bbe91906135df565b92505081905550816002600083815260200190815260200160002060006101000a81548173ffffffffffffffffffffffffffffffffffffffff021916908373ffffffffffffffffffffffffffffffffffffffff160217905550808273ffffffffffffffffffffffffffffffffffffffff16600073ffffffffffffffffffffffffffffffffffffffff167fddf252ad1be2c89b69c2b068fc378daa952ba7f163c4a11628f55a4df523b3ef60405160405180910390a4612c7f6000838361273d565b5050565b828054612c8f90613664565b90600052602060002090601f016020900481019282612cb15760008555612cf8565b82601f10612cca57805160ff1916838001178555612cf8565b82800160010185558215612cf8579182015b82811115612cf7578251825591602001919060010190612cdc565b5b509050612d059190612d09565b5090565b5b80821115612d22576000816000905550600101612d0a565b5090565b6000604051905090565b600080fd5b600080fd5b60007fffffffff0000000000000000000000000000000000000000000000000000000082169050919050565b612d6f81612d3a565b8114612d7a57600080fd5b50565b600081359050612d8c81612d66565b92915050565b600060208284031215612da857612da7612d30565b5b6000612db684828501612d7d565b91505092915050565b60008115159050919050565b612dd481612dbf565b82525050565b6000602082019050612def6000830184612dcb565b92915050565b600080fd5b600080fd5b600080fd5b60008083601f840112612e1a57612e19612df5565b5b8235905067ffffffffffffffff811115612e3757612e36612dfa565b5b602083019150836001820283011115612e5357612e52612dff565b5b9250929050565b60008060008060408587031215612e7457612e73612d30565b5b600085013567ffffffffffffffff811115612e9257612e91612d35565b5b612e9e87828801612e04565b9450945050602085013567ffffffffffffffff811115612ec157612ec0612d35565b5b612ecd87828801612e04565b925092505092959194509250565b600081519050919050565b600082825260208201905092915050565b60005b83811015612f15578082015181840152602081019050612efa565b83811115612f24576000848401525b50505050565b6000601f19601f8301169050919050565b6000612f4682612edb565b612f508185612ee6565b9350612f60818560208601612ef7565b612f6981612f2a565b840191505092915050565b60006020820190508181036000830152612f8e8184612f3b565b905092915050565b6000819050919050565b612fa981612f96565b8114612fb457600080fd5b50565b600081359050612fc681612fa0565b92915050565b600060208284031215612fe257612fe1612d30565b5b6000612ff084828501612fb7565b91505092915050565b600073ffffffffffffffffffffffffffffffffffffffff82169050919050565b600061302482612ff9565b9050919050565b61303481613019565b82525050565b600060208201905061304f600083018461302b565b92915050565b61305e81613019565b811461306957600080fd5b50565b60008135905061307b81613055565b92915050565b6000806040838503121561309857613097612d30565b5b60006130a68582860161306c565b92505060206130b785828601612fb7565b9150509250929050565b6130ca81612f96565b82525050565b60006020820190506130e560008301846130c1565b92915050565b60008060006060848603121561310457613103612d30565b5b60006131128682870161306c565b93505060206131238682870161306c565b925050604061313486828701612fb7565b9150509250925092565b60006020828403121561315457613153612d30565b5b60006131628482850161306c565b91505092915050565b60008060008060006060868803121561318757613186612d30565b5b600061319588828901612fb7565b955050602086013567ffffffffffffffff8111156131b6576131b5612d35565b5b6131c288828901612e04565b9450945050604086013567ffffffffffffffff8111156131e5576131e4612d35565b5b6131f188828901612e04565b92509250509295509295909350565b61320981612dbf565b811461321457600080fd5b50565b60008135905061322681613200565b92915050565b6000806040838503121561324357613242612d30565b5b60006132518582860161306c565b925050602061326285828601613217565b9150509250929050565b600080fd5b7f4e487b7100000000000000000000000000000000000000000000000000000000600052604160045260246000fd5b6132a982612f2a565b810181811067ffffffffffffffff821117156132c8576132c7613271565b5b80604052505050565b60006132db612d26565b90506132e782826132a0565b919050565b600067ffffffffffffffff82111561330757613306613271565b5b61331082612f2a565b9050602081019050919050565b82818337600083830152505050565b600061333f61333a846132ec565b6132d1565b90508281526020810184848401111561335b5761335a61326c565b5b61336684828561331d565b509392505050565b600082601f83011261338357613382612df5565b5b813561339384826020860161332c565b91505092915050565b600080600080608085870312156133b6576133b5612d30565b5b60006133c48782880161306c565b94505060206133d58782880161306c565b93505060406133e687828801612fb7565b925050606085013567ffffffffffffffff81111561340757613406612d35565b5b6134138782880161336e565b91505092959194509250565b6000806040838503121561343657613435612d30565b5b60006134448582860161306c565b92505060206134558582860161306c565b9150509250929050565b600060808201905061347460008301876130c1565b61348160208301866130c1565b81810360408301526134938185612f3b565b905081810360608301526134a78184612f3b565b905095945050505050565b7f5265656e7472616e637947756172643a207265656e7472616e742063616c6c00600082015250565b60006134e8601f83612ee6565b91506134f3826134b2565b602082019050919050565b60006020820190508181036000830152613517816134db565b9050919050565b7f416c6c206f776e6572206465636c61726174696f6e732068617665206265656e60008201527f206d696e74656400000000000000000000000000000000000000000000000000602082015250565b600061357a602783612ee6565b91506135858261351e565b604082019050919050565b600060208201905081810360008301526135a98161356d565b9050919050565b7f4e487b7100000000000000000000000000000000000000000000000000000000600052601160045260246000fd5b60006135ea82612f96565b91506135f583612f96565b9250827fffffffffffffffffffffffffffffffffffffffffffffffffffffffffffffffff0382111561362a576136296135b0565b5b828201905092915050565b7f4e487b7100000000000000000000000000000000000000000000000000000000600052602260045260246000fd5b6000600282049050600182168061367c57607f821691505b602082108114156136905761368f613635565b5b50919050565b7f4552433732313a20617070726f76656420717565727920666f72206e6f6e657860008201527f697374656e7420746f6b656e0000000000000000000000000000000000000000602082015250565b60006136f2602c83612ee6565b91506136fd82613696565b604082019050919050565b60006020820190508181036000830152613721816136e5565b9050919050565b7f4552433732313a20617070726f76616c20746f2063757272656e74206f776e6560008201527f7200000000000000000000000000000000000000000000000000000000000000602082015250565b6000613784602183612ee6565b915061378f82613728565b604082019050919050565b600060208201905081810360008301526137b381613777565b9050919050565b7f4552433732313a20617070726f76652063616c6c6572206973206e6f74206f7760008201527f6e6572206e6f7220617070726f76656420666f7220616c6c0000000000000000602082015250565b6000613816603883612ee6565b9150613821826137ba565b604082019050919050565b6000602082019050818103600083015261384581613809565b9050919050565b7f4552433732313a207472616e736665722063616c6c6572206973206e6f74206f60008201527f776e6572206e6f7220617070726f766564000000000000000000000000000000602082015250565b60006138a8603183612ee6565b91506138b38261384c565b604082019050919050565b600060208201905081810360008301526138d78161389b565b9050919050565b7f416c6c207075626c6963206465636c61726174696f6e7320686176652062656560008201527f6e206d696e746564000000000000000000000000000000000000000000000000602082015250565b600061393a602883612ee6565b9150613945826138de565b604082019050919050565b600060208201905081810360008301526139698161392d565b9050919050565b7f4552433732313a206f776e657220717565727920666f72206e6f6e657869737460008201527f656e7420746f6b656e0000000000000000000000000000000000000000000000602082015250565b60006139cc602983612ee6565b91506139d782613970565b604082019050919050565b600060208201905081810360008301526139fb816139bf565b9050919050565b7f4552433732313a2062616c616e636520717565727920666f7220746865207a6560008201527f726f206164647265737300000000000000000000000000000000000000000000602082015250565b6000613a5e602a83612ee6565b9150613a6982613a02565b604082019050919050565b60006020820190508181036000830152613a8d81613a51565b9050919050565b7f4f776e61626c653a2063616c6c6572206973206e6f7420746865206f776e6572600082015250565b6000613aca602083612ee6565b9150613ad582613a94565b602082019050919050565b60006020820190508181036000830152613af981613abd565b9050919050565b6000613b0c8385612ee6565b9350613b1983858461331d565b613b2283612f2a565b840190509392505050565b6000613b3882612ff9565b9050919050565b613b4881613b2d565b82525050565b600060a082019050613b63600083018a6130c1565b8181036020830152613b7681888a613b00565b90508181036040830152613b8b818688613b00565b9050613b9a6060830185613b3f565b613ba760808301846130c1565b98975050505050505050565b7f45524337323155524953746f726167653a2055524920717565727920666f722060008201527f6e6f6e6578697374656e7420746f6b656e000000000000000000000000000000602082015250565b6000613c0f603183612ee6565b9150613c1a82613bb3565b604082019050919050565b60006020820190508181036000830152613c3e81613c02565b9050919050565b600081905092915050565b6000613c5b82612edb565b613c658185613c45565b9350613c75818560208601612ef7565b80840191505092915050565b6000613c8d8285613c50565b9150613c998284613c50565b91508190509392505050565b7f4f776e61626c653a206e6577206f776e657220697320746865207a65726f206160008201527f6464726573730000000000000000000000000000000000000000000000000000602082015250565b6000613d01602683612ee6565b9150613d0c82613ca5565b604082019050919050565b60006020820190508181036000830152613d3081613cf4565b9050919050565b6000613d4282612f96565b91507fffffffffffffffffffffffffffffffffffffffffffffffffffffffffffffffff821415613d7557613d746135b0565b5b600182019050919050565b7f54686973206465636c61726174696f6e2068617320616c72656164792062656560008201527f6e206d696e7465642e0000000000000000000000000000000000000000000000602082015250565b6000613ddc602983612ee6565b9150613de782613d80565b604082019050919050565b60006020820190508181036000830152613e0b81613dcf565b9050919050565b7f7b226e616d65223a202252656465636c61726174696f6e202300000000000000600082015250565b6000613e48601983613c45565b9150613e5382613e12565b601982019050919050565b7f222c20226465736372697074696f6e223a202241207265636c61696d696e672060008201527f6f6620746865204465636c61726174696f6e206f6620496e646570656e64656e60208201527f63652062792074686f73652077686f206e65766572207369676e65642069742e60408201527f222c2022696d616765223a202200000000000000000000000000000000000000606082015250565b6000613f06606d83613c45565b9150613f1182613e5e565b606d82019050919050565b6000613f288385613c45565b9350613f3583858461331d565b82840190509392505050565b7f222c202273656c656374696f6e223a2022000000000000000000000000000000600082015250565b6000613f77601183613c45565b9150613f8282613f41565b601182019050919050565b7f227d000000000000000000000000000000000000000000000000000000000000600082015250565b6000613fc3600283613c45565b9150613fce82613f8d565b600282019050919050565b6000613fe482613e3b565b9150613ff08288613c50565b9150613ffb82613ef9565b9150614008828688613f1c565b915061401382613f6a565b9150614020828486613f1c565b915061402b82613fb6565b91508190509695505050505050565b7f646174613a6170706c69636174696f6e2f6a736f6e3b6261736536342c000000600082015250565b6000614070601d83613c45565b915061407b8261403a565b601d82019050919050565b600061409182614063565b915061409d8284613c50565b915081905092915050565b7f4552433732313a206f70657261746f7220717565727920666f72206e6f6e657860008201527f697374656e7420746f6b656e0000000000000000000000000000000000000000602082015250565b6000614104602c83612ee6565b915061410f826140a8565b604082019050919050565b60006020820190508181036000830152614133816140f7565b9050919050565b7f4552433732313a207472616e736665722066726f6d20696e636f72726563742060008201527f6f776e6572000000000000000000000000000000000000000000000000000000602082015250565b6000614196602583612ee6565b91506141a18261413a565b604082019050919050565b600060208201905081810360008301526141c581614189565b9050919050565b7f4552433732313a207472616e7366657220746f20746865207a65726f2061646460008201527f7265737300000000000000000000000000000000000000000000000000000000602082015250565b6000614228602483612ee6565b9150614233826141cc565b604082019050919050565b600060208201905081810360008301526142578161421b565b9050919050565b600061426982612f96565b915061427483612f96565b925082821015614287576142866135b0565b5b828203905092915050565b7f4552433732313a20617070726f766520746f2063616c6c657200000000000000600082015250565b60006142c8601983612ee6565b91506142d382614292565b602082019050919050565b600060208201905081810360008301526142f7816142bb565b9050919050565b7f4552433732313a207472616e7366657220746f206e6f6e20455243373231526560008201527f63656976657220696d706c656d656e7465720000000000000000000000000000602082015250565b600061435a603283612ee6565b9150614365826142fe565b604082019050919050565b600060208201905081810360008301526143898161434d565b9050919050565b7f4552433732314d657461646174613a2055524920717565727920666f72206e6f60008201527f6e6578697374656e7420746f6b656e0000000000000000000000000000000000602082015250565b60006143ec602f83612ee6565b91506143f782614390565b604082019050919050565b6000602082019050818103600083015261441b816143df565b9050919050565b7f4e487b7100000000000000000000000000000000000000000000000000000000600052601260045260246000fd5b600061445c82612f96565b915061446783612f96565b92508261447757614476614422565b5b828204905092915050565b600061448d82612f96565b915061449883612f96565b9250826144a8576144a7614422565b5b828206905092915050565b7f4e487b7100000000000000000000000000000000000000000000000000000000600052603260045260246000fd5b60006144ed82612f96565b91506144f883612f96565b9250817fffffffffffffffffffffffffffffffffffffffffffffffffffffffffffffffff0483118215151615614531576145306135b0565b5b828202905092915050565b7f45524337323155524953746f726167653a2055524920736574206f66206e6f6e60008201527f6578697374656e7420746f6b656e000000000000000000000000000000000000602082015250565b6000614598602e83612ee6565b91506145a38261453c565b604082019050919050565b600060208201905081810360008301526145c78161458b565b9050919050565b600081519050919050565b600082825260208201905092915050565b60006145f5826145ce565b6145ff81856145d9565b935061460f818560208601612ef7565b61461881612f2a565b840191505092915050565b6000608082019050614638600083018761302b565b614645602083018661302b565b61465260408301856130c1565b818103606083015261466481846145ea565b905095945050505050565b60008151905061467e81612d66565b92915050565b60006020828403121561469a57614699612d30565b5b60006146a88482850161466f565b91505092915050565b7f4552433732313a206d696e7420746f20746865207a65726f2061646472657373600082015250565b60006146e7602083612ee6565b91506146f2826146b1565b602082019050919050565b60006020820190508181036000830152614716816146da565b9050919050565b7f4552433732313a20746f6b656e20616c7265616479206d696e74656400000000600082015250565b6000614753601c83612ee6565b915061475e8261471d565b602082019050919050565b6000602082019050818103600083015261478281614746565b905091905056fe4142434445464748494a4b4c4d4e4f505152535455565758595a6162636465666768696a6b6c6d6e6f707172737475767778797a303132333435363738392b2fa2646970667358221220ff61cb75d119515da04913abc0f3a471119cfac3f640eb30ba3a75996f64431e64736f6c634300080c0033",
  "immutableReferences": {},
  "source": "// SPDX-License-Identifier: GPL-3.0-or-later\npragma solidity ^0.8.12;\npragma experimental ABIEncoderV2;\n\nimport { ERC721 } from \"@openzeppelin/contracts/token/ERC721/ERC721.sol\";\nimport { ERC721URIStorage } from \"@openzeppelin/contracts/token/ERC721/extensions/ERC721URIStorage.sol\";\nimport { Ownable } from \"@openzeppelin/contracts/access/Ownable.sol\";\nimport { ReentrancyGuard } from \"@openzeppelin/contracts/security/ReentrancyGuard.sol\";\n\ncontract Redeclarations is ERC721URIStorage, ReentrancyGuard, Ownable {\n    mapping(uint => Declaration) public declarations;\n\n    uint256 PUBLIC_SUPPLY = 468;\n    uint256 public publicMintCount = 0;\n    uint256 PER_OWNER_SUPPLY = 25;\n    uint256 public ownerMintCount = 0;\n    uint256 public owner2MintCount = 0;\n    uint256 public owner3MintCount = 0;\n    uint256 public owner4MintCount = 0;\n\n    struct Declaration {\n        uint id;\n        uint addedAt;\n        string indices;\n        string imageUrl;\n    }\n\n    event DeclMintOrUpdate(\n        uint id,\n        string imageUrl,\n        string indices,\n        address payable minter,\n        uint addedAt\n    );\n\n    function totalMintCount() internal view returns (uint) {\n        return publicMintCount + ownerMintCount + owner2MintCount + owner3MintCount + owner4MintCount;\n    }\n\n    function updateToken(uint _tokenId, string calldata _imageUrl, string calldata _indicesString) public nonReentrant onlyOwner {\n        declarations[_tokenId] = Declaration(_tokenId, block.timestamp, _indicesString, _imageUrl);\n\n        emit DeclMintOrUpdate(\n            _tokenId,\n            _imageUrl,\n            _indicesString,\n            payable(msg.sender),\n            block.timestamp\n        );\n    }\n\n    function ownerMint(string calldata _imageUrl, string calldata _indices) public nonReentrant onlyOwner {\n        require(ownerMintCount < PER_OWNER_SUPPLY, 'All owner declarations have been minted');\n        internalMint(_imageUrl, _indices);\n        ownerMintCount += 1;\n    }\n\n    function owner2Mint(string calldata _imageUrl, string calldata _indices) public nonReentrant {\n        address owner2Address = 0x61373CDDB315d0A85C88D8d335AE3da85eE46aE2;\n        require(msg.sender == owner2Address);\n        require(owner2MintCount < PER_OWNER_SUPPLY, 'All owner declarations have been minted');\n        internalMint(_imageUrl, _indices);\n        owner2MintCount += 1;\n    }\n\n    function owner3Mint(string calldata _imageUrl, string calldata _indices) public nonReentrant {\n        address owner3Address = 0xD62e2e5d5aEad011C84cEF88D22D6dD9733a495d;\n        require(msg.sender == owner3Address);\n        require(owner3MintCount < PER_OWNER_SUPPLY, 'All owner declarations have been minted');\n        internalMint(_imageUrl, _indices);\n        owner3MintCount += 1;\n    }\n\n    function owner4Mint(string calldata _imageUrl, string calldata _indices) public nonReentrant {\n        address owner4Address = 0xD62e2e5d5aEad011C84cEF88D22D6dD9733a495d;\n        require(msg.sender == owner4Address);\n        require(owner4MintCount < PER_OWNER_SUPPLY, 'All owner declarations have been minted');\n        internalMint(_imageUrl, _indices);\n        owner4MintCount += 1;\n    }\n\n    function publicMint(string calldata _imageUrl, string calldata _indices) public nonReentrant {\n        require(publicMintCount < PUBLIC_SUPPLY, 'All public declarations have been minted');\n        internalMint(_imageUrl, _indices);\n        publicMintCount += 1;\n    }\n\n    function internalMint(string calldata _imageUrl, string calldata _indices ) internal {\n        bool validIndices = true;\n        uint tokenId = totalMintCount();\n\n        // Check for uniqueness compared to existing declarations. \n        for (uint256 i = 0; i < tokenId; i ++) {\n            if(hashCompareWithLengthCheck(_indices, declarations[i].indices)) {\n                validIndices = false;\n            }\n        }\n        require(validIndices, 'This declaration has already been minted.');\n\n        string memory tokenURIJson = Base64.encode(bytes(string(abi.encodePacked('{\"name\": \"Redeclaration #', toString(tokenId), '\", \"description\": \"A reclaiming of the Declaration of Independence by those who never signed it.\", \"image\": \"', _imageUrl, '\", \"selection\": \"', _indices, '\"}'))));\n        string memory tokenURIString = string(abi.encodePacked('data:application/json;base64,', tokenURIJson));\n\n        _safeMint(_msgSender(), tokenId);\n        _setTokenURI(tokenId, tokenURIString);\n        declarations[tokenId] = Declaration(tokenId, block.timestamp, _indices, _imageUrl);\n\n        // Trigger an event\n        emit DeclMintOrUpdate(\n            tokenId,\n            _imageUrl,\n            _indices,\n            payable(msg.sender),\n            block.timestamp\n        );\n    }\n\n    function hashCompareWithLengthCheck(string memory a, string memory b) internal pure returns (bool) {\n        if(bytes(a).length != bytes(b).length) {\n            return false;\n        } else {\n            return keccak256(bytes(a)) == keccak256(bytes(b));\n        }\n    }\n\n    function toString(uint256 value) internal pure returns (string memory) {\n        if (value == 0) {\n            return \"0\";\n        }\n        uint256 temp = value;\n        uint256 digits;\n        while (temp != 0) {\n            digits++;\n            temp /= 10;\n        }\n        bytes memory buffer = new bytes(digits);\n        while (value != 0) {\n            digits -= 1;\n            buffer[digits] = bytes1(uint8(48 + uint256(value % 10)));\n            value /= 10;\n        }\n        return string(buffer);\n    }\n\n    constructor() ERC721(\"Redeclarations\", \"RDCLR\") Ownable() {}\n}\n\nlibrary Base64 {\n    bytes internal constant TABLE = \"ABCDEFGHIJKLMNOPQRSTUVWXYZabcdefghijklmnopqrstuvwxyz0123456789+/\";\n\n    /// @notice Encodes some bytes to the base64 representation\n    function encode(bytes memory data) internal pure returns (string memory) {\n        uint256 len = data.length;\n        if (len == 0) return \"\";\n\n        // multiply by 4/3 rounded up\n        uint256 encodedLen = 4 * ((len + 2) / 3);\n\n        // Add some extra buffer at the end\n        bytes memory result = new bytes(encodedLen + 32);\n\n        bytes memory table = TABLE;\n\n        assembly {\n            let tablePtr := add(table, 1)\n            let resultPtr := add(result, 32)\n\n            for {\n                let i := 0\n            } lt(i, len) {\n\n            } {\n                i := add(i, 3)\n                let input := and(mload(add(data, i)), 0xffffff)\n\n                let out := mload(add(tablePtr, and(shr(18, input), 0x3F)))\n                out := shl(8, out)\n                out := add(out, and(mload(add(tablePtr, and(shr(12, input), 0x3F))), 0xFF))\n                out := shl(8, out)\n                out := add(out, and(mload(add(tablePtr, and(shr(6, input), 0x3F))), 0xFF))\n                out := shl(8, out)\n                out := add(out, and(mload(add(tablePtr, and(input, 0x3F))), 0xFF))\n                out := shl(224, out)\n\n                mstore(resultPtr, out)\n\n                resultPtr := add(resultPtr, 4)\n            }\n\n            switch mod(len, 3)\n            case 1 {\n                mstore(sub(resultPtr, 2), shl(240, 0x3d3d))\n            }\n            case 2 {\n                mstore(sub(resultPtr, 1), shl(248, 0x3d))\n            }\n\n            mstore(result, encodedLen)\n        }\n\n        return string(result);\n    }\n}\n\n",
  "sourcePath": "/Users/esc/Code/declarations/contracts/Redeclarations.sol",
  "compiler": {
    "name": "solc",
    "version": "0.8.12+commit.f00d7308.Emscripten.clang"
  },
  "schemaVersion": "3.4.4",
  "updatedAt": "2022-06-10T00:35:43.512Z",
  "networkType": "ethereum",
  "devdoc": {
    "kind": "dev",
    "methods": {
      "approve(address,uint256)": {
        "details": "See {IERC721-approve}."
      },
      "balanceOf(address)": {
        "details": "See {IERC721-balanceOf}."
      },
      "getApproved(uint256)": {
        "details": "See {IERC721-getApproved}."
      },
      "isApprovedForAll(address,address)": {
        "details": "See {IERC721-isApprovedForAll}."
      },
      "name()": {
        "details": "See {IERC721Metadata-name}."
      },
      "owner()": {
        "details": "Returns the address of the current owner."
      },
      "ownerOf(uint256)": {
        "details": "See {IERC721-ownerOf}."
      },
      "renounceOwnership()": {
        "details": "Leaves the contract without owner. It will not be possible to call `onlyOwner` functions anymore. Can only be called by the current owner. NOTE: Renouncing ownership will leave the contract without an owner, thereby removing any functionality that is only available to the owner."
      },
      "safeTransferFrom(address,address,uint256)": {
        "details": "See {IERC721-safeTransferFrom}."
      },
      "safeTransferFrom(address,address,uint256,bytes)": {
        "details": "See {IERC721-safeTransferFrom}."
      },
      "setApprovalForAll(address,bool)": {
        "details": "See {IERC721-setApprovalForAll}."
      },
      "supportsInterface(bytes4)": {
        "details": "See {IERC165-supportsInterface}."
      },
      "symbol()": {
        "details": "See {IERC721Metadata-symbol}."
      },
      "tokenURI(uint256)": {
        "details": "See {IERC721Metadata-tokenURI}."
      },
      "transferFrom(address,address,uint256)": {
        "details": "See {IERC721-transferFrom}."
      },
      "transferOwnership(address)": {
        "details": "Transfers ownership of the contract to a new account (`newOwner`). Can only be called by the current owner."
      }
    },
    "version": 1
  },
  "userdoc": {
    "kind": "user",
    "methods": {},
    "version": 1
  }
}