{
  "contractName": "Sonnet",
  "abi": [
    {
      "inputs": [],
      "stateMutability": "nonpayable",
      "type": "constructor"
    },
    {
      "anonymous": false,
      "inputs": [
        {
          "indexed": false,
          "internalType": "uint256",
          "name": "id",
          "type": "uint256"
        },
        {
          "indexed": false,
          "internalType": "string",
          "name": "content",
          "type": "string"
        },
        {
          "indexed": false,
          "internalType": "address payable",
          "name": "poet",
          "type": "address"
        },
        {
          "indexed": false,
          "internalType": "uint256",
          "name": "addedAt",
          "type": "uint256"
        }
      ],
      "name": "LineAdded",
      "type": "event"
    },
    {
      "inputs": [],
      "name": "lineCount",
      "outputs": [
        {
          "internalType": "uint256",
          "name": "",
          "type": "uint256"
        }
      ],
      "stateMutability": "view",
      "type": "function"
    },
    {
      "inputs": [
        {
          "internalType": "uint256",
          "name": "",
          "type": "uint256"
        }
      ],
      "name": "lines",
      "outputs": [
        {
          "internalType": "uint256",
          "name": "id",
          "type": "uint256"
        },
        {
          "internalType": "string",
          "name": "content",
          "type": "string"
        },
        {
          "internalType": "address payable",
          "name": "poet",
          "type": "address"
        },
        {
          "internalType": "uint256",
          "name": "addedAt",
          "type": "uint256"
        }
      ],
      "stateMutability": "view",
      "type": "function"
    },
    {
      "inputs": [],
      "name": "name",
      "outputs": [
        {
          "internalType": "string",
          "name": "",
          "type": "string"
        }
      ],
      "stateMutability": "view",
      "type": "function"
    },
    {
      "inputs": [
        {
          "internalType": "string",
          "name": "_content",
          "type": "string"
        }
      ],
      "name": "addLine",
      "outputs": [],
      "stateMutability": "nonpayable",
      "type": "function"
    }
  ],
  "bytecode": "0x6080604052600060015534801561001557600080fd5b506040518060400160405280600b81526020017f536f6e6e6574204461707000000000000000000000000000000000000000000081525060009080519060200190610061929190610067565b5061016b565b8280546100739061010a565b90600052602060002090601f01602090048101928261009557600085556100dc565b82601f106100ae57805160ff19168380011785556100dc565b828001600101855582156100dc579182015b828111156100db5782518255916020019190600101906100c0565b5b5090506100e991906100ed565b5090565b5b808211156101065760008160009055506001016100ee565b5090565b6000600282049050600182168061012257607f821691505b602082108114156101365761013561013c565b5b50919050565b7f4e487b7100000000000000000000000000000000000000000000000000000000600052602260045260246000fd5b61086a8061017a6000396000f3fe608060405234801561001057600080fd5b506004361061004c5760003560e01c806306fdde031461005157806313b0fc0c1461006f5780631c86bc851461008b578063fd3615c9146100be575b600080fd5b6100596100dc565b604051610066919061055a565b60405180910390f35b61008960048036038101906100849190610499565b61016a565b005b6100a560048036038101906100a091906104da565b61029b565b6040516100b59493929190610597565b60405180910390f35b6100c6610373565b6040516100d3919061057c565b60405180910390f35b600080546100e9906106d3565b80601f0160208091040260200160405190810160405280929190818152602001828054610115906106d3565b80156101625780601f1061013757610100808354040283529160200191610162565b820191906000526020600020905b81548152906001019060200180831161014557829003601f168201915b505050505081565b600081511161017857600080fd5b604051806080016040528060015481526020018281526020013373ffffffffffffffffffffffffffffffffffffffff168152602001428152506002600060015481526020019081526020016000206000820151816000015560208201518160010190805190602001906101ec929190610379565b5060408201518160020160006101000a81548173ffffffffffffffffffffffffffffffffffffffff021916908373ffffffffffffffffffffffffffffffffffffffff160217905550606082015181600301559050507fc488399db5b8ad235e282a850555292e856b143c9f6256ffb785b24bd9ae87866001548233426040516102789493929190610597565b60405180910390a16001600081548092919061029390610736565b919050555050565b60026020528060005260406000206000915090508060000154908060010180546102c4906106d3565b80601f01602080910402602001604051908101604052809291908181526020018280546102f0906106d3565b801561033d5780601f106103125761010080835404028352916020019161033d565b820191906000526020600020905b81548152906001019060200180831161032057829003601f168201915b5050505050908060020160009054906101000a900473ffffffffffffffffffffffffffffffffffffffff16908060030154905084565b60015481565b828054610385906106d3565b90600052602060002090601f0160209004810192826103a757600085556103ee565b82601f106103c057805160ff19168380011785556103ee565b828001600101855582156103ee579182015b828111156103ed5782518255916020019190600101906103d2565b5b5090506103fb91906103ff565b5090565b5b80821115610418576000816000905550600101610400565b5090565b600061042f61042a84610608565b6105e3565b90508281526020810184848401111561044757600080fd5b610452848285610691565b509392505050565b600082601f83011261046b57600080fd5b813561047b84826020860161041c565b91505092915050565b6000813590506104938161081d565b92915050565b6000602082840312156104ab57600080fd5b600082013567ffffffffffffffff8111156104c557600080fd5b6104d18482850161045a565b91505092915050565b6000602082840312156104ec57600080fd5b60006104fa84828501610484565b91505092915050565b61050c81610655565b82525050565b600061051d82610639565b6105278185610644565b93506105378185602086016106a0565b6105408161080c565b840191505092915050565b61055481610687565b82525050565b600060208201905081810360008301526105748184610512565b905092915050565b6000602082019050610591600083018461054b565b92915050565b60006080820190506105ac600083018761054b565b81810360208301526105be8186610512565b90506105cd6040830185610503565b6105da606083018461054b565b95945050505050565b60006105ed6105fe565b90506105f98282610705565b919050565b6000604051905090565b600067ffffffffffffffff821115610623576106226107dd565b5b61062c8261080c565b9050602081019050919050565b600081519050919050565b600082825260208201905092915050565b600061066082610667565b9050919050565b600073ffffffffffffffffffffffffffffffffffffffff82169050919050565b6000819050919050565b82818337600083830152505050565b60005b838110156106be5780820151818401526020810190506106a3565b838111156106cd576000848401525b50505050565b600060028204905060018216806106eb57607f821691505b602082108114156106ff576106fe6107ae565b5b50919050565b61070e8261080c565b810181811067ffffffffffffffff8211171561072d5761072c6107dd565b5b80604052505050565b600061074182610687565b91507fffffffffffffffffffffffffffffffffffffffffffffffffffffffffffffffff8214156107745761077361077f565b5b600182019050919050565b7f4e487b7100000000000000000000000000000000000000000000000000000000600052601160045260246000fd5b7f4e487b7100000000000000000000000000000000000000000000000000000000600052602260045260246000fd5b7f4e487b7100000000000000000000000000000000000000000000000000000000600052604160045260246000fd5b6000601f19601f8301169050919050565b61082681610687565b811461083157600080fd5b5056fea26469706673582212202288c6e48bb82e64638ec798bdd611339a6f11fe80235df6184995052c03dcf964736f6c63430008010033",
  "immutableReferences": {},
  "source": "// SPDX-License-Identifier: MIT\npragma solidity ^0.8.0;\n\ncontract Sonnet {\n    string public name;\n    uint public lineCount = 0;\n    mapping(uint => Line) public lines;\n\n    struct Line {\n        uint id;\n        string content;\n        address payable poet;\n        uint addedAt;\n    }\n\n    event LineAdded(\n        uint id,\n        string content,\n        address payable poet,\n        uint addedAt\n    );\n\n    constructor() {\n        name = \"Sonnet Dapp\";\n    }\n\n    function addLine(string memory _content) public {\n        // Require a valid name\n        require(bytes(_content).length > 0);\n        \n        // Create the line\n        lines[lineCount] = Line(lineCount, _content, payable(msg.sender), block.timestamp);\n\n        // Trigger an event\n        emit LineAdded(lineCount, _content, payable(msg.sender), block.timestamp);\n\n        // Increment line count\n        lineCount ++;\n    }\n}",
  "sourcePath": "/Users/esc/Code/declarations/contracts/Sonnet.sol",
  "compiler": {
    "name": "solc",
    "version": "0.8.1+commit.df193b15.Emscripten.clang"
  },
  "schemaVersion": "3.4.4",
  "updatedAt": "2022-05-27T22:19:46.040Z",
  "devdoc": {
    "kind": "dev",
    "methods": {},
    "version": 1
  },
  "userdoc": {
    "kind": "user",
    "methods": {},
    "version": 1
  }
}